{
  "contractName": "ExplorationNext",
  "abi": [
    {
      "inputs": [],
      "stateMutability": "nonpayable",
      "type": "constructor"
    },
    {
      "anonymous": false,
      "inputs": [
        {
          "indexed": true,
          "internalType": "address",
          "name": "owner",
          "type": "address"
        },
        {
          "indexed": true,
          "internalType": "address",
          "name": "spender",
          "type": "address"
        },
        {
          "indexed": false,
          "internalType": "uint256",
          "name": "value",
          "type": "uint256"
        }
      ],
      "name": "Approval",
      "type": "event"
    },
    {
      "anonymous": false,
      "inputs": [
        {
          "indexed": false,
          "internalType": "address",
          "name": "externalAddress",
          "type": "address"
        },
        {
          "indexed": false,
          "internalType": "address",
          "name": "toAddress",
          "type": "address"
        },
        {
          "indexed": false,
          "internalType": "uint256",
          "name": "amount",
          "type": "uint256"
        }
      ],
      "name": "ExternalTokenTransfered",
      "type": "event"
    },
    {
      "anonymous": false,
      "inputs": [
        {
          "indexed": false,
          "internalType": "bool",
          "name": "enableFee",
          "type": "bool"
        }
      ],
      "name": "FeeEnable",
      "type": "event"
    },
    {
      "anonymous": false,
      "inputs": [
        {
          "indexed": true,
          "internalType": "address",
          "name": "previousOwner",
          "type": "address"
        },
        {
          "indexed": true,
          "internalType": "address",
          "name": "newOwner",
          "type": "address"
        }
      ],
      "name": "OwnershipTransferred",
      "type": "event"
    },
    {
      "anonymous": false,
      "inputs": [
        {
          "indexed": false,
          "internalType": "address",
          "name": "account",
          "type": "address"
        }
      ],
      "name": "Paused",
      "type": "event"
    },
    {
      "anonymous": false,
      "inputs": [
        {
          "indexed": false,
          "internalType": "uint256",
          "name": "amount",
          "type": "uint256"
        }
      ],
      "name": "RedistributionFee",
      "type": "event"
    },
    {
      "anonymous": false,
      "inputs": [
        {
          "indexed": false,
          "internalType": "uint256",
          "name": "maxPercent",
          "type": "uint256"
        }
      ],
      "name": "SetMaxTxPercent",
      "type": "event"
    },
    {
      "anonymous": false,
      "inputs": [
        {
          "indexed": false,
          "internalType": "uint256",
          "name": "taxFeePercent",
          "type": "uint256"
        }
      ],
      "name": "SetTaxFeePercent",
      "type": "event"
    },
    {
      "anonymous": false,
      "inputs": [
        {
          "indexed": false,
          "internalType": "uint256",
          "name": "tokensSwapped",
          "type": "uint256"
        },
        {
          "indexed": false,
          "internalType": "uint256",
          "name": "ethReceived",
          "type": "uint256"
        },
        {
          "indexed": false,
          "internalType": "uint256",
          "name": "tokensIntoLiqudity",
          "type": "uint256"
        }
      ],
      "name": "SwapAndLiquify",
      "type": "event"
    },
    {
      "anonymous": false,
      "inputs": [
        {
          "indexed": false,
          "internalType": "bool",
          "name": "enabled",
          "type": "bool"
        }
      ],
      "name": "SwapAndLiquifyEnabledUpdated",
      "type": "event"
    },
    {
      "anonymous": false,
      "inputs": [
        {
          "indexed": true,
          "internalType": "address",
          "name": "from",
          "type": "address"
        },
        {
          "indexed": true,
          "internalType": "address",
          "name": "to",
          "type": "address"
        },
        {
          "indexed": false,
          "internalType": "uint256",
          "name": "value",
          "type": "uint256"
        }
      ],
      "name": "Transfer",
      "type": "event"
    },
    {
      "anonymous": false,
      "inputs": [
        {
          "indexed": false,
          "internalType": "address",
          "name": "account",
          "type": "address"
        }
      ],
      "name": "Unpaused",
      "type": "event"
    },
    {
      "anonymous": false,
      "inputs": [
        {
          "indexed": false,
          "internalType": "uint256",
          "name": "amount",
          "type": "uint256"
        }
      ],
      "name": "liqFee",
      "type": "event"
    },
    {
      "anonymous": false,
      "inputs": [
        {
          "indexed": false,
          "internalType": "uint256",
          "name": "amount",
          "type": "uint256"
        }
      ],
      "name": "marketWalletFee",
      "type": "event"
    },
    {
      "inputs": [],
      "name": "_transactionBurn",
      "outputs": [
        {
          "internalType": "uint256",
          "name": "",
          "type": "uint256"
        }
      ],
      "stateMutability": "view",
      "type": "function",
      "constant": true
    },
    {
      "inputs": [],
      "name": "enableFee",
      "outputs": [
        {
          "internalType": "bool",
          "name": "",
          "type": "bool"
        }
      ],
      "stateMutability": "view",
      "type": "function",
      "constant": true
    },
    {
      "inputs": [],
      "name": "liquidityFee",
      "outputs": [
        {
          "internalType": "uint256",
          "name": "",
          "type": "uint256"
        }
      ],
      "stateMutability": "view",
      "type": "function",
      "constant": true
    },
    {
      "inputs": [],
      "name": "marketingWalletFee",
      "outputs": [
        {
          "internalType": "uint256",
          "name": "",
          "type": "uint256"
        }
      ],
      "stateMutability": "view",
      "type": "function",
      "constant": true
    },
    {
      "inputs": [],
      "name": "owner",
      "outputs": [
        {
          "internalType": "address",
          "name": "",
          "type": "address"
        }
      ],
      "stateMutability": "view",
      "type": "function",
      "constant": true
    },
    {
      "inputs": [],
      "name": "paused",
      "outputs": [
        {
          "internalType": "bool",
          "name": "",
          "type": "bool"
        }
      ],
      "stateMutability": "view",
      "type": "function",
      "constant": true
    },
    {
      "inputs": [],
      "name": "reflectionFee",
      "outputs": [
        {
          "internalType": "uint256",
          "name": "",
          "type": "uint256"
        }
      ],
      "stateMutability": "view",
      "type": "function",
      "constant": true
    },
    {
      "inputs": [],
      "name": "renounceOwnership",
      "outputs": [],
      "stateMutability": "nonpayable",
      "type": "function"
    },
    {
      "inputs": [],
      "name": "swapAndLiquifyEnabled",
      "outputs": [
        {
          "internalType": "bool",
          "name": "",
          "type": "bool"
        }
      ],
      "stateMutability": "view",
      "type": "function",
      "constant": true
    },
    {
      "inputs": [
        {
          "internalType": "address",
          "name": "newOwner",
          "type": "address"
        }
      ],
      "name": "transferOwnership",
      "outputs": [],
      "stateMutability": "nonpayable",
      "type": "function"
    },
    {
      "inputs": [],
      "name": "uniswapV2Pair",
      "outputs": [
        {
          "internalType": "address",
          "name": "",
          "type": "address"
        }
      ],
      "stateMutability": "view",
      "type": "function",
      "constant": true
    },
    {
      "inputs": [],
      "name": "uniswapV2Router",
      "outputs": [
        {
          "internalType": "contract IUniswapV2Router02",
          "name": "",
          "type": "address"
        }
      ],
      "stateMutability": "view",
      "type": "function",
      "constant": true
    },
    {
      "stateMutability": "payable",
      "type": "receive",
      "payable": true
    },
    {
      "inputs": [],
      "name": "name",
      "outputs": [
        {
          "internalType": "string",
          "name": "",
          "type": "string"
        }
      ],
      "stateMutability": "view",
      "type": "function",
      "constant": true
    },
    {
      "inputs": [],
      "name": "symbol",
      "outputs": [
        {
          "internalType": "string",
          "name": "",
          "type": "string"
        }
      ],
      "stateMutability": "view",
      "type": "function",
      "constant": true
    },
    {
      "inputs": [],
      "name": "decimals",
      "outputs": [
        {
          "internalType": "uint8",
          "name": "",
          "type": "uint8"
        }
      ],
      "stateMutability": "view",
      "type": "function",
      "constant": true
    },
    {
      "inputs": [],
      "name": "totalSupply",
      "outputs": [
        {
          "internalType": "uint256",
          "name": "",
          "type": "uint256"
        }
      ],
      "stateMutability": "view",
      "type": "function",
      "constant": true
    },
    {
      "inputs": [
        {
          "internalType": "address",
          "name": "account",
          "type": "address"
        }
      ],
      "name": "balanceOf",
      "outputs": [
        {
          "internalType": "uint256",
          "name": "",
          "type": "uint256"
        }
      ],
      "stateMutability": "view",
      "type": "function",
      "constant": true
    },
    {
      "inputs": [
        {
          "internalType": "address",
          "name": "recipient",
          "type": "address"
        },
        {
          "internalType": "uint256",
          "name": "amount",
          "type": "uint256"
        }
      ],
      "name": "transfer",
      "outputs": [
        {
          "internalType": "bool",
          "name": "",
          "type": "bool"
        }
      ],
      "stateMutability": "nonpayable",
      "type": "function"
    },
    {
      "inputs": [
        {
          "internalType": "address",
          "name": "owner",
          "type": "address"
        },
        {
          "internalType": "address",
          "name": "spender",
          "type": "address"
        }
      ],
      "name": "allowance",
      "outputs": [
        {
          "internalType": "uint256",
          "name": "",
          "type": "uint256"
        }
      ],
      "stateMutability": "view",
      "type": "function",
      "constant": true
    },
    {
      "inputs": [
        {
          "internalType": "address",
          "name": "spender",
          "type": "address"
        },
        {
          "internalType": "uint256",
          "name": "amount",
          "type": "uint256"
        }
      ],
      "name": "approve",
      "outputs": [
        {
          "internalType": "bool",
          "name": "",
          "type": "bool"
        }
      ],
      "stateMutability": "nonpayable",
      "type": "function"
    },
    {
      "inputs": [
        {
          "internalType": "address",
          "name": "sender",
          "type": "address"
        },
        {
          "internalType": "address",
          "name": "recipient",
          "type": "address"
        },
        {
          "internalType": "uint256",
          "name": "amount",
          "type": "uint256"
        }
      ],
      "name": "transferFrom",
      "outputs": [
        {
          "internalType": "bool",
          "name": "",
          "type": "bool"
        }
      ],
      "stateMutability": "nonpayable",
      "type": "function"
    },
    {
      "inputs": [
        {
          "internalType": "address",
          "name": "spender",
          "type": "address"
        },
        {
          "internalType": "uint256",
          "name": "addedValue",
          "type": "uint256"
        }
      ],
      "name": "increaseAllowance",
      "outputs": [
        {
          "internalType": "bool",
          "name": "",
          "type": "bool"
        }
      ],
      "stateMutability": "nonpayable",
      "type": "function"
    },
    {
      "inputs": [
        {
          "internalType": "address",
          "name": "spender",
          "type": "address"
        },
        {
          "internalType": "uint256",
          "name": "subtractedValue",
          "type": "uint256"
        }
      ],
      "name": "decreaseAllowance",
      "outputs": [
        {
          "internalType": "bool",
          "name": "",
          "type": "bool"
        }
      ],
      "stateMutability": "nonpayable",
      "type": "function"
    },
    {
      "inputs": [
        {
          "internalType": "address",
          "name": "account",
          "type": "address"
        }
      ],
      "name": "isExcludedFromReward",
      "outputs": [
        {
          "internalType": "bool",
          "name": "",
          "type": "bool"
        }
      ],
      "stateMutability": "view",
      "type": "function",
      "constant": true
    },
    {
      "inputs": [
        {
          "internalType": "address",
          "name": "account",
          "type": "address"
        }
      ],
      "name": "isExcludedFromMaxTx",
      "outputs": [
        {
          "internalType": "bool",
          "name": "",
          "type": "bool"
        }
      ],
      "stateMutability": "view",
      "type": "function",
      "constant": true
    },
    {
      "inputs": [],
      "name": "totalFees",
      "outputs": [
        {
          "internalType": "uint256",
          "name": "",
          "type": "uint256"
        }
      ],
      "stateMutability": "view",
      "type": "function",
      "constant": true
    },
    {
      "inputs": [
        {
          "internalType": "uint256",
          "name": "rAmount",
          "type": "uint256"
        }
      ],
      "name": "tokenFromReflection",
      "outputs": [
        {
          "internalType": "uint256",
          "name": "",
          "type": "uint256"
        }
      ],
      "stateMutability": "view",
      "type": "function",
      "constant": true
    },
    {
      "inputs": [
        {
          "internalType": "address",
          "name": "account",
          "type": "address"
        }
      ],
      "name": "excludeFromReward",
      "outputs": [],
      "stateMutability": "nonpayable",
      "type": "function"
    },
    {
      "inputs": [
        {
          "internalType": "address",
          "name": "account",
          "type": "address"
        }
      ],
      "name": "includeInReward",
      "outputs": [],
      "stateMutability": "nonpayable",
      "type": "function"
    },
    {
      "inputs": [
        {
          "internalType": "uint256",
          "name": "fee",
          "type": "uint256"
        }
      ],
      "name": "setTaxFeePercent",
      "outputs": [],
      "stateMutability": "nonpayable",
      "type": "function"
    },
    {
      "inputs": [
        {
          "internalType": "bool",
          "name": "enableTax",
          "type": "bool"
        }
      ],
      "name": "setEnableFee",
      "outputs": [],
      "stateMutability": "nonpayable",
      "type": "function"
    },
    {
      "inputs": [
        {
          "internalType": "bool",
          "name": "_enabled",
          "type": "bool"
        }
      ],
      "name": "setSwapAndLiquifyEnabled",
      "outputs": [],
      "stateMutability": "nonpayable",
      "type": "function"
    },
    {
      "inputs": [
        {
          "internalType": "address",
          "name": "account",
          "type": "address"
        }
      ],
      "name": "isIncludedInFee",
      "outputs": [
        {
          "internalType": "bool",
          "name": "",
          "type": "bool"
        }
      ],
      "stateMutability": "view",
      "type": "function",
      "constant": true
    }
  ],
  "bytecode": "0x60a0604052600a8054600160a060020a031916737a250d5630b4cf539739df2c5dacb4c659f2488d1790556b01401e70099fcb3a63000000600b8190556200004a9060001962000479565b62000058906000196200043c565b600c556003600e819055600f556001601081905560118190556012819055601381905560148190556015556016805460b060020a60ff0219167601000000000000000000000000000000000000000000001790556969e10de76676d0800000601755348015620000c757600080fd5b50620000ee620000df64010000000062000395810204565b64010000000062000399810204565b6000805460a060020a60ff0219168155600c54906001906200011864010000000062000395810204565b600160a060020a039081168252602080830193909352604091820160002093909355600a5481517fc45a01550000000000000000000000000000000000000000000000000000000081529151931692839263c45a01559260048082019391829003018186803b1580156200018b57600080fd5b505afa158015620001a0573d6000803e3d6000fd5b505050506040513d601f19601f82011682018060405250810190620001c69190620003e9565b600160a060020a031663c9c653963083600160a060020a031663ad5c46486040518163ffffffff167c010000000000000000000000000000000000000000000000000000000002815260040160206040518083038186803b1580156200022b57600080fd5b505afa15801562000240573d6000803e3d6000fd5b505050506040513d601f19601f82011682018060405250810190620002669190620003e9565b6040518363ffffffff167c0100000000000000000000000000000000000000000000000000000000028152600401620002a192919062000419565b602060405180830381600087803b158015620002bc57600080fd5b505af1158015620002d1573d6000803e3d6000fd5b505050506040513d601f19601f82011682018060405250810190620002f79190620003e9565b6016805461010060a860020a031916610100600160a060020a039384160217905581166c01000000000000000000000000026080526200033f64010000000062000395810204565b600160a060020a03166000600160a060020a03167fddf252ad1be2c89b69c2b068fc378daa952ba7f163c4a11628f55a4df523b3ef600b5460405162000386919062000433565b60405180910390a350620004b3565b3390565b60008054600160a060020a03838116600160a060020a0319831681178455604051919092169283917f8be0079c531659141344cd1fd0a4f28419497f9722a3daafe3b4186f6b6457e09190a35050565b600060208284031215620003fb578081fd5b8151600160a060020a038116811462000412578182fd5b9392505050565b600160a060020a0392831681529116602082015260400190565b90815260200190565b60008282101562000474577f4e487b710000000000000000000000000000000000000000000000000000000081526011600452602481fd5b500390565b600082620004ae577f4e487b710000000000000000000000000000000000000000000000000000000081526012600452602481fd5b500690565b6080516c010000000000000000000000009004612214620004df60003960006106be01526122146000f3fe60806040526004361061020f576000357c010000000000000000000000000000000000000000000000000000000090048063658c27a91161012a578063a457c2d7116100bd578063cc56f9861161008c578063cc56f98614610542578063d8e0027114610557578063dd62ed3e14610577578063f2fde38b14610597578063fbac4837146105b757610216565b8063a457c2d7146104cd578063a9059cbb146104ed578063bf8d31f01461050d578063c49b9a801461052257610216565b806388f82020116100f957806388f820201461046e5780638da5cb5b1461048e57806395d89b41146104a357806398118cb4146104b857610216565b8063658c27a91461040457806370a0823114610424578063715018a61461044457806383ad79941461045957610216565b806330d2091d116101a257806349bd5a5e1161017157806349bd5a5e146103a55780634a74bb02146103ba57806352390c02146103cf5780635c975abb146103ef57610216565b806330d2091d1461032e578063313ce567146103435780633685d41914610365578063395093511461038557610216565b80631694505e116101de5780631694505e146102b757806318160ddd146102d957806323b872dd146102ee5780632d8381191461030e57610216565b8063061c82d01461021b57806306fdde031461023d578063095ea7b31461026857806313114a9d1461029557610216565b3661021657005b600080fd5b34801561022757600080fd5b5061023b610236366004611c53565b6105d7565b005b34801561024957600080fd5b50610252610662565b60405161025f9190611c8a565b60405180910390f35b34801561027457600080fd5b50610288610283366004611c0a565b610699565b60405161025f9190611c7f565b3480156102a157600080fd5b506102aa6106b6565b60405161025f9190612122565b3480156102c357600080fd5b506102cc6106bc565b60405161025f9190611c6b565b3480156102e557600080fd5b506102aa6106e0565b3480156102fa57600080fd5b50610288610309366004611bcf565b6106e6565b34801561031a57600080fd5b506102aa610329366004611c53565b610780565b34801561033a57600080fd5b506102886107c6565b34801561034f57600080fd5b506103586107cf565b60405161025f919061212b565b34801561037157600080fd5b5061023b610380366004611b83565b6107d4565b34801561039157600080fd5b506102886103a0366004611c0a565b6109d5565b3480156103b157600080fd5b506102cc610a24565b3480156103c657600080fd5b50610288610a38565b3480156103db57600080fd5b5061023b6103ea366004611b83565b610a5b565b3480156103fb57600080fd5b50610288610ba6565b34801561041057600080fd5b5061028861041f366004611b83565b610bc7565b34801561043057600080fd5b506102aa61043f366004611b83565b610be5565b34801561045057600080fd5b5061023b610c4d565b34801561046557600080fd5b506102aa610c9b565b34801561047a57600080fd5b50610288610489366004611b83565b610ca1565b34801561049a57600080fd5b506102cc610cbf565b3480156104af57600080fd5b50610252610cce565b3480156104c457600080fd5b506102aa610d05565b3480156104d957600080fd5b506102886104e8366004611c0a565b610d0b565b3480156104f957600080fd5b50610288610508366004611c0a565b610d87565b34801561051957600080fd5b506102aa610d9b565b34801561052e57600080fd5b5061023b61053d366004611c33565b610da1565b34801561054e57600080fd5b506102aa610e50565b34801561056357600080fd5b5061023b610572366004611c33565b610e56565b34801561058357600080fd5b506102aa610592366004611b9d565b610ed6565b3480156105a357600080fd5b5061023b6105b2366004611b83565b610f01565b3480156105c357600080fd5b506102886105d2366004611b83565b610f78565b6105df610f96565b600160a060020a03166105f0610cbf565b600160a060020a0316146106225760405160e560020a62461bcd02815260040161061990611f79565b60405180910390fd5b600e8190556040517f19da908cae03512cf29c19a5842b2904a06fd24ef9982759c78f9379831ed70f90610657908390612122565b60405180910390a150565b60408051808201909152600f81527f4578706c6f726174696f6e4e6578740000000000000000000000000000000000602082015290565b60006106ad6106a6610f96565b8484610f9a565b50600192915050565b600d5490565b7f000000000000000000000000000000000000000000000000000000000000000081565b600b5490565b60006106f3848484611054565b600160a060020a038416600090815260036020526040812081610714610f96565b600160a060020a0316600160a060020a031681526020019081526020016000205490508281101561075a5760405160e560020a62461bcd02815260040161061990611f1c565b61077585610766610f96565b6107708685612193565b610f9a565b506001949350505050565b6000600c548211156107a75760405160e560020a62461bcd02815260040161061990611d3a565b60006107b1611127565b90506107bd838261114a565b9150505b919050565b60165460ff1681565b601290565b6107dc610f96565b600160a060020a03166107ed610cbf565b600160a060020a0316146108165760405160e560020a62461bcd02815260040161061990611f79565b600160a060020a03811660009081526005602052604090205460ff166108515760405160e560020a62461bcd02815260040161061990611eae565b60005b6009548110156109d15781600160a060020a03166009828154811061088c5760e060020a634e487b7102600052603260045260246000fd5b600091825260209091200154600160a060020a031614156109bf57600980546108b790600190612193565b815481106108d85760e060020a634e487b7102600052603260045260246000fd5b60009182526020909120015460098054600160a060020a0390921691839081106109155760e060020a634e487b7102600052603260045260246000fd5b6000918252602080832091909101805473ffffffffffffffffffffffffffffffffffffffff1916600160a060020a039485161790559184168152600282526040808220829055600590925220805460ff19169055600980548061098b5760e060020a634e487b7102600052603160045260246000fd5b6000828152602090208101600019908101805473ffffffffffffffffffffffffffffffffffffffff191690550190556109d1565b806109c9816121aa565b915050610854565b5050565b60006106ad6109e2610f96565b8484600360006109f0610f96565b600160a060020a03908116825260208083019390935260409182016000908120918b16815292529020546107709190612139565b6016546101009004600160a060020a031681565b601654760100000000000000000000000000000000000000000000900460ff1681565b610a63610f96565b600160a060020a0316610a74610cbf565b600160a060020a031614610a9d5760405160e560020a62461bcd02815260040161061990611f79565b600160a060020a03811660009081526005602052604090205460ff1615610ad95760405160e560020a62461bcd02815260040161061990611ee5565b600160a060020a03811660009081526001602052604090205415610b3357600160a060020a038116600090815260016020526040902054610b1990610780565b600160a060020a0382166000908152600260205260409020555b600160a060020a03166000818152600560205260408120805460ff191660019081179091556009805491820181559091527f6e1540171b6c0c960b71a7020d9f60077f6af931a8bbf590da0223dacf75c7af01805473ffffffffffffffffffffffffffffffffffffffff19169091179055565b60005474010000000000000000000000000000000000000000900460ff1690565b600160a060020a031660009081526006602052604090205460ff1690565b600160a060020a03811660009081526005602052604081205460ff1615610c255750600160a060020a0381166000908152600260205260409020546107c1565b600160a060020a038216600090815260016020526040902054610c4790610780565b92915050565b610c55610f96565b600160a060020a0316610c66610cbf565b600160a060020a031614610c8f5760405160e560020a62461bcd02815260040161061990611f79565b610c99600061115d565b565b600e5481565b600160a060020a031660009081526005602052604090205460ff1690565b600054600160a060020a031690565b60408051808201909152600581527f454e455854000000000000000000000000000000000000000000000000000000602082015290565b60105481565b60008060036000610d1a610f96565b600160a060020a0390811682526020808301939093526040918201600090812091881681529252902054905082811015610d695760405160e560020a62461bcd028152600401610619906120c5565b610d7d610d74610f96565b85858403610f9a565b5060019392505050565b60006106ad610d94610f96565b8484611054565b60145481565b610da9610f96565b600160a060020a0316610dba610cbf565b600160a060020a031614610de35760405160e560020a62461bcd02815260040161061990611f79565b6016805476ff000000000000000000000000000000000000000000001916760100000000000000000000000000000000000000000000831515021790556040517f53726dfcaf90650aa7eb35524f4d3220f07413c8d6cb404cc8c18bf5591bc15990610657908390611c7f565b60125481565b610e5e610f96565b600160a060020a0316610e6f610cbf565b600160a060020a031614610e985760405160e560020a62461bcd02815260040161061990611f79565b6016805460ff19168215151790556040517fd93972947b6f619cc048053ab8874f9f4fc05ac3e2e41a2c689a1e520066750f90610657908390611c7f565b600160a060020a03918216600090815260036020908152604080832093909416825291909152205490565b610f09610f96565b600160a060020a0316610f1a610cbf565b600160a060020a031614610f435760405160e560020a62461bcd02815260040161061990611f79565b600160a060020a038116610f6c5760405160e560020a62461bcd02815260040161061990611d97565b610f758161115d565b50565b600160a060020a031660009081526007602052604090205460ff1690565b3390565b600160a060020a038316610fc35760405160e560020a62461bcd02815260040161061990612068565b600160a060020a038216610fec5760405160e560020a62461bcd02815260040161061990611df4565b600160a060020a0380841660008181526003602090815260408083209487168084529490915290819020849055517f8c5be1e5ebec7d5bd14f71427d1e84f3dd0314c0f7b2291e5b200ac8c7c3b92590611047908590612122565b60405180910390a3505050565b600160a060020a03831661107d5760405160e560020a62461bcd0281526004016106199061200b565b600160a060020a0382166110a65760405160e560020a62461bcd02815260040161061990611cdd565b600081116110c95760405160e560020a62461bcd02815260040161061990611fae565b6110d383836109d1565b60006110de84610be5565b9050818110156111035760405160e560020a62461bcd02815260040161061990611e51565b60165460019060ff16611114575060005b611120858585846111ba565b5050505050565b60008060006111346112dc565b9092509050611143828261114a565b9250505090565b60006111568284612151565b9392505050565b60008054600160a060020a0383811673ffffffffffffffffffffffffffffffffffffffff19831681178455604051919092169283917f8be0079c531659141344cd1fd0a4f28419497f9722a3daafe3b4186f6b6457e09190a35050565b806111c7576111c76114a5565b600160a060020a03841660009081526005602052604090205460ff1680156112085750600160a060020a03831660009081526005602052604090205460ff16155b1561121d576112188484846114ec565b6112c9565b600160a060020a03841660009081526005602052604090205460ff1615801561125e5750600160a060020a03831660009081526005602052604090205460ff165b1561126e57611218848484611647565b600160a060020a03841660009081526005602052604090205460ff1680156112ae5750600160a060020a03831660009081526005602052604090205460ff165b156112be57611218848484611719565b6112c98484846117b5565b806112d6576112d6611822565b50505050565b600c54600b546000918291825b6009548110156114735782600160006009848154811061131c5760e060020a634e487b7102600052603260045260246000fd5b6000918252602080832090910154600160a060020a03168352820192909252604001902054118061139857508160026000600984815481106113715760e060020a634e487b7102600052603260045260246000fd5b6000918252602080832090910154600160a060020a03168352820192909252604001902054115b156113af57600c54600b54945094505050506114a1565b61140660016000600984815481106113da5760e060020a634e487b7102600052603260045260246000fd5b6000918252602080832090910154600160a060020a031683528201929092526040019020548490611836565b925061145f60026000600984815481106114335760e060020a634e487b7102600052603260045260246000fd5b6000918252602080832090910154600160a060020a031683528201929092526040019020548390611836565b91508061146b816121aa565b9150506112e9565b50600b54600c546114839161114a565b82101561149b57600c54600b549350935050506114a1565b90925090505b9091565b600e541580156114b55750601054155b80156114c15750601454155b156114cb57610c99565b600e8054600f55600090819055601080546011558190556014805460155555565b6000806000806114fb85611842565b935093509350935060008060008060006115178a898989611897565b945094509450945094506115598a600260008f600160a060020a0316600160a060020a031681526020019081526020016000205461183690919063ffffffff16565b600160a060020a038d166000908152600260209081526040808320939093556001905220546115889086611836565b600160a060020a03808e1660009081526001602052604080822093909355908d16815220546115b79085611910565b600160a060020a038c166000908152600160205260409020556115da838961191c565b6115e48288611978565b6115ee8187611a3f565b8a600160a060020a03168c600160a060020a03167fddf252ad1be2c89b69c2b068fc378daa952ba7f163c4a11628f55a4df523b3ef8b6040516116319190612122565b60405180910390a3505050505050505050505050565b60008060008061165685611842565b935093509350935060008060008060006116728a898989611897565b945094509450945094506116b485600160008f600160a060020a0316600160a060020a031681526020019081526020016000205461183690919063ffffffff16565b600160a060020a03808e16600090815260016020908152604080832094909455918e168152600290915220546116ea908a611910565b600160a060020a038c166000908152600260209081526040808320939093556001905220546115b79085611910565b60008060008061172885611842565b935093509350935060008060008060006117448a898989611897565b945094509450945094506117868a600260008f600160a060020a0316600160a060020a031681526020019081526020016000205461183690919063ffffffff16565b600160a060020a038d166000908152600260209081526040808320939093556001905220546116b49086611836565b6000806000806117c485611842565b935093509350935060008060008060006117e08a898989611897565b9450945094509450945061158885600160008f600160a060020a0316600160a060020a031681526020019081526020016000205461183690919063ffffffff16565b600f54600e55601154601055601554601455565b60006111568284612193565b6000808080848161185282611b06565b9050600061185f83611b28565b9050600061186c84611b44565b905060006118868261188085818989611836565b90611836565b9a9399509197509550909350505050565b6000806000806000806118a8611127565b90508960006118b78284611b60565b905060006118c58c85611b60565b905060006118d38c86611b60565b905060006118e18c87611b60565b905060006118f58261188085818989611836565b949b5093995091975095509350505050945094509450945094565b60006111568284612139565b600c546119299083611836565b600c55600d546119399082611910565b600d556040517f051f2d717bdbcf1bee0818957fce58531ed8049929fd991272c5cfd3610240c29061196c908390612122565b60405180910390a15050565b3060009081526005602052604090205460ff16156119bf57306000908152600160205260409020546119aa9083611910565b30600090815260016020526040902055611a10565b306000908152600160205260409020546119d99083611910565b306000908152600160209081526040808320939093556002905220546119ff9082611910565b306000908152600260205260409020555b7fe8d702ed806b975c93dca0eab5f12ec2d4ab7f5bec9a46f9cb5aa2495b851f198160405161196c9190612122565b3060009081526005602052604090205460ff1615611a865730600090815260016020526040902054611a719083611910565b30600090815260016020526040902055611ad7565b30600090815260016020526040902054611aa09083611910565b30600090815260016020908152604080832093909355600290522054611ac69082611910565b306000908152600260205260409020555b7f2954e977fdb29b3b7e01fdc5bf39f25dffc88f02111931cec44f7c103218e9248160405161196c9190612122565b6000610c476064611b22600e5485611b6090919063ffffffff16565b9061114a565b6000610c476064611b2260105485611b6090919063ffffffff16565b6000610c476064611b2260145485611b6090919063ffffffff16565b60006111568284612174565b8035600160a060020a03811681146107c157600080fd5b600060208284031215611b94578081fd5b61115682611b6c565b60008060408385031215611baf578081fd5b611bb883611b6c565b9150611bc660208401611b6c565b90509250929050565b600080600060608486031215611be3578081fd5b611bec84611b6c565b9250611bfa60208501611b6c565b9150604084013590509250925092565b60008060408385031215611c1c578182fd5b611c2583611b6c565b946020939093013593505050565b600060208284031215611c44578081fd5b81358015158114611156578182fd5b600060208284031215611c64578081fd5b5035919050565b600160a060020a0391909116815260200190565b901515815260200190565b6000602080835283518082850152825b81811015611cb657858101830151858201604001528201611c9a565b81811115611cc75783604083870101525b50601f01601f1916929092016040019392505050565b60208082526023908201527f45524332303a207472616e7366657220746f20746865207a65726f206164647260408201527f6573730000000000000000000000000000000000000000000000000000000000606082015260800190565b6020808252602a908201527f416d6f756e74206d757374206265206c657373207468616e20746f74616c207260408201527f65666c656374696f6e7300000000000000000000000000000000000000000000606082015260800190565b60208082526026908201527f4f776e61626c653a206e6577206f776e657220697320746865207a65726f206160408201527f6464726573730000000000000000000000000000000000000000000000000000606082015260800190565b60208082526022908201527f45524332303a20617070726f766520746f20746865207a65726f20616464726560408201527f7373000000000000000000000000000000000000000000000000000000000000606082015260800190565b60208082526026908201527f45524332303a207472616e7366657220616d6f756e742065786365656473206260408201527f616c616e63650000000000000000000000000000000000000000000000000000606082015260800190565b60208082526017908201527f4163636f756e74206973206e6f74206578636c75646564000000000000000000604082015260600190565b6020808252601b908201527f4163636f756e7420697320616c726561647920696e636c756465640000000000604082015260600190565b60208082526028908201527f45524332303a207472616e7366657220616d6f756e742065786365656473206160408201527f6c6c6f77616e6365000000000000000000000000000000000000000000000000606082015260800190565b6020808252818101527f4f776e61626c653a2063616c6c6572206973206e6f7420746865206f776e6572604082015260600190565b60208082526029908201527f5472616e7366657220616d6f756e74206d75737420626520677265617465722060408201527f7468616e207a65726f0000000000000000000000000000000000000000000000606082015260800190565b60208082526025908201527f45524332303a207472616e736665722066726f6d20746865207a65726f20616460408201527f6472657373000000000000000000000000000000000000000000000000000000606082015260800190565b60208082526024908201527f45524332303a20617070726f76652066726f6d20746865207a65726f2061646460408201527f7265737300000000000000000000000000000000000000000000000000000000606082015260800190565b60208082526025908201527f45524332303a2064656372656173656420616c6c6f77616e63652062656c6f7760408201527f207a65726f000000000000000000000000000000000000000000000000000000606082015260800190565b90815260200190565b60ff91909116815260200190565b6000821982111561214c5761214c6121c5565b500190565b60008261216f5760e060020a634e487b710281526012600452602481fd5b500490565b600081600019048311821515161561218e5761218e6121c5565b500290565b6000828210156121a5576121a56121c5565b500390565b60006000198214156121be576121be6121c5565b5060010190565b60e060020a634e487b7102600052601160045260246000fdfea2646970667358221220d96d4f606fc831e82d254711845c48c7d7286e5d932690fedaf67f8637eaa30b64736f6c63430008000033",
  "immutableReferences": {
    "1060": [
      {
        "length": 32,
        "start": 1726
      }
    ]
  },
  "source": "// SPDX-License-Identifier: MIT\r\npragma solidity ^0.8.0;\r\n\r\nimport \"@openzeppelin/contracts/token/ERC20/extensions/IERC20Metadata.sol\";\r\nimport \"@openzeppelin/contracts/token/ERC20/IERC20.sol\";\r\nimport \"@openzeppelin/contracts/utils/Context.sol\";\r\nimport \"@openzeppelin/contracts/access/Ownable.sol\";\r\nimport \"@openzeppelin/contracts/utils/Address.sol\";\r\nimport \"@openzeppelin/contracts/utils/math/SafeMath.sol\";\r\nimport \"@openzeppelin/contracts/security/Pausable.sol\";\r\n\r\nimport \"./interface/IUniswapV2Router.sol\";\r\nimport \"./interface/IUniswapV2Factory.sol\";\r\nimport \"./interface/IUniswapV2Pair.sol\";\r\n\r\ncontract ExplorationNext is Context, IERC20, IERC20Metadata, Ownable, Pausable {\r\n    using SafeMath for uint256;\r\n    using Address for address;\r\n\r\n    mapping (address => uint256) private _rOwned;\r\n    mapping (address => uint256) private _tOwned;\r\n    mapping (address => mapping (address => uint256)) private _allowances;\r\n    mapping (address => bool) private pausedAddress;\r\n    mapping (address => bool) private _isExcluded;\r\n    mapping (address => bool) private _isExcludedFromMaxTx;\r\n    mapping (address => bool) private _isIncludedInFee;\r\n    mapping (address => bool) private _previousTokenBalanceTransfered;\r\n    address[] private _excluded;\r\n\r\n    address UNISWAPV2ROUTER = 0x7a250d5630B4cF539739dF2C5dAcb4c659F2488D;\r\n   \r\n    uint256 private constant MAX = ~uint256(0);\r\n    uint256 private _tTotal = 387000000  * 10**18;\r\n    uint256 private _rTotal = (MAX - (MAX % _tTotal));\r\n    uint256 private _tFeeTotal;\r\n\r\n    string private constant _name = \"ExplorationNext\";\r\n    string private constant _symbol = \"ENEXT\";\r\n    uint8 private constant _decimals = 18;\r\n\r\n\r\n    uint256 public reflectionFee = 3;\r\n    uint256 private previousReflectionFee = reflectionFee;\r\n\r\n    uint256 public liquidityFee = 1;\r\n    uint256 private previousLiquidityFee = liquidityFee;\r\n\r\n    uint256 public _transactionBurn = 1;\r\n    uint256 private _previousTransactionBurn = _transactionBurn;\r\n\r\n    uint256 public marketingWalletFee = 1;\r\n    uint256 private previousMarketingWalletFee = marketingWalletFee;\r\n\r\n    bool public enableFee;\r\n \r\n    IUniswapV2Router02 public immutable uniswapV2Router;\r\n    address public uniswapV2Pair;\r\n\r\n    bool inSwapAndLiquify;\r\n    bool public swapAndLiquifyEnabled = true;\r\n\r\n    uint256 private numTokensSellToAddToLiquidity = 500000 * 10**18;    \r\n\r\n    event FeeEnable(bool enableFee);\r\n    event SetMaxTxPercent(uint256 maxPercent);\r\n    event SetTaxFeePercent(uint256 taxFeePercent);\r\n    event ExternalTokenTransfered(address externalAddress,address toAddress, uint amount);\r\n    event RedistributionFee(uint256 amount);\r\n    event liqFee(uint256 amount);\r\n    event marketWalletFee(uint256 amount);\r\n    event SwapAndLiquifyEnabledUpdated(bool enabled);\r\n    event SwapAndLiquify(uint256 tokensSwapped,uint256 ethReceived,uint256 tokensIntoLiqudity);\r\n\r\n    modifier lockTheSwap {\r\n        inSwapAndLiquify = true;\r\n        _;\r\n        inSwapAndLiquify = false;\r\n    }\r\n\r\n    constructor () {\r\n        \r\n        _rOwned[_msgSender()] = _rTotal;\r\n\r\n        IUniswapV2Router02 _uniswapV2Router = IUniswapV2Router02(UNISWAPV2ROUTER);\r\n        // Create a uniswap pair for this new token\r\n        uniswapV2Pair = IUniswapV2Factory(_uniswapV2Router.factory())\r\n            .createPair(address(this), _uniswapV2Router.WETH());\r\n\r\n        // set the rest of the contract variables\r\n        uniswapV2Router = _uniswapV2Router;\r\n\r\n        emit Transfer(address(0), _msgSender(), _tTotal);\r\n \r\n    }\r\n\r\n    /** \r\n     * Returns the name of the token.\r\n     */\r\n    function name() external view virtual override returns (string memory) {\r\n        return _name;\r\n    }\r\n\r\n    /**\r\n     * Returns the symbol of the token.\r\n     */\r\n    function symbol() external view virtual override returns (string memory) {\r\n        return _symbol;\r\n    }\r\n\r\n    /**\r\n     * Returns the number of decimals \r\n     */\r\n    function decimals() external view virtual override returns (uint8) {\r\n        return _decimals;\r\n    }\r\n\r\n    /**\r\n     * @dev See {IERC20-totalSupply}.\r\n     */\r\n    function totalSupply() external view virtual override returns (uint256) {\r\n        return _tTotal;\r\n    }\r\n\r\n    /**\r\n     * @dev See {IERC20-balanceOf}.\r\n     */\r\n    function balanceOf(address account) public view virtual override returns (uint256) {\r\n        if (_isExcluded[account]) return _tOwned[account];\r\n        return tokenFromReflection(_rOwned[account]);\r\n    }\r\n\r\n    /**\r\n     * @dev See {IERC20-transfer}.\r\n     *\r\n     * Requirements:\r\n     *\r\n     * - `recipient` cannot be the zero address.\r\n     * - the caller must have a balance of at least `amount`.\r\n     */\r\n    function transfer(address recipient, uint256 amount) external virtual override returns (bool) {\r\n        _transfer(_msgSender(), recipient, amount);\r\n        return true;\r\n    }\r\n\r\n    /**\r\n     * @dev See {IERC20-allowance}.\r\n     */\r\n    function allowance(address owner, address spender) external view virtual override returns (uint256) {\r\n        return _allowances[owner][spender];\r\n    }\r\n\r\n    /**\r\n     * @dev See {IERC20-approve}.\r\n     *\r\n     * Requirements:\r\n     *\r\n     * - `spender` cannot be the zero address.\r\n     */\r\n    function approve(address spender, uint256 amount) external virtual override returns (bool) {\r\n        _approve(_msgSender(), spender, amount);\r\n        return true;\r\n    }\r\n\r\n    /**\r\n     * @dev See {IERC20-transferFrom}.\r\n     *\r\n     * Emits an {Approval} event indicating the updated allowance. This is not\r\n     * required by the EIP. See the note at the beginning of {ERC20}.\r\n     *\r\n     * Requirements:\r\n     *\r\n     * - `sender` and `recipient` cannot be the zero address.\r\n     * - `sender` must have a balance of at least `amount`.\r\n     * - the caller must have allowance for ``sender``'s tokens of at least\r\n     * `amount`.\r\n     */\r\n    function transferFrom(address sender, address recipient, uint256 amount) external virtual override returns (bool) {\r\n        _transfer(sender, recipient, amount);\r\n\r\n        uint256 currentAllowance = _allowances[sender][_msgSender()];\r\n        require(currentAllowance >= amount, \"ERC20: transfer amount exceeds allowance\");\r\n        _approve(sender, _msgSender(), currentAllowance - amount);\r\n\r\n        return true;\r\n    }\r\n\r\n    /**\r\n     * @dev Atomically increases the allowance granted to `spender` by the caller.\r\n     *\r\n     * This is an alternative to {approve} that can be used as a mitigation for\r\n     * problems described in {IERC20-approve}.\r\n     *\r\n     * Emits an {Approval} event indicating the updated allowance.\r\n     *\r\n     * Requirements:\r\n     *\r\n     * - `spender` cannot be the zero address.\r\n     */\r\n    function increaseAllowance(address spender, uint256 addedValue) external virtual returns (bool) {\r\n        _approve(_msgSender(), spender, _allowances[_msgSender()][spender] + addedValue);\r\n        return true;\r\n    }\r\n\r\n    /**\r\n     * @dev Atomically decreases the allowance granted to `spender` by the caller.\r\n     *\r\n     * This is an alternative to {approve} that can be used as a mitigation for\r\n     * problems described in {IERC20-approve}.\r\n     *\r\n     * Emits an {Approval} event indicating the updated allowance.\r\n     *\r\n     * Requirements:\r\n     *\r\n     * - `spender` cannot be the zero address.\r\n     * - `spender` must have allowance for the caller of at least\r\n     * `subtractedValue`.\r\n     */\r\n    function decreaseAllowance(address spender, uint256 subtractedValue) external virtual returns (bool) {\r\n        uint256 currentAllowance = _allowances[_msgSender()][spender];\r\n        require(currentAllowance >= subtractedValue, \"ERC20: decreased allowance below zero\");\r\n        unchecked {\r\n            _approve(_msgSender(), spender, currentAllowance - subtractedValue);\r\n        }\r\n\r\n        return true;\r\n    }\r\n\r\n    \r\n    function isExcludedFromReward(address account) external view returns (bool) {\r\n        return _isExcluded[account];\r\n    }\r\n\r\n    function isExcludedFromMaxTx(address account) external view returns (bool) {\r\n        return _isExcludedFromMaxTx[account];\r\n    }\r\n\r\n    function totalFees() external view returns (uint256) {\r\n        return _tFeeTotal;\r\n    }\r\n\r\n    function tokenFromReflection(uint256 rAmount) public view returns(uint256) {\r\n        require(rAmount <= _rTotal, \"Amount must be less than total reflections\");\r\n        uint256 currentRate =  getRate();\r\n        return rAmount.div(currentRate);\r\n    }\r\n\r\n    function excludeFromReward(address account) public onlyOwner {\r\n        require(!_isExcluded[account], \"Account is already included\");\r\n        if(_rOwned[account] > 0) {\r\n            _tOwned[account] = tokenFromReflection(_rOwned[account]);\r\n        }\r\n        _isExcluded[account] = true;\r\n        _excluded.push(account);\r\n    }\r\n\r\n    function includeInReward(address account) public onlyOwner {\r\n        require(_isExcluded[account], \"Account is not excluded\");\r\n        for (uint256 i = 0; i < _excluded.length; i++) {\r\n            if (_excluded[i] == account) {\r\n                _excluded[i] = _excluded[_excluded.length - 1];\r\n                _tOwned[account] = 0;\r\n                _isExcluded[account] = false;\r\n                _excluded.pop();\r\n                break;\r\n            }\r\n        }\r\n    }\r\n    \r\n    function setTaxFeePercent(uint256 fee) external onlyOwner {\r\n        reflectionFee = fee;\r\n        emit SetTaxFeePercent(reflectionFee);\r\n    }\r\n\r\n    function setEnableFee(bool enableTax) external onlyOwner {\r\n        enableFee = enableTax;\r\n        emit FeeEnable(enableTax);\r\n    }\r\n\r\n\r\n    function takeReflectionFee(uint256 rFee, uint256 tFee) internal {\r\n        _rTotal = _rTotal.sub(rFee);\r\n        _tFeeTotal = _tFeeTotal.add(tFee);\r\n        emit RedistributionFee(tFee);\r\n    }\r\n\r\n   function takeLiquidityFee(uint256 rliquidityFee, uint256 tliquidityFee)\r\n        internal\r\n    {\r\n        if (_isExcluded[address(this)]) {\r\n            _rOwned[address(this)] = _rOwned[address(this)].add(rliquidityFee);\r\n        } else {\r\n            _rOwned[address(this)] = _rOwned[address(this)].add(rliquidityFee);\r\n            _tOwned[address(this)] = _tOwned[address(this)].add(tliquidityFee);\r\n        }\r\n        emit liqFee(tliquidityFee);\r\n    }\r\n\r\n    function takeMarketingWalletFee(uint256 rMarketingWalletFee, uint256 tMarketingWalletFee) internal {\r\n       if (_isExcluded[address(this)]) {\r\n            _rOwned[address(this)] = _rOwned[address(this)].add(rMarketingWalletFee);\r\n        } else {\r\n            _rOwned[address(this)] = _rOwned[address(this)].add(rMarketingWalletFee);\r\n            _tOwned[address(this)] = _tOwned[address(this)].add(tMarketingWalletFee);\r\n        }\r\n        emit marketWalletFee(tMarketingWalletFee);\r\n    }\r\n\r\n    function setSwapAndLiquifyEnabled(bool _enabled) public onlyOwner {\r\n        swapAndLiquifyEnabled = _enabled;\r\n        emit SwapAndLiquifyEnabledUpdated(_enabled);\r\n    }\r\n     //to recieve ETH from uniswapV2Router when swaping\r\n    receive() external payable {}\r\n\r\n    function getTValues(uint256 amount) internal view returns (uint256, uint256, uint256,uint256) {\r\n        uint256 tAmount = amount;\r\n        uint256 tFee = calculateTaxFee(tAmount);\r\n        uint256 tLiquidityFee = calculateLiquidityFee(tAmount);\r\n        uint256 tMarketingWalletFee = calculateMarketingWalletFee(tAmount);\r\n        uint256 tTransferAmount = tAmount.sub(tFee).sub(tLiquidityFee).sub(tMarketingWalletFee);\r\n        return (tTransferAmount, tFee, tLiquidityFee,tMarketingWalletFee);\r\n    }\r\n\r\n    function getRValues(uint256 amount, uint256 tFee, uint256 tLiquidityFee, uint256 tMarketingWalletFee) internal view returns (uint256,uint256, uint256,uint256,uint256) {\r\n        uint256 currentRate = getRate();\r\n        uint256 tAmount = amount;\r\n        uint256 rAmount = tAmount.mul(currentRate);\r\n        uint256 rFee = tFee.mul(currentRate);\r\n        uint256 rLiquidityfee = tLiquidityFee.mul(currentRate);\r\n        uint256 rMarketingWalletFee = tMarketingWalletFee.mul(currentRate);\r\n        uint256 rTransferAmount = rAmount.sub(rFee).sub(rLiquidityfee).sub(rMarketingWalletFee);\r\n        return (rAmount, rTransferAmount, rFee, rLiquidityfee,rMarketingWalletFee);\r\n    }\r\n\r\n    function getRate() internal view returns(uint256) {\r\n        (uint256 rSupply, uint256 tSupply) = getCurrentSupply();\r\n        return rSupply.div(tSupply);\r\n    }\r\n\r\n    function getCurrentSupply() internal view returns(uint256, uint256) {\r\n        uint256 rSupply = _rTotal;\r\n        uint256 tSupply = _tTotal;      \r\n        for (uint256 i = 0; i < _excluded.length; i++) {\r\n            if (_rOwned[_excluded[i]] > rSupply || _tOwned[_excluded[i]] > tSupply) return (_rTotal, _tTotal);\r\n            rSupply = rSupply.sub(_rOwned[_excluded[i]]);\r\n            tSupply = tSupply.sub(_tOwned[_excluded[i]]);\r\n        }\r\n        if (rSupply < _rTotal.div(_tTotal)) return (_rTotal, _tTotal);\r\n        return (rSupply, tSupply);\r\n    }\r\n\r\n      function _takeLiquidity(uint256 tLiquidity) private {\r\n        uint256 currentRate =  getRate();\r\n        uint256 rLiquidity = tLiquidity.mul(currentRate);\r\n        _rOwned[address(this)] = _rOwned[address(this)].add(rLiquidity);\r\n        if(_isExcluded[address(this)])\r\n            _tOwned[address(this)] = _tOwned[address(this)].add(tLiquidity);\r\n    }\r\n    \r\n    function calculateTaxFee(uint256 _amount) internal view returns (uint256) {\r\n        return _amount.mul(reflectionFee).div(\r\n            10**2\r\n        );\r\n    }\r\n\r\n    function calculateLiquidityFee(uint256 _amount) private view returns (uint256) {\r\n        return _amount.mul(liquidityFee).div(\r\n            10**2\r\n        );\r\n    }\r\n    function calculateMarketingWalletFee(uint256 _amount) internal view returns (uint256) {\r\n        return _amount.mul(marketingWalletFee).div(\r\n            10**2\r\n        );\r\n    }\r\n    \r\n    function removeAllFee() internal {\r\n        if(reflectionFee == 0 && liquidityFee == 0 && marketingWalletFee == 0) return;\r\n        \r\n        previousReflectionFee = reflectionFee;\r\n        reflectionFee = 0;\r\n        \r\n        previousLiquidityFee = liquidityFee;\r\n        liquidityFee = 0;\r\n\r\n        previousMarketingWalletFee = marketingWalletFee;\r\n        marketingWalletFee = 0;\r\n    }\r\n \r\n    function restoreAllFee() internal {\r\n        reflectionFee = previousReflectionFee;\r\n        liquidityFee = previousLiquidityFee;\r\n        marketingWalletFee = previousMarketingWalletFee;\r\n    }\r\n\r\n     function isIncludedInFee(address account) external view returns(bool) {\r\n        return _isIncludedInFee[account];\r\n    }\r\n   \r\n    function _approve(address owner, address spender, uint256 amount) internal virtual {\r\n        require(owner != address(0), \"ERC20: approve from the zero address\");\r\n        require(spender != address(0), \"ERC20: approve to the zero address\");\r\n\r\n        _allowances[owner][spender] = amount;\r\n        emit Approval(owner, spender, amount);\r\n    }\r\n\r\n    \r\n    function _transfer(\r\n        address from,\r\n        address to,\r\n        uint256 amount\r\n    ) internal {\r\n        require(from != address(0), \"ERC20: transfer from the zero address\");\r\n        require(to != address(0), \"ERC20: transfer to the zero address\");\r\n        require(amount > 0, \"Transfer amount must be greater than zero\");\r\n        \r\n        _beforeTokenTransfer(from, to);\r\n        \r\n        uint256 senderBalance = balanceOf(from);\r\n        \r\n        require(senderBalance >= amount, \"ERC20: transfer amount exceeds balance\");\r\n\r\n        //indicates if fee should be deducted from transfer\r\n        bool takeFee = true;\r\n        \r\n        //if any account belongs to _isIncludedInFee account then take fee\r\n        //else remove fee\r\n        if(!enableFee){\r\n            takeFee = false;\r\n        }\r\n         \r\n        //transfer amount, it will take tax, burn and charity amount\r\n        _tokenTransfer(from,to,amount,takeFee);\r\n    }\r\n    \r\n    function swapAndLiquify(uint256 contractTokenBalance) private lockTheSwap {\r\n        // split the contract balance into halves\r\n        uint256 half = contractTokenBalance.div(2);\r\n        uint256 otherHalf = contractTokenBalance.sub(half);\r\n\r\n        // capture the contract's current ETH balance.\r\n        // this is so that we can capture exactly the amount of ETH that the\r\n        // swap creates, and not make the liquidity event include any ETH that\r\n        // has been manually sent to the contract\r\n        uint256 initialBalance = address(this).balance;\r\n        // swap tokens for ETH\r\n        swapTokensForEth(half); // <- this breaks the ETH -> HATE swap when swap+liquify is triggered\r\n\r\n        // how much ETH did we just swap into?\r\n        uint256 newBalance = address(this).balance.sub(initialBalance);\r\n\r\n        // add liquidity to uniswap\r\n        addLiquidity(otherHalf, newBalance);\r\n        \r\n        emit SwapAndLiquify(half, newBalance, otherHalf);\r\n    }\r\n\r\n    function swapTokensForEth(uint256 tokenAmount) private {\r\n        // generate the uniswap pair path of token -> weth\r\n        address[] memory path = new address[](2);\r\n        path[0] = address(this);\r\n        path[1] = uniswapV2Router.WETH();\r\n\r\n        _approve(address(this), address(uniswapV2Router), tokenAmount);\r\n\r\n        // make the swap\r\n        uniswapV2Router.swapExactTokensForETHSupportingFeeOnTransferTokens(\r\n            tokenAmount,\r\n            0, // accept any amount of ETH\r\n            path,\r\n            address(this),\r\n            block.timestamp\r\n        );\r\n    }\r\n\r\n    function addLiquidity(uint256 tokenAmount, uint256 ethAmount) private {\r\n        // approve token transfer to cover all possible scenarios\r\n        _approve(address(this), address(uniswapV2Router), tokenAmount);\r\n\r\n        // add the liquidity\r\n        uniswapV2Router.addLiquidityETH{value: ethAmount}(\r\n            address(this),\r\n            tokenAmount,\r\n            0, // slippage is unavoidable\r\n            0, // slippage is unavoidable\r\n            owner(),\r\n            block.timestamp\r\n        );\r\n    }\r\n\r\n    //this method is responsible for taking all fee, if takeFee is true\r\n    function _tokenTransfer(address sender, address recipient, uint256 amount,bool takeFee) internal {\r\n        if(!takeFee)\r\n            removeAllFee();\r\n        \r\n        if (_isExcluded[sender] && !_isExcluded[recipient]) {\r\n            _transferFromExcluded(sender, recipient, amount);\r\n        } else if (!_isExcluded[sender] && _isExcluded[recipient]) {\r\n            _transferToExcluded(sender, recipient, amount);\r\n        } else if (_isExcluded[sender] && _isExcluded[recipient]) {\r\n            _transferBothExcluded(sender, recipient, amount);\r\n        } else {\r\n            _transferStandard(sender, recipient, amount);\r\n        }\r\n        \r\n        if(!takeFee)\r\n            restoreAllFee();\r\n    }\r\n  \r\n    function _transferStandard(address sender, address recipient, uint256 tAmount) internal {\r\n        (uint256 tTransferAmount, uint256 tFee, uint256 tLiquidityFee, uint256 tMarketingWalletFee) = getTValues(tAmount);\r\n        (uint256 rAmount, uint256 rTransferAmount, uint256 rFee,uint256 rLiquidityFee,uint256 rMarketingWalletFee) = getRValues(tAmount, tFee, tLiquidityFee,tMarketingWalletFee);\r\n\r\n        _rOwned[sender] = _rOwned[sender].sub(rAmount);\r\n        _rOwned[recipient] = _rOwned[recipient].add(rTransferAmount);\r\n        takeReflectionFee(rFee, tFee);\r\n        takeLiquidityFee(rLiquidityFee, tLiquidityFee);\r\n        takeMarketingWalletFee(rMarketingWalletFee, tMarketingWalletFee);\r\n        emit Transfer(sender, recipient, tTransferAmount);\r\n\r\n    }\r\n    \r\n    function _transferBothExcluded(address sender, address recipient, uint256 tAmount) internal {\r\n        (uint256 tTransferAmount, uint256 tFee,uint256 tLiquidityFee, uint256 tMarketingWalletFee) = getTValues(tAmount);\r\n        (uint256 rAmount, uint256 rTransferAmount, uint256 rFee, uint256 rLiquidityFee, uint256 rMarketingWalletFee) = getRValues(tAmount, tFee,tLiquidityFee,tMarketingWalletFee);\r\n\r\n        _tOwned[sender] = _tOwned[sender].sub(tAmount);\r\n        _rOwned[sender] = _rOwned[sender].sub(rAmount);\r\n        _tOwned[recipient] = _tOwned[recipient].add(tTransferAmount);\r\n        _rOwned[recipient] = _rOwned[recipient].add(rTransferAmount);        \r\n        takeReflectionFee(rFee, tFee);\r\n        takeLiquidityFee(rLiquidityFee, tLiquidityFee);\r\n        takeMarketingWalletFee(rMarketingWalletFee, tMarketingWalletFee);\r\n        emit Transfer(sender, recipient, tTransferAmount);\r\n\r\n    }\r\n    \r\n    function _transferToExcluded(address sender, address recipient, uint256 tAmount) internal {\r\n        (uint256 tTransferAmount, uint256 tFee, uint256 tLiquidityFee, uint256 tMarketingWalletFee) = getTValues(tAmount);\r\n        (uint256 rAmount, uint256 rTransferAmount, uint256 rFee, uint256 rLiquidityFee, uint256 rMarketingWalletFee) = getRValues(tAmount, tFee,tLiquidityFee,tMarketingWalletFee);\r\n        _rOwned[sender] = _rOwned[sender].sub(rAmount);\r\n        _tOwned[recipient] = _tOwned[recipient].add(tTransferAmount);\r\n        _rOwned[recipient] = _rOwned[recipient].add(rTransferAmount);           \r\n        takeReflectionFee(rFee, tFee);\r\n        takeLiquidityFee(rLiquidityFee, tLiquidityFee);\r\n        takeMarketingWalletFee(rMarketingWalletFee, tMarketingWalletFee);\r\n        emit Transfer(sender, recipient, tTransferAmount);\r\n    }\r\n\r\n    function _transferFromExcluded(address sender, address recipient, uint256 tAmount) internal {\r\n        (uint256 tTransferAmount, uint256 tFee, uint256 tLiquidityFee, uint256 tMarketingWalletFee) = getTValues(tAmount);\r\n        (uint256 rAmount, uint256 rTransferAmount, uint256 rFee, uint256 rLiquidityFee, uint256 rMarketingWalletFee) = getRValues(tAmount, tFee,tLiquidityFee,tMarketingWalletFee);\r\n        _tOwned[sender] = _tOwned[sender].sub(tAmount);\r\n        _rOwned[sender] = _rOwned[sender].sub(rAmount);\r\n        _rOwned[recipient] = _rOwned[recipient].add(rTransferAmount);   \r\n        takeReflectionFee(rFee, tFee);\r\n        takeLiquidityFee(rLiquidityFee, tLiquidityFee);\r\n        takeMarketingWalletFee(rMarketingWalletFee, tMarketingWalletFee);\r\n        emit Transfer(sender, recipient, tTransferAmount);\r\n    }\r\n\r\n    function _beforeTokenTransfer(address from, address to) internal virtual { \r\n    }\r\n}",
  "sourcePath": "E:\\Geetha\\Blockchain\\ENEXT_contract\\contracts\\ExplorationNext.sol",
  "compiler": {
    "name": "solc",
    "version": "0.8.0+commit.c7dfd78e.Emscripten.clang"
  },
  "schemaVersion": "3.4.3",
  "updatedAt": "2021-11-22T09:16:54.832Z",
  "networkType": "ethereum",
  "devdoc": {
    "kind": "dev",
    "methods": {
      "allowance(address,address)": {
        "details": "See {IERC20-allowance}."
      },
      "approve(address,uint256)": {
        "details": "See {IERC20-approve}. Requirements: - `spender` cannot be the zero address."
      },
      "balanceOf(address)": {
        "details": "See {IERC20-balanceOf}."
      },
      "decreaseAllowance(address,uint256)": {
        "details": "Atomically decreases the allowance granted to `spender` by the caller. This is an alternative to {approve} that can be used as a mitigation for problems described in {IERC20-approve}. Emits an {Approval} event indicating the updated allowance. Requirements: - `spender` cannot be the zero address. - `spender` must have allowance for the caller of at least `subtractedValue`."
      },
      "increaseAllowance(address,uint256)": {
        "details": "Atomically increases the allowance granted to `spender` by the caller. This is an alternative to {approve} that can be used as a mitigation for problems described in {IERC20-approve}. Emits an {Approval} event indicating the updated allowance. Requirements: - `spender` cannot be the zero address."
      },
      "owner()": {
        "details": "Returns the address of the current owner."
      },
      "paused()": {
        "details": "Returns true if the contract is paused, and false otherwise."
      },
      "renounceOwnership()": {
        "details": "Leaves the contract without owner. It will not be possible to call `onlyOwner` functions anymore. Can only be called by the current owner. NOTE: Renouncing ownership will leave the contract without an owner, thereby removing any functionality that is only available to the owner."
      },
      "totalSupply()": {
        "details": "See {IERC20-totalSupply}."
      },
      "transfer(address,uint256)": {
        "details": "See {IERC20-transfer}. Requirements: - `recipient` cannot be the zero address. - the caller must have a balance of at least `amount`."
      },
      "transferFrom(address,address,uint256)": {
        "details": "See {IERC20-transferFrom}. Emits an {Approval} event indicating the updated allowance. This is not required by the EIP. See the note at the beginning of {ERC20}. Requirements: - `sender` and `recipient` cannot be the zero address. - `sender` must have a balance of at least `amount`. - the caller must have allowance for ``sender``'s tokens of at least `amount`."
      },
      "transferOwnership(address)": {
        "details": "Transfers ownership of the contract to a new account (`newOwner`). Can only be called by the current owner."
      }
    },
    "version": 1
  },
  "userdoc": {
    "kind": "user",
    "methods": {
      "decimals()": {
        "notice": "Returns the number of decimals "
      },
      "name()": {
        "notice": "Returns the name of the token."
      },
      "symbol()": {
        "notice": "Returns the symbol of the token."
      }
    },
    "version": 1
  }
}