{
  "contractName": "ExplorationNext",
  "abi": [
    {
      "inputs": [],
      "stateMutability": "nonpayable",
      "type": "constructor"
    },
    {
      "anonymous": false,
      "inputs": [
        {
          "indexed": true,
          "internalType": "address",
          "name": "owner",
          "type": "address"
        },
        {
          "indexed": true,
          "internalType": "address",
          "name": "spender",
          "type": "address"
        },
        {
          "indexed": false,
          "internalType": "uint256",
          "name": "value",
          "type": "uint256"
        }
      ],
      "name": "Approval",
      "type": "event"
    },
    {
      "anonymous": false,
      "inputs": [
        {
          "indexed": false,
          "internalType": "address",
          "name": "externalAddress",
          "type": "address"
        },
        {
          "indexed": false,
          "internalType": "address",
          "name": "toAddress",
          "type": "address"
        },
        {
          "indexed": false,
          "internalType": "uint256",
          "name": "amount",
          "type": "uint256"
        }
      ],
      "name": "ExternalTokenTransfered",
      "type": "event"
    },
    {
      "anonymous": false,
      "inputs": [
        {
          "indexed": false,
          "internalType": "bool",
          "name": "enableFee",
          "type": "bool"
        }
      ],
      "name": "FeeEnable",
      "type": "event"
    },
    {
      "anonymous": false,
      "inputs": [
        {
          "indexed": true,
          "internalType": "address",
          "name": "previousOwner",
          "type": "address"
        },
        {
          "indexed": true,
          "internalType": "address",
          "name": "newOwner",
          "type": "address"
        }
      ],
      "name": "OwnershipTransferred",
      "type": "event"
    },
    {
      "anonymous": false,
      "inputs": [
        {
          "indexed": false,
          "internalType": "uint256",
          "name": "amount",
          "type": "uint256"
        }
      ],
      "name": "RedistributionFee",
      "type": "event"
    },
    {
      "anonymous": false,
      "inputs": [
        {
          "indexed": false,
          "internalType": "uint256",
          "name": "maxPercent",
          "type": "uint256"
        }
      ],
      "name": "SetMaxTxPercent",
      "type": "event"
    },
    {
      "anonymous": false,
      "inputs": [
        {
          "indexed": false,
          "internalType": "uint256",
          "name": "taxFeePercent",
          "type": "uint256"
        }
      ],
      "name": "SetTaxFeePercent",
      "type": "event"
    },
    {
      "anonymous": false,
      "inputs": [
        {
          "indexed": false,
          "internalType": "uint256",
          "name": "tokensSwapped",
          "type": "uint256"
        },
        {
          "indexed": false,
          "internalType": "uint256",
          "name": "ethReceived",
          "type": "uint256"
        },
        {
          "indexed": false,
          "internalType": "uint256",
          "name": "tokensIntoLiqudity",
          "type": "uint256"
        }
      ],
      "name": "SwapAndLiquify",
      "type": "event"
    },
    {
      "anonymous": false,
      "inputs": [
        {
          "indexed": false,
          "internalType": "bool",
          "name": "enabled",
          "type": "bool"
        }
      ],
      "name": "SwapAndLiquifyEnabledUpdated",
      "type": "event"
    },
    {
      "anonymous": false,
      "inputs": [
        {
          "indexed": true,
          "internalType": "address",
          "name": "from",
          "type": "address"
        },
        {
          "indexed": true,
          "internalType": "address",
          "name": "to",
          "type": "address"
        },
        {
          "indexed": false,
          "internalType": "uint256",
          "name": "value",
          "type": "uint256"
        }
      ],
      "name": "Transfer",
      "type": "event"
    },
    {
      "anonymous": false,
      "inputs": [
        {
          "indexed": false,
          "internalType": "uint256",
          "name": "tLiquidity",
          "type": "uint256"
        }
      ],
      "name": "liqFee",
      "type": "event"
    },
    {
      "anonymous": false,
      "inputs": [
        {
          "indexed": false,
          "internalType": "uint256",
          "name": "amount",
          "type": "uint256"
        }
      ],
      "name": "marketWalletFee",
      "type": "event"
    },
    {
      "inputs": [],
      "name": "_maxTxAmount",
      "outputs": [
        {
          "internalType": "uint256",
          "name": "",
          "type": "uint256"
        }
      ],
      "stateMutability": "view",
      "type": "function",
      "constant": true
    },
    {
      "inputs": [],
      "name": "enableFee",
      "outputs": [
        {
          "internalType": "bool",
          "name": "",
          "type": "bool"
        }
      ],
      "stateMutability": "view",
      "type": "function",
      "constant": true
    },
    {
      "inputs": [],
      "name": "feeEnable",
      "outputs": [
        {
          "internalType": "uint256",
          "name": "",
          "type": "uint256"
        }
      ],
      "stateMutability": "view",
      "type": "function",
      "constant": true
    },
    {
      "inputs": [],
      "name": "liquidityFee",
      "outputs": [
        {
          "internalType": "uint256",
          "name": "",
          "type": "uint256"
        }
      ],
      "stateMutability": "view",
      "type": "function",
      "constant": true
    },
    {
      "inputs": [],
      "name": "marketingWalletFee",
      "outputs": [
        {
          "internalType": "uint256",
          "name": "",
          "type": "uint256"
        }
      ],
      "stateMutability": "view",
      "type": "function",
      "constant": true
    },
    {
      "inputs": [],
      "name": "minLiquidity",
      "outputs": [
        {
          "internalType": "uint256",
          "name": "",
          "type": "uint256"
        }
      ],
      "stateMutability": "view",
      "type": "function",
      "constant": true
    },
    {
      "inputs": [],
      "name": "owner",
      "outputs": [
        {
          "internalType": "address",
          "name": "",
          "type": "address"
        }
      ],
      "stateMutability": "view",
      "type": "function",
      "constant": true
    },
    {
      "inputs": [],
      "name": "reflectionFee",
      "outputs": [
        {
          "internalType": "uint256",
          "name": "",
          "type": "uint256"
        }
      ],
      "stateMutability": "view",
      "type": "function",
      "constant": true
    },
    {
      "inputs": [],
      "name": "renounceOwnership",
      "outputs": [],
      "stateMutability": "nonpayable",
      "type": "function"
    },
    {
      "inputs": [],
      "name": "swapAndLiquifyEnabled",
      "outputs": [
        {
          "internalType": "bool",
          "name": "",
          "type": "bool"
        }
      ],
      "stateMutability": "view",
      "type": "function",
      "constant": true
    },
    {
      "inputs": [
        {
          "internalType": "address",
          "name": "newOwner",
          "type": "address"
        }
      ],
      "name": "transferOwnership",
      "outputs": [],
      "stateMutability": "nonpayable",
      "type": "function"
    },
    {
      "inputs": [],
      "name": "uniswapV2Pair",
      "outputs": [
        {
          "internalType": "address",
          "name": "",
          "type": "address"
        }
      ],
      "stateMutability": "view",
      "type": "function",
      "constant": true
    },
    {
      "inputs": [],
      "name": "uniswapV2Router",
      "outputs": [
        {
          "internalType": "contract IUniswapV2Router02",
          "name": "",
          "type": "address"
        }
      ],
      "stateMutability": "view",
      "type": "function",
      "constant": true
    },
    {
      "stateMutability": "payable",
      "type": "receive",
      "payable": true
    },
    {
      "inputs": [],
      "name": "name",
      "outputs": [
        {
          "internalType": "string",
          "name": "",
          "type": "string"
        }
      ],
      "stateMutability": "view",
      "type": "function",
      "constant": true
    },
    {
      "inputs": [],
      "name": "symbol",
      "outputs": [
        {
          "internalType": "string",
          "name": "",
          "type": "string"
        }
      ],
      "stateMutability": "view",
      "type": "function",
      "constant": true
    },
    {
      "inputs": [],
      "name": "decimals",
      "outputs": [
        {
          "internalType": "uint8",
          "name": "",
          "type": "uint8"
        }
      ],
      "stateMutability": "view",
      "type": "function",
      "constant": true
    },
    {
      "inputs": [],
      "name": "totalSupply",
      "outputs": [
        {
          "internalType": "uint256",
          "name": "",
          "type": "uint256"
        }
      ],
      "stateMutability": "view",
      "type": "function",
      "constant": true
    },
    {
      "inputs": [
        {
          "internalType": "address",
          "name": "account",
          "type": "address"
        }
      ],
      "name": "balanceOf",
      "outputs": [
        {
          "internalType": "uint256",
          "name": "",
          "type": "uint256"
        }
      ],
      "stateMutability": "view",
      "type": "function",
      "constant": true
    },
    {
      "inputs": [
        {
          "internalType": "address",
          "name": "recipient",
          "type": "address"
        },
        {
          "internalType": "uint256",
          "name": "amount",
          "type": "uint256"
        }
      ],
      "name": "transfer",
      "outputs": [
        {
          "internalType": "bool",
          "name": "",
          "type": "bool"
        }
      ],
      "stateMutability": "nonpayable",
      "type": "function"
    },
    {
      "inputs": [
        {
          "internalType": "address",
          "name": "owner",
          "type": "address"
        },
        {
          "internalType": "address",
          "name": "spender",
          "type": "address"
        }
      ],
      "name": "allowance",
      "outputs": [
        {
          "internalType": "uint256",
          "name": "",
          "type": "uint256"
        }
      ],
      "stateMutability": "view",
      "type": "function",
      "constant": true
    },
    {
      "inputs": [
        {
          "internalType": "address",
          "name": "spender",
          "type": "address"
        },
        {
          "internalType": "uint256",
          "name": "amount",
          "type": "uint256"
        }
      ],
      "name": "approve",
      "outputs": [
        {
          "internalType": "bool",
          "name": "",
          "type": "bool"
        }
      ],
      "stateMutability": "nonpayable",
      "type": "function"
    },
    {
      "inputs": [
        {
          "internalType": "address",
          "name": "sender",
          "type": "address"
        },
        {
          "internalType": "address",
          "name": "recipient",
          "type": "address"
        },
        {
          "internalType": "uint256",
          "name": "amount",
          "type": "uint256"
        }
      ],
      "name": "transferFrom",
      "outputs": [
        {
          "internalType": "bool",
          "name": "",
          "type": "bool"
        }
      ],
      "stateMutability": "nonpayable",
      "type": "function"
    },
    {
      "inputs": [
        {
          "internalType": "address",
          "name": "spender",
          "type": "address"
        },
        {
          "internalType": "uint256",
          "name": "addedValue",
          "type": "uint256"
        }
      ],
      "name": "increaseAllowance",
      "outputs": [
        {
          "internalType": "bool",
          "name": "",
          "type": "bool"
        }
      ],
      "stateMutability": "nonpayable",
      "type": "function"
    },
    {
      "inputs": [
        {
          "internalType": "address",
          "name": "spender",
          "type": "address"
        },
        {
          "internalType": "uint256",
          "name": "subtractedValue",
          "type": "uint256"
        }
      ],
      "name": "decreaseAllowance",
      "outputs": [
        {
          "internalType": "bool",
          "name": "",
          "type": "bool"
        }
      ],
      "stateMutability": "nonpayable",
      "type": "function"
    },
    {
      "inputs": [
        {
          "internalType": "address",
          "name": "account",
          "type": "address"
        }
      ],
      "name": "isExcludedFromReward",
      "outputs": [
        {
          "internalType": "bool",
          "name": "",
          "type": "bool"
        }
      ],
      "stateMutability": "view",
      "type": "function",
      "constant": true
    },
    {
      "inputs": [
        {
          "internalType": "address",
          "name": "account",
          "type": "address"
        }
      ],
      "name": "isExcludedFromMaxTx",
      "outputs": [
        {
          "internalType": "bool",
          "name": "",
          "type": "bool"
        }
      ],
      "stateMutability": "view",
      "type": "function",
      "constant": true
    },
    {
      "inputs": [],
      "name": "totalFees",
      "outputs": [
        {
          "internalType": "uint256",
          "name": "",
          "type": "uint256"
        }
      ],
      "stateMutability": "view",
      "type": "function",
      "constant": true
    },
    {
      "inputs": [
        {
          "internalType": "uint256",
          "name": "rAmount",
          "type": "uint256"
        }
      ],
      "name": "tokenFromReflection",
      "outputs": [
        {
          "internalType": "uint256",
          "name": "",
          "type": "uint256"
        }
      ],
      "stateMutability": "view",
      "type": "function",
      "constant": true
    },
    {
      "inputs": [
        {
          "internalType": "address",
          "name": "account",
          "type": "address"
        }
      ],
      "name": "excludeFromReward",
      "outputs": [],
      "stateMutability": "nonpayable",
      "type": "function"
    },
    {
      "inputs": [
        {
          "internalType": "address",
          "name": "account",
          "type": "address"
        }
      ],
      "name": "includeInReward",
      "outputs": [],
      "stateMutability": "nonpayable",
      "type": "function"
    },
    {
      "inputs": [
        {
          "internalType": "uint256",
          "name": "fee",
          "type": "uint256"
        }
      ],
      "name": "setTaxFeePercent",
      "outputs": [],
      "stateMutability": "nonpayable",
      "type": "function"
    },
    {
      "inputs": [
        {
          "internalType": "bool",
          "name": "enableTax",
          "type": "bool"
        }
      ],
      "name": "setEnableFee",
      "outputs": [],
      "stateMutability": "nonpayable",
      "type": "function"
    },
    {
      "inputs": [
        {
          "internalType": "bool",
          "name": "_enabled",
          "type": "bool"
        }
      ],
      "name": "setSwapAndLiquifyEnabled",
      "outputs": [],
      "stateMutability": "nonpayable",
      "type": "function"
    },
    {
      "inputs": [
        {
          "internalType": "address",
          "name": "account",
          "type": "address"
        }
      ],
      "name": "isIncludedInFee",
      "outputs": [
        {
          "internalType": "bool",
          "name": "",
          "type": "bool"
        }
      ],
      "stateMutability": "view",
      "type": "function",
      "constant": true
    },
    {
      "inputs": [
        {
          "internalType": "address",
          "name": "_tokenContract",
          "type": "address"
        },
        {
          "internalType": "uint256",
          "name": "_amount",
          "type": "uint256"
        }
      ],
      "name": "withdrawToken",
      "outputs": [],
      "stateMutability": "nonpayable",
      "type": "function"
    }
  ],
  "bytecode": "0x60a0604052600b8054600160a060020a0319908116737a250d5630b4cf539739df2c5dacb4c659f2488d17909155600c805490911673ddb9a4461e5ff9f8035770e81209979d722697d41790556b01401e70099fcb3a63000000600d8190556200006c9060001962000490565b6200007a9060001962000453565b600e556003601081905560115560016012819055601381905560148190556015556016805460b060020a60ff0219167601000000000000000000000000000000000000000000001790556a0422ca8b0a00a4250000006019556969e10de76676d0800000601a55348015620000ee57600080fd5b506200011562000106640100000000620003ac810204565b640100000000620003b0810204565b600e54600160006200012f640100000000620003ac810204565b600160a060020a039081168252602080830193909352604091820160002093909355600b5481517fc45a01550000000000000000000000000000000000000000000000000000000081529151931692839263c45a01559260048082019391829003018186803b158015620001a257600080fd5b505afa158015620001b7573d6000803e3d6000fd5b505050506040513d601f19601f82011682018060405250810190620001dd919062000400565b600160a060020a031663c9c653963083600160a060020a031663ad5c46486040518163ffffffff167c010000000000000000000000000000000000000000000000000000000002815260040160206040518083038186803b1580156200024257600080fd5b505afa15801562000257573d6000803e3d6000fd5b505050506040513d601f19601f820116820180604052508101906200027d919062000400565b6040518363ffffffff167c0100000000000000000000000000000000000000000000000000000000028152600401620002b892919062000430565b602060405180830381600087803b158015620002d357600080fd5b505af1158015620002e8573d6000803e3d6000fd5b505050506040513d601f19601f820116820180604052508101906200030e919062000400565b6016805461010060a860020a031916610100600160a060020a039384160217905581166c010000000000000000000000000260805262000356640100000000620003ac810204565b600160a060020a03166000600160a060020a03167fddf252ad1be2c89b69c2b068fc378daa952ba7f163c4a11628f55a4df523b3ef600d546040516200039d91906200044a565b60405180910390a350620004ca565b3390565b60008054600160a060020a03838116600160a060020a0319831681178455604051919092169283917f8be0079c531659141344cd1fd0a4f28419497f9722a3daafe3b4186f6b6457e09190a35050565b60006020828403121562000412578081fd5b8151600160a060020a038116811462000429578182fd5b9392505050565b600160a060020a0392831681529116602082015260400190565b90815260200190565b6000828210156200048b577f4e487b710000000000000000000000000000000000000000000000000000000081526011600452602481fd5b500390565b600082620004c5577f4e487b710000000000000000000000000000000000000000000000000000000081526012600452602481fd5b500690565b6080516c010000000000000000000000009004612a4c62000519600039600081816106f001528181611868015281816119440152818161199901528181611a0b0152611a320152612a4c6000f3fe60806040526004361061020c5760003560e060020a9004806370a082311161011c5780639e281a98116100a4578063c49b9a8011610073578063c49b9a8014610569578063d8e0027114610589578063dd62ed3e146105a9578063f2fde38b146105c9578063fbac4837146105e957610213565b80639e281a98146104f4578063a457c2d714610514578063a9059cbb14610534578063bf8d31f01461055457610213565b806383ad7994116100eb57806383ad79941461048057806388f82020146104955780638da5cb5b146104b557806395d89b41146104ca57806398118cb4146104df57610213565b806370a0823114610421578063715018a6146104415780637d1db4a5146104565780637f0785d01461046b57610213565b80632d8381191161019f578063395093511161016e578063395093511461039757806349bd5a5e146103b75780634a74bb02146103cc57806352390c02146103e1578063658c27a91461040157610213565b80632d8381191461032057806330d2091d14610340578063313ce567146103555780633685d4191461037757610213565b80631694505e116101db5780631694505e146102b457806318160ddd146102d657806323b872dd146102eb578063252cf2d21461030b57610213565b8063061c82d01461021857806306fdde031461023a578063095ea7b31461026557806313114a9d1461029257610213565b3661021357005b600080fd5b34801561022457600080fd5b50610238610233366004612306565b610609565b005b34801561024657600080fd5b5061024f610694565b60405161025c91906123e2565b60405180910390f35b34801561027157600080fd5b506102856102803660046122a3565b6106cb565b60405161025c91906123d7565b34801561029e57600080fd5b506102a76106e8565b60405161025c91906128b1565b3480156102c057600080fd5b506102c96106ee565b60405161025c919061234b565b3480156102e257600080fd5b506102a7610712565b3480156102f757600080fd5b50610285610306366004612263565b610718565b34801561031757600080fd5b506102a76107b2565b34801561032c57600080fd5b506102a761033b366004612306565b6107b8565b34801561034c57600080fd5b506102856107fe565b34801561036157600080fd5b5061036a610807565b60405161025c9190612940565b34801561038357600080fd5b506102386103923660046121f3565b61080c565b3480156103a357600080fd5b506102856103b23660046122a3565b610a0d565b3480156103c357600080fd5b506102c9610a5c565b3480156103d857600080fd5b50610285610a70565b3480156103ed57600080fd5b506102386103fc3660046121f3565b610a93565b34801561040d57600080fd5b5061028561041c3660046121f3565b610bde565b34801561042d57600080fd5b506102a761043c3660046121f3565b610bfc565b34801561044d57600080fd5b50610238610c64565b34801561046257600080fd5b506102a7610cb2565b34801561047757600080fd5b506102a7610cb8565b34801561048c57600080fd5b506102a7610cbe565b3480156104a157600080fd5b506102856104b03660046121f3565b610cc4565b3480156104c157600080fd5b506102c9610ce2565b3480156104d657600080fd5b5061024f610cf1565b3480156104eb57600080fd5b506102a7610d28565b34801561050057600080fd5b5061023861050f3660046122a3565b610d2e565b34801561052057600080fd5b5061028561052f3660046122a3565b610e75565b34801561054057600080fd5b5061028561054f3660046122a3565b610ef1565b34801561056057600080fd5b506102a7610f05565b34801561057557600080fd5b506102386105843660046122ce565b610f0b565b34801561059557600080fd5b506102386105a43660046122ce565b610fba565b3480156105b557600080fd5b506102a76105c436600461222b565b61103a565b3480156105d557600080fd5b506102386105e43660046121f3565b611065565b3480156105f557600080fd5b506102856106043660046121f3565b6110dc565b6106116110fa565b600160a060020a0316610622610ce2565b600160a060020a0316146106545760405160e560020a62461bcd02815260040161064b906126d1565b60405180910390fd5b60108190556040517f19da908cae03512cf29c19a5842b2904a06fd24ef9982759c78f9379831ed70f906106899083906128b1565b60405180910390a150565b60408051808201909152600f81527f4578706c6f726174696f6e4e6578740000000000000000000000000000000000602082015290565b60006106df6106d86110fa565b84846110fe565b50600192915050565b600f5490565b7f000000000000000000000000000000000000000000000000000000000000000081565b600d5490565b60006107258484846111b8565b600160a060020a0384166000908152600360205260408120816107466110fa565b600160a060020a0316600160a060020a031681526020019081526020016000205490508281101561078c5760405160e560020a62461bcd02815260040161064b90612674565b6107a7856107986110fa565b6107a286856129a8565b6110fe565b506001949350505050565b60175481565b6000600e548211156107df5760405160e560020a62461bcd02815260040161064b90612492565b60006107e961139d565b90506107f583826113c0565b9150505b919050565b60165460ff1681565b601290565b6108146110fa565b600160a060020a0316610825610ce2565b600160a060020a03161461084e5760405160e560020a62461bcd02815260040161064b906126d1565b600160a060020a03811660009081526005602052604090205460ff166108895760405160e560020a62461bcd02815260040161064b906125a9565b60005b600a54811015610a095781600160a060020a0316600a82815481106108c45760e060020a634e487b7102600052603260045260246000fd5b600091825260209091200154600160a060020a031614156109f757600a80546108ef906001906129a8565b815481106109105760e060020a634e487b7102600052603260045260246000fd5b600091825260209091200154600a8054600160a060020a03909216918390811061094d5760e060020a634e487b7102600052603260045260246000fd5b6000918252602080832091909101805473ffffffffffffffffffffffffffffffffffffffff1916600160a060020a039485161790559184168152600282526040808220829055600590925220805460ff19169055600a8054806109c35760e060020a634e487b7102600052603160045260246000fd5b6000828152602090208101600019908101805473ffffffffffffffffffffffffffffffffffffffff19169055019055610a09565b80610a01816129bf565b91505061088c565b5050565b60006106df610a1a6110fa565b848460036000610a286110fa565b600160a060020a03908116825260208083019390935260409182016000908120918b16815292529020546107a2919061294e565b6016546101009004600160a060020a031681565b601654760100000000000000000000000000000000000000000000900460ff1681565b610a9b6110fa565b600160a060020a0316610aac610ce2565b600160a060020a031614610ad55760405160e560020a62461bcd02815260040161064b906126d1565b600160a060020a03811660009081526005602052604090205460ff1615610b115760405160e560020a62461bcd02815260040161064b906125e0565b600160a060020a03811660009081526001602052604090205415610b6b57600160a060020a038116600090815260016020526040902054610b51906107b8565b600160a060020a0382166000908152600260205260409020555b600160a060020a03166000818152600560205260408120805460ff19166001908117909155600a805491820181559091527fc65a7bb8d6351c1cf70c95a316cc6a92839c986682d98bc35f958f4883f9d2a801805473ffffffffffffffffffffffffffffffffffffffff19169091179055565b600160a060020a031660009081526007602052604090205460ff1690565b600160a060020a03811660009081526005602052604081205460ff1615610c3c5750600160a060020a0381166000908152600260205260409020546107f9565b600160a060020a038216600090815260016020526040902054610c5e906107b8565b92915050565b610c6c6110fa565b600160a060020a0316610c7d610ce2565b600160a060020a031614610ca65760405160e560020a62461bcd02815260040161064b906126d1565b610cb060006113d3565b565b60195481565b60185481565b60105481565b600160a060020a031660009081526005602052604090205460ff1690565b600054600160a060020a031690565b60408051808201909152600581527f454e455854000000000000000000000000000000000000000000000000000000602082015290565b60125481565b610d366110fa565b600160a060020a0316610d47610ce2565b600160a060020a031614610d705760405160e560020a62461bcd02815260040161064b906126d1565b600160a060020a038216610d995760405160e560020a62461bcd02815260040161064b90612763565b6040517fa9059cbb0000000000000000000000000000000000000000000000000000000081528290600160a060020a0382169063a9059cbb90610de29033908690600401612383565b602060405180830381600087803b158015610dfc57600080fd5b505af1158015610e10573d6000803e3d6000fd5b505050506040513d601f19601f82011682018060405250810190610e3491906122ea565b507f5c5578c78fc9b87943279247ef36abf638b9551372bb769b5d87d1ae6a31be64833384604051610e689392919061235f565b60405180910390a1505050565b60008060036000610e846110fa565b600160a060020a0390811682526020808301939093526040918201600090812091881681529252902054905082811015610ed35760405160e560020a62461bcd02815260040161064b90612854565b610ee7610ede6110fa565b858584036110fe565b5060019392505050565b60006106df610efe6110fa565b84846111b8565b60145481565b610f136110fa565b600160a060020a0316610f24610ce2565b600160a060020a031614610f4d5760405160e560020a62461bcd02815260040161064b906126d1565b6016805476ff000000000000000000000000000000000000000000001916760100000000000000000000000000000000000000000000831515021790556040517f53726dfcaf90650aa7eb35524f4d3220f07413c8d6cb404cc8c18bf5591bc159906106899083906123d7565b610fc26110fa565b600160a060020a0316610fd3610ce2565b600160a060020a031614610ffc5760405160e560020a62461bcd02815260040161064b906126d1565b6016805460ff19168215151790556040517fd93972947b6f619cc048053ab8874f9f4fc05ac3e2e41a2c689a1e520066750f906106899083906123d7565b600160a060020a03918216600090815260036020908152604080832093909416825291909152205490565b61106d6110fa565b600160a060020a031661107e610ce2565b600160a060020a0316146110a75760405160e560020a62461bcd02815260040161064b906126d1565b600160a060020a0381166110d05760405160e560020a62461bcd02815260040161064b906124ef565b6110d9816113d3565b50565b600160a060020a031660009081526008602052604090205460ff1690565b3390565b600160a060020a0383166111275760405160e560020a62461bcd02815260040161064b906127f7565b600160a060020a0382166111505760405160e560020a62461bcd02815260040161064b9061254c565b600160a060020a0380841660008181526003602090815260408083209487168084529490915290819020849055517f8c5be1e5ebec7d5bd14f71427d1e84f3dd0314c0f7b2291e5b200ac8c7c3b925906111ab9085906128b1565b60405180910390a3505050565b600160a060020a0383166111e15760405160e560020a62461bcd02815260040161064b9061279a565b600160a060020a03821661120a5760405160e560020a62461bcd02815260040161064b90612435565b6000811161122d5760405160e560020a62461bcd02815260040161064b90612706565b611235610ce2565b600160a060020a031683600160a060020a03161415801561126f5750611259610ce2565b600160a060020a031682600160a060020a031614155b15611299576019548111156112995760405160e560020a62461bcd02815260040161064b90612617565b60006112a430610bfc565b905060195481106112b457506019545b601a54811080159081906112e457506016547501000000000000000000000000000000000000000000900460ff16155b80156113035750601654600160a060020a038681166101009092041614155b801561132b5750601654760100000000000000000000000000000000000000000000900460ff165b1561133e57601a54915061133e82611430565b600160a060020a03851660009081526006602052604090205460019060ff16806113805750600160a060020a03851660009081526006602052604090205460ff165b15611389575060005b61139586868684611509565b505050505050565b60008060006113aa61162b565b90925090506113b982826113c0565b9250505090565b60006113cc8284612966565b9392505050565b60008054600160a060020a0383811673ffffffffffffffffffffffffffffffffffffffff19831681178455604051919092169283917f8be0079c531659141344cd1fd0a4f28419497f9722a3daafe3b4186f6b6457e09190a35050565b6016805475ff0000000000000000000000000000000000000000001916750100000000000000000000000000000000000000000017905560006114748260026113c0565b9050600061148283836117f4565b9050303161148f83611800565b600061149c3031836117f4565b90506114a88382611a05565b7f17bbfb9a6069321b6ded73bd96327c9e6b7212a5cd51ff219cd61370acafb5618482856040516114db9392919061292a565b60405180910390a150506016805475ff00000000000000000000000000000000000000000019169055505050565b8061151657611516611aeb565b600160a060020a03841660009081526005602052604090205460ff1680156115575750600160a060020a03831660009081526005602052604090205460ff16155b1561156c57611567848484611b32565b611618565b600160a060020a03841660009081526005602052604090205460ff161580156115ad5750600160a060020a03831660009081526005602052604090205460ff165b156115bd57611567848484611c8d565b600160a060020a03841660009081526005602052604090205460ff1680156115fd5750600160a060020a03831660009081526005602052604090205460ff165b1561160d57611567848484611d5f565b611618848484611dfb565b8061162557611625611e68565b50505050565b600e54600d546000918291825b600a548110156117c2578260016000600a848154811061166b5760e060020a634e487b7102600052603260045260246000fd5b6000918252602080832090910154600160a060020a0316835282019290925260400190205411806116e757508160026000600a84815481106116c05760e060020a634e487b7102600052603260045260246000fd5b6000918252602080832090910154600160a060020a03168352820192909252604001902054115b156116fe57600e54600d54945094505050506117f0565b61175560016000600a84815481106117295760e060020a634e487b7102600052603260045260246000fd5b6000918252602080832090910154600160a060020a0316835282019290925260400190205484906117f4565b92506117ae60026000600a84815481106117825760e060020a634e487b7102600052603260045260246000fd5b6000918252602080832090910154600160a060020a0316835282019290925260400190205483906117f4565b9150806117ba816129bf565b915050611638565b50600d54600e546117d2916113c0565b8210156117ea57600e54600d549350935050506117f0565b90925090505b9091565b60006113cc82846129a8565b60408051600280825260608201835260009260208301908036833701905050905030816000815181106118465760e060020a634e487b7102600052603260045260246000fd5b6020026020010190600160a060020a03169081600160a060020a0316815250507f0000000000000000000000000000000000000000000000000000000000000000600160a060020a031663ad5c46486040518163ffffffff1660e060020a02815260040160206040518083038186803b1580156118c257600080fd5b505afa1580156118d6573d6000803e3d6000fd5b505050506040513d601f19601f820116820180604052508101906118fa919061220f565b8160018151811061191e5760e060020a634e487b7102600052603260045260246000fd5b6020026020010190600160a060020a03169081600160a060020a031681525050611969307f0000000000000000000000000000000000000000000000000000000000000000846110fe565b6040517f791ac947000000000000000000000000000000000000000000000000000000008152600160a060020a037f0000000000000000000000000000000000000000000000000000000000000000169063791ac947906119d79085906000908690309042906004016128ba565b600060405180830381600087803b1580156119f157600080fd5b505af1158015611395573d6000803e3d6000fd5b611a30307f0000000000000000000000000000000000000000000000000000000000000000846110fe565b7f0000000000000000000000000000000000000000000000000000000000000000600160a060020a031663f305d719823085600080611a6d610ce2565b426040518863ffffffff1660e060020a028152600401611a929695949392919061239c565b6060604051808303818588803b158015611aab57600080fd5b505af1158015611abf573d6000803e3d6000fd5b50505050506040513d601f19601f82011682018060405250810190611ae4919061231e565b5050505050565b601054158015611afb5750601254155b8015611b075750601454155b15611b1157610cb0565b60108054601155600090819055601280546013558190556014805460155555565b600080600080611b4185611e7c565b93509350935093506000806000806000611b5d8a898989611ed1565b94509450945094509450611b9f8a600260008f600160a060020a0316600160a060020a03168152602001908152602001600020546117f490919063ffffffff16565b600160a060020a038d16600090815260026020908152604080832093909355600190522054611bce90866117f4565b600160a060020a03808e1660009081526001602052604080822093909355908d1681522054611bfd9085611f4a565b600160a060020a038c16600090815260016020526040902055611c208389611f56565b611c2a8288611fb2565b611c348187612079565b8a600160a060020a03168c600160a060020a03167fddf252ad1be2c89b69c2b068fc378daa952ba7f163c4a11628f55a4df523b3ef8b604051611c7791906128b1565b60405180910390a3505050505050505050505050565b600080600080611c9c85611e7c565b93509350935093506000806000806000611cb88a898989611ed1565b94509450945094509450611cfa85600160008f600160a060020a0316600160a060020a03168152602001908152602001600020546117f490919063ffffffff16565b600160a060020a03808e16600090815260016020908152604080832094909455918e16815260029091522054611d30908a611f4a565b600160a060020a038c16600090815260026020908152604080832093909355600190522054611bfd9085611f4a565b600080600080611d6e85611e7c565b93509350935093506000806000806000611d8a8a898989611ed1565b94509450945094509450611dcc8a600260008f600160a060020a0316600160a060020a03168152602001908152602001600020546117f490919063ffffffff16565b600160a060020a038d16600090815260026020908152604080832093909355600190522054611cfa90866117f4565b600080600080611e0a85611e7c565b93509350935093506000806000806000611e268a898989611ed1565b94509450945094509450611bce85600160008f600160a060020a0316600160a060020a03168152602001908152602001600020546117f490919063ffffffff16565b601154601055601354601255601554601455565b60008080808481611e8c8261218d565b90506000611e99836121af565b90506000611ea6846121cb565b90506000611ec082611eba858189896117f4565b906117f4565b9a9399509197509550909350505050565b600080600080600080611ee261139d565b9050896000611ef182846121e7565b90506000611eff8c856121e7565b90506000611f0d8c866121e7565b90506000611f1b8c876121e7565b90506000611f2f82611eba858189896117f4565b949b5093995091975095509350505050945094509450945094565b60006113cc828461294e565b600e54611f6390836117f4565b600e55600f54611f739082611f4a565b600f556040517f051f2d717bdbcf1bee0818957fce58531ed8049929fd991272c5cfd3610240c290611fa69083906128b1565b60405180910390a15050565b3060009081526005602052604090205460ff1615611ff95730600090815260016020526040902054611fe49083611f4a565b3060009081526001602052604090205561204a565b306000908152600160205260409020546120139083611f4a565b306000908152600160209081526040808320939093556002905220546120399082611f4a565b306000908152600260205260409020555b7fe8d702ed806b975c93dca0eab5f12ec2d4ab7f5bec9a46f9cb5aa2495b851f1981604051611fa691906128b1565b600c54600160a060020a031660009081526005602052604090205460ff16156120e157600c54600160a060020a03166000908152600160205260409020546120c19083611f4a565b600c54600160a060020a031660009081526001602052604090205561215e565b600c54600160a060020a03166000908152600160205260409020546121069083611f4a565b600c8054600160a060020a0390811660009081526001602090815260408083209590955592549091168152600290915220546121429082611f4a565b600c54600160a060020a03166000908152600260205260409020555b7f2954e977fdb29b3b7e01fdc5bf39f25dffc88f02111931cec44f7c103218e92481604051611fa691906128b1565b6000610c5e60646121a9601054856121e790919063ffffffff16565b906113c0565b6000610c5e60646121a9601254856121e790919063ffffffff16565b6000610c5e60646121a9601454856121e790919063ffffffff16565b60006113cc8284612989565b600060208284031215612204578081fd5b81356113cc816129f3565b600060208284031215612220578081fd5b81516113cc816129f3565b6000806040838503121561223d578081fd5b8235612248816129f3565b91506020830135612258816129f3565b809150509250929050565b600080600060608486031215612277578081fd5b8335612282816129f3565b92506020840135612292816129f3565b929592945050506040919091013590565b600080604083850312156122b5578182fd5b82356122c0816129f3565b946020939093013593505050565b6000602082840312156122df578081fd5b81356113cc81612a08565b6000602082840312156122fb578081fd5b81516113cc81612a08565b600060208284031215612317578081fd5b5035919050565b600080600060608486031215612332578283fd5b8351925060208401519150604084015190509250925092565b600160a060020a0391909116815260200190565b600160a060020a039384168152919092166020820152604081019190915260600190565b600160a060020a03929092168252602082015260400190565b600160a060020a039687168152602081019590955260408501939093526060840191909152909216608082015260a081019190915260c00190565b901515815260200190565b6000602080835283518082850152825b8181101561240e578581018301518582016040015282016123f2565b8181111561241f5783604083870101525b50601f01601f1916929092016040019392505050565b60208082526023908201527f45524332303a207472616e7366657220746f20746865207a65726f206164647260408201527f6573730000000000000000000000000000000000000000000000000000000000606082015260800190565b6020808252602a908201527f416d6f756e74206d757374206265206c657373207468616e20746f74616c207260408201527f65666c656374696f6e7300000000000000000000000000000000000000000000606082015260800190565b60208082526026908201527f4f776e61626c653a206e6577206f776e657220697320746865207a65726f206160408201527f6464726573730000000000000000000000000000000000000000000000000000606082015260800190565b60208082526022908201527f45524332303a20617070726f766520746f20746865207a65726f20616464726560408201527f7373000000000000000000000000000000000000000000000000000000000000606082015260800190565b60208082526017908201527f4163636f756e74206973206e6f74206578636c75646564000000000000000000604082015260600190565b6020808252601b908201527f4163636f756e7420697320616c726561647920696e636c756465640000000000604082015260600190565b60208082526028908201527f5472616e7366657220616d6f756e74206578636565647320746865206d61785460408201527f78416d6f756e742e000000000000000000000000000000000000000000000000606082015260800190565b60208082526028908201527f45524332303a207472616e7366657220616d6f756e742065786365656473206160408201527f6c6c6f77616e6365000000000000000000000000000000000000000000000000606082015260800190565b6020808252818101527f4f776e61626c653a2063616c6c6572206973206e6f7420746865206f776e6572604082015260600190565b60208082526029908201527f5472616e7366657220616d6f756e74206d75737420626520677265617465722060408201527f7468616e207a65726f0000000000000000000000000000000000000000000000606082015260800190565b6020808252601c908201527f416464726573732063616e74206265207a65726f206164647265737300000000604082015260600190565b60208082526025908201527f45524332303a207472616e736665722066726f6d20746865207a65726f20616460408201527f6472657373000000000000000000000000000000000000000000000000000000606082015260800190565b60208082526024908201527f45524332303a20617070726f76652066726f6d20746865207a65726f2061646460408201527f7265737300000000000000000000000000000000000000000000000000000000606082015260800190565b60208082526025908201527f45524332303a2064656372656173656420616c6c6f77616e63652062656c6f7760408201527f207a65726f000000000000000000000000000000000000000000000000000000606082015260800190565b90815260200190565b600060a082018783526020878185015260a0604085015281875180845260c0860191508289019350845b81811015612909578451600160a060020a0316835293830193918301916001016128e4565b5050600160a060020a03969096166060850152505050608001529392505050565b9283526020830191909152604082015260600190565b60ff91909116815260200190565b60008219821115612961576129616129da565b500190565b6000826129845760e060020a634e487b710281526012600452602481fd5b500490565b60008160001904831182151516156129a3576129a36129da565b500290565b6000828210156129ba576129ba6129da565b500390565b60006000198214156129d3576129d36129da565b5060010190565b60e060020a634e487b7102600052601160045260246000fd5b600160a060020a03811681146110d957600080fd5b80151581146110d957600080fdfea2646970667358221220677b733aee6d50d5837c4f8b84f18329160c64618fe70eae58650d8ba413022a64736f6c63430008000033",
  "immutableReferences": {
    "966": [
      {
        "length": 32,
        "start": 1776
      },
      {
        "length": 32,
        "start": 6248
      },
      {
        "length": 32,
        "start": 6468
      },
      {
        "length": 32,
        "start": 6553
      },
      {
        "length": 32,
        "start": 6667
      },
      {
        "length": 32,
        "start": 6706
      }
    ]
  },
  "source": "// SPDX-License-Identifier: MIT\r\npragma solidity ^0.8.0;\r\n\r\nimport \"@openzeppelin/contracts/token/ERC20/extensions/IERC20Metadata.sol\";\r\nimport \"@openzeppelin/contracts/token/ERC20/IERC20.sol\";\r\nimport \"@openzeppelin/contracts/utils/Context.sol\";\r\nimport \"@openzeppelin/contracts/access/Ownable.sol\";\r\nimport \"@openzeppelin/contracts/utils/Address.sol\";\r\nimport \"@openzeppelin/contracts/utils/math/SafeMath.sol\";\r\n\r\nimport \"./interface/IUniswapV2Router.sol\";\r\nimport \"./interface/IUniswapV2Factory.sol\";\r\nimport \"./interface/IUniswapV2Pair.sol\";\r\n\r\ncontract ExplorationNext is Context, IERC20, IERC20Metadata, Ownable {\r\n    using SafeMath for uint256;\r\n    using Address for address;\r\n\r\n    mapping (address => uint256) private _rOwned;\r\n    mapping (address => uint256) private _tOwned;\r\n    mapping (address => mapping (address => uint256)) private _allowances;\r\n    mapping (address => bool) private pausedAddress;\r\n    mapping (address => bool) private _isExcluded;\r\n    mapping (address => bool) private _isExcludedFromFee;\r\n    mapping (address => bool) private _isExcludedFromMaxTx;\r\n    mapping (address => bool) private _isIncludedInFee;\r\n    mapping (address => bool) private _previousTokenBalanceTransfered;\r\n    address[] private _excluded;\r\n\r\n    address UNISWAPV2ROUTER = 0x7a250d5630B4cF539739dF2C5dAcb4c659F2488D;\r\n\r\n    address devAddress = 0xdDb9a4461e5fF9f8035770E81209979D722697D4;\r\n   \r\n    uint256 private constant MAX = ~uint256(0);\r\n    uint256 private _tTotal = 387000000  * 10**18;\r\n    uint256 private _rTotal = (MAX - (MAX % _tTotal));\r\n    uint256 private _tFeeTotal;\r\n\r\n    string private constant _name = \"ExplorationNext\";\r\n    string private constant _symbol = \"ENEXT\";\r\n    uint8 private constant _decimals = 18;\r\n\r\n\r\n    uint256 public reflectionFee = 3;\r\n    uint256 private previousReflectionFee = reflectionFee;\r\n\r\n    uint256 public liquidityFee = 1;\r\n    uint256 private previousLiquidityFee = liquidityFee;\r\n\r\n    //uint256 public liqFees;\r\n\r\n    // uint256 public _transactionBurn = 1;\r\n    // uint256 private _previousTransactionBurn = _transactionBurn;\r\n\r\n    uint256 public marketingWalletFee = 1;\r\n    uint256 private previousMarketingWalletFee = marketingWalletFee;\r\n\r\n    bool public enableFee;\r\n \r\n    IUniswapV2Router02 public immutable uniswapV2Router;\r\n    address public uniswapV2Pair;\r\n\r\n    bool inSwapAndLiquify;\r\n    bool public swapAndLiquifyEnabled = true;\r\n\r\n     \r\nuint256 public minLiquidity ;\r\n    uint256 public feeEnable;\r\n\r\n    uint256 public _maxTxAmount = 5000000 * 10**18;\r\n\r\n uint256 private numTokensSellToAddToLiquidity = 500000 * 10**18;    \r\n\r\n    event FeeEnable(bool enableFee);\r\n    event SetMaxTxPercent(uint256 maxPercent);\r\n    event SetTaxFeePercent(uint256 taxFeePercent);\r\n    event ExternalTokenTransfered(address externalAddress,address toAddress, uint amount);\r\n    event RedistributionFee(uint256 amount);\r\n    event liqFee(uint256 tLiquidity);\r\n    event marketWalletFee(uint256 amount);\r\n    event SwapAndLiquifyEnabledUpdated(bool enabled);\r\n    event SwapAndLiquify(uint256 tokensSwapped,uint256 ethReceived,uint256 tokensIntoLiqudity);\r\n\r\n    modifier lockTheSwap {\r\n        inSwapAndLiquify = true;\r\n        _;\r\n        inSwapAndLiquify = false;\r\n    }\r\n\r\n    constructor () {\r\n        \r\n        _rOwned[_msgSender()] = _rTotal;\r\n\r\n        IUniswapV2Router02 _uniswapV2Router = IUniswapV2Router02(UNISWAPV2ROUTER);\r\n        // Create a uniswap pair for this new token\r\n        uniswapV2Pair = IUniswapV2Factory(_uniswapV2Router.factory())\r\n            .createPair(address(this), _uniswapV2Router.WETH());\r\n\r\n        // set the rest of the contract variables\r\n        uniswapV2Router = _uniswapV2Router;\r\n\r\n        emit Transfer(address(0), _msgSender(), _tTotal);\r\n \r\n    }\r\n\r\n    /** \r\n     * Returns the name of the token.\r\n     */\r\n    function name() external view virtual override returns (string memory) {\r\n        return _name;\r\n    }\r\n\r\n    /**\r\n     * Returns the symbol of the token.\r\n     */\r\n    function symbol() external view virtual override returns (string memory) {\r\n        return _symbol;\r\n    }\r\n\r\n    /**\r\n     * Returns the number of decimals \r\n     */\r\n    function decimals() external view virtual override returns (uint8) {\r\n        return _decimals;\r\n    }\r\n\r\n    /**\r\n     * @dev See {IERC20-totalSupply}.\r\n     */\r\n    function totalSupply() external view virtual override returns (uint256) {\r\n        return _tTotal;\r\n    }\r\n\r\n    /**\r\n     * @dev See {IERC20-balanceOf}.\r\n     */\r\n    function balanceOf(address account) public view virtual override returns (uint256) {\r\n        if (_isExcluded[account]) return _tOwned[account];\r\n        return tokenFromReflection(_rOwned[account]);\r\n    }\r\n\r\n    /**\r\n     * @dev See {IERC20-transfer}.\r\n     *\r\n     * Requirements:\r\n     *\r\n     * - `recipient` cannot be the zero address.\r\n     * - the caller must have a balance of at least `amount`.\r\n     */\r\n    function transfer(address recipient, uint256 amount) external virtual override returns (bool) {\r\n        _transfer(_msgSender(), recipient, amount);\r\n        return true;\r\n    }\r\n\r\n    /**\r\n     * @dev See {IERC20-allowance}.\r\n     */\r\n    function allowance(address owner, address spender) external view virtual override returns (uint256) {\r\n        return _allowances[owner][spender];\r\n    }\r\n\r\n    /**\r\n     * @dev See {IERC20-approve}.\r\n     *\r\n     * Requirements:\r\n     *\r\n     * - `spender` cannot be the zero address.\r\n     */\r\n    function approve(address spender, uint256 amount) external virtual override returns (bool) {\r\n        _approve(_msgSender(), spender, amount);\r\n        return true;\r\n    }\r\n\r\n    /**\r\n     * @dev See {IERC20-transferFrom}.\r\n     *\r\n     * Emits an {Approval} event indicating the updated allowance. This is not\r\n     * required by the EIP. See the note at the beginning of {ERC20}.\r\n     *\r\n     * Requirements:\r\n     *\r\n     * - `sender` and `recipient` cannot be the zero address.\r\n     * - `sender` must have a balance of at least `amount`.\r\n     * - the caller must have allowance for ``sender``'s tokens of at least\r\n     * `amount`.\r\n     */\r\n    function transferFrom(address sender, address recipient, uint256 amount) external virtual override returns (bool) {\r\n        _transfer(sender, recipient, amount);\r\n\r\n        uint256 currentAllowance = _allowances[sender][_msgSender()];\r\n        require(currentAllowance >= amount, \"ERC20: transfer amount exceeds allowance\");\r\n        _approve(sender, _msgSender(), currentAllowance - amount);\r\n\r\n        return true;\r\n    }\r\n\r\n    /**\r\n     * @dev Atomically increases the allowance granted to `spender` by the caller.\r\n     *\r\n     * This is an alternative to {approve} that can be used as a mitigation for\r\n     * problems described in {IERC20-approve}.\r\n     *\r\n     * Emits an {Approval} event indicating the updated allowance.\r\n     *\r\n     * Requirements:\r\n     *\r\n     * - `spender` cannot be the zero address.\r\n     */\r\n    function increaseAllowance(address spender, uint256 addedValue) external virtual returns (bool) {\r\n        _approve(_msgSender(), spender, _allowances[_msgSender()][spender] + addedValue);\r\n        return true;\r\n    }\r\n\r\n    /**\r\n     * @dev Atomically decreases the allowance granted to `spender` by the caller.\r\n     *\r\n     * This is an alternative to {approve} that can be used as a mitigation for\r\n     * problems described in {IERC20-approve}.\r\n     *\r\n     * Emits an {Approval} event indicating the updated allowance.\r\n     *\r\n     * Requirements:\r\n     *\r\n     * - `spender` cannot be the zero address.\r\n     * - `spender` must have allowance for the caller of at least\r\n     * `subtractedValue`.\r\n     */\r\n    function decreaseAllowance(address spender, uint256 subtractedValue) external virtual returns (bool) {\r\n        uint256 currentAllowance = _allowances[_msgSender()][spender];\r\n        require(currentAllowance >= subtractedValue, \"ERC20: decreased allowance below zero\");\r\n        unchecked {\r\n            _approve(_msgSender(), spender, currentAllowance - subtractedValue);\r\n        }\r\n\r\n        return true;\r\n    }\r\n\r\n    \r\n    function isExcludedFromReward(address account) external view returns (bool) {\r\n        return _isExcluded[account];\r\n    }\r\n\r\n    function isExcludedFromMaxTx(address account) external view returns (bool) {\r\n        return _isExcludedFromMaxTx[account];\r\n    }\r\n\r\n    function totalFees() external view returns (uint256) {\r\n        return _tFeeTotal;\r\n    }\r\n\r\n    function tokenFromReflection(uint256 rAmount) public view returns(uint256) {\r\n        require(rAmount <= _rTotal, \"Amount must be less than total reflections\");\r\n        uint256 currentRate =  getRate();\r\n        return rAmount.div(currentRate);\r\n    }\r\n\r\n    function excludeFromReward(address account) public onlyOwner {\r\n        require(!_isExcluded[account], \"Account is already included\");\r\n        if(_rOwned[account] > 0) {\r\n            _tOwned[account] = tokenFromReflection(_rOwned[account]);\r\n        }\r\n        _isExcluded[account] = true;\r\n        _excluded.push(account);\r\n    }\r\n\r\n    function includeInReward(address account) public onlyOwner {\r\n        require(_isExcluded[account], \"Account is not excluded\");\r\n        for (uint256 i = 0; i < _excluded.length; i++) {\r\n            if (_excluded[i] == account) {\r\n                _excluded[i] = _excluded[_excluded.length - 1];\r\n                _tOwned[account] = 0;\r\n                _isExcluded[account] = false;\r\n                _excluded.pop();\r\n                break;\r\n            }\r\n        }\r\n    }\r\n    \r\n    function setTaxFeePercent(uint256 fee) external onlyOwner {\r\n        reflectionFee = fee;\r\n        emit SetTaxFeePercent(reflectionFee);\r\n    }\r\n\r\n    function setEnableFee(bool enableTax) external onlyOwner {\r\n        enableFee = enableTax;\r\n        emit FeeEnable(enableTax);\r\n    }\r\n\r\n\r\n    function takeReflectionFee(uint256 rFee, uint256 tFee) internal {\r\n        _rTotal = _rTotal.sub(rFee);\r\n        _tFeeTotal = _tFeeTotal.add(tFee);\r\n        emit RedistributionFee(tFee);\r\n    }\r\n\r\n   function takeLiquidityFee(uint256 rliquidityFee, uint256 tliquidityFee)\r\n        internal\r\n    {\r\n        if (_isExcluded[address(this)]) {\r\n            _rOwned[address(this)] = _rOwned[address(this)].add(rliquidityFee);\r\n        } else {\r\n            _rOwned[address(this)] = _rOwned[address(this)].add(rliquidityFee);\r\n            _tOwned[address(this)] = _tOwned[address(this)].add(tliquidityFee);\r\n        }\r\n        emit liqFee(tliquidityFee);\r\n    }\r\n\r\n    function takeMarketingWalletFee(uint256 rMarketingWalletFee, uint256 tMarketingWalletFee) internal {\r\n       if (_isExcluded[address(devAddress)]) {\r\n            _rOwned[address(devAddress)] = _rOwned[address(devAddress)].add(rMarketingWalletFee);\r\n        } else {\r\n            _rOwned[address(devAddress)] = _rOwned[address(devAddress)].add(rMarketingWalletFee);\r\n            _tOwned[address(devAddress)] = _tOwned[address(devAddress)].add(tMarketingWalletFee);\r\n        }\r\n        emit marketWalletFee(tMarketingWalletFee);\r\n    }\r\n\r\n    function setSwapAndLiquifyEnabled(bool _enabled) public onlyOwner {\r\n        swapAndLiquifyEnabled = _enabled;\r\n        emit SwapAndLiquifyEnabledUpdated(_enabled);\r\n    }\r\n     //to recieve ETH from uniswapV2Router when swaping\r\n    receive() external payable {}\r\n\r\n    function getTValues(uint256 amount) internal view returns (uint256, uint256, uint256,uint256) {\r\n        uint256 tAmount = amount;\r\n        uint256 tFee = calculateTaxFee(tAmount);\r\n        uint256 tLiquidityFee = calculateLiquidityFee(tAmount);\r\n        uint256 tMarketingWalletFee = calculateMarketingWalletFee(tAmount);\r\n        uint256 tTransferAmount = tAmount.sub(tFee).sub(tLiquidityFee).sub(tMarketingWalletFee);\r\n        return (tTransferAmount, tFee, tLiquidityFee,tMarketingWalletFee);\r\n    }\r\n\r\n    function getRValues(uint256 amount, uint256 tFee, uint256 tLiquidityFee, uint256 tMarketingWalletFee) internal view returns (uint256,uint256, uint256,uint256,uint256) {\r\n        uint256 currentRate = getRate();\r\n        uint256 tAmount = amount;\r\n        uint256 rAmount = tAmount.mul(currentRate);\r\n        uint256 rFee = tFee.mul(currentRate);\r\n        uint256 rLiquidityfee = tLiquidityFee.mul(currentRate);\r\n        uint256 rMarketingWalletFee = tMarketingWalletFee.mul(currentRate);\r\n        uint256 rTransferAmount = rAmount.sub(rFee).sub(rLiquidityfee).sub(rMarketingWalletFee);\r\n        return (rAmount, rTransferAmount, rFee, rLiquidityfee,rMarketingWalletFee);\r\n    }\r\n\r\n    function getRate() internal view returns(uint256) {\r\n        (uint256 rSupply, uint256 tSupply) = getCurrentSupply();\r\n        return rSupply.div(tSupply);\r\n    }\r\n\r\n    function getCurrentSupply() internal view returns(uint256, uint256) {\r\n        uint256 rSupply = _rTotal;\r\n        uint256 tSupply = _tTotal;      \r\n        for (uint256 i = 0; i < _excluded.length; i++) {\r\n            if (_rOwned[_excluded[i]] > rSupply || _tOwned[_excluded[i]] > tSupply) return (_rTotal, _tTotal);\r\n            rSupply = rSupply.sub(_rOwned[_excluded[i]]);\r\n            tSupply = tSupply.sub(_tOwned[_excluded[i]]);\r\n        }\r\n        if (rSupply < _rTotal.div(_tTotal)) return (_rTotal, _tTotal);\r\n        return (rSupply, tSupply);\r\n    }\r\n\r\n      function _takeLiquidity(uint256 tLiquidity) private {\r\n        uint256 currentRate =  getRate();\r\n        uint256 rLiquidity = tLiquidity.mul(currentRate);\r\n        _rOwned[address(this)] = _rOwned[address(this)].add(rLiquidity);\r\n        if(_isExcluded[address(this)])\r\n            _tOwned[address(this)] = _tOwned[address(this)].add(tLiquidity);\r\n    }\r\n    \r\n    function calculateTaxFee(uint256 _amount) internal view returns (uint256) {\r\n        return _amount.mul(reflectionFee).div(\r\n            10**2\r\n        );\r\n    }\r\n\r\n    function calculateLiquidityFee(uint256 _amount) private view returns (uint256) {\r\n        return _amount.mul(liquidityFee).div(\r\n            10**2\r\n        );\r\n    }\r\n    function calculateMarketingWalletFee(uint256 _amount) internal view returns (uint256) {\r\n        return _amount.mul(marketingWalletFee).div(\r\n            10**2\r\n        );\r\n    }\r\n    \r\n    function removeAllFee() internal {\r\n        if(reflectionFee == 0 && liquidityFee == 0 && marketingWalletFee == 0) return;\r\n        \r\n        previousReflectionFee = reflectionFee;\r\n        reflectionFee = 0;\r\n        \r\n        previousLiquidityFee = liquidityFee;\r\n        liquidityFee = 0;\r\n\r\n        previousMarketingWalletFee = marketingWalletFee;\r\n        marketingWalletFee = 0;\r\n    }\r\n \r\n    function restoreAllFee() internal {\r\n        reflectionFee = previousReflectionFee;\r\n        liquidityFee = previousLiquidityFee;\r\n        marketingWalletFee = previousMarketingWalletFee;\r\n    }\r\n\r\n     function isIncludedInFee(address account) external view returns(bool) {\r\n        return _isIncludedInFee[account];\r\n    }\r\n   \r\n    function _approve(address owner, address spender, uint256 amount) internal virtual {\r\n        require(owner != address(0), \"ERC20: approve from the zero address\");\r\n        require(spender != address(0), \"ERC20: approve to the zero address\");\r\n\r\n        _allowances[owner][spender] = amount;\r\n        emit Approval(owner, spender, amount);\r\n    }\r\n\r\n    function _transfer(\r\n        address from,\r\n        address to,\r\n        uint256 amount\r\n    ) internal {\r\n        require(from != address(0), \"ERC20: transfer from the zero address\");\r\n        require(to != address(0), \"ERC20: transfer to the zero address\");\r\n        require(amount > 0, \"Transfer amount must be greater than zero\");\r\n        if(from != owner() && to != owner())\r\n            require(amount <= _maxTxAmount, \"Transfer amount exceeds the maxTxAmount.\");\r\n        \r\n        //_beforeTokenTransfer(from, to);\r\n        \r\n        //uint256 senderBalance = balanceOf(from);\r\n        //require(senderBalance >= amount, \"ERC20: transfer amount exceeds balance\");\r\n        uint256 contractTokenBalance = balanceOf(address(this));\r\n        // bool previousenableFee;\r\n\r\n         if(contractTokenBalance >= _maxTxAmount)\r\n        {\r\n            contractTokenBalance = _maxTxAmount;\r\n        }\r\n        \r\n        bool overMinTokenBalance = contractTokenBalance >= numTokensSellToAddToLiquidity;\r\n        if (\r\n            overMinTokenBalance &&\r\n            !inSwapAndLiquify &&\r\n            from != uniswapV2Pair &&\r\n            swapAndLiquifyEnabled\r\n        ) {\r\n            contractTokenBalance = numTokensSellToAddToLiquidity;\r\n            //add liquidity\r\n            swapAndLiquify(contractTokenBalance);\r\n        }\r\n\r\n        //indicates if fee should be deducted from transfer\r\n        bool takeFee = true;\r\n        \r\n         //if any account belongs to _isExcludedFromFee account then remove the fee\r\n        if(_isExcludedFromFee[from] || _isExcludedFromFee[to]){\r\n            takeFee = false;\r\n        }\r\n        // if (\r\n        //     !inSwapAndLiquify &&\r\n        //     from != uniswapV2Pair &&\r\n        //     swapAndLiquifyEnabled\r\n        // ) {\r\n        //     if (enableFee == true) {\r\n        //         previousenableFee = enableFee;\r\n        //         enableFee = false;\r\n        //     }\r\n        //     //add liquidity\r\n        //     swapAndLiquify(contractTokenBalance);\r\n        //     if (previousenableFee == true) {\r\n        //         enableFee = true;\r\n        //     }\r\n        // }\r\n        // require(\r\n        //     contractTokenBalance >= amount,\r\n        //     \"ERC20: transfer amount exceeds balance\"\r\n        // );\r\n       \r\n        //transfer amount, it will take tax, burn and charity amount\r\n        _tokenTransfer(from,to,amount,takeFee);\r\n    }\r\n    \r\n    function swapAndLiquify(uint256 contractTokenBalance) private lockTheSwap {\r\n        // split the contract balance into halves\r\n        uint256 half = contractTokenBalance.div(2);\r\n        uint256 otherHalf = contractTokenBalance.sub(half);\r\n\r\n        // capture the contract's current ETH balance.\r\n        // this is so that we can capture exactly the amount of ETH that the\r\n        // swap creates, and not make the liquidity event include any ETH that\r\n        // has been manually sent to the contract\r\n        uint256 initialBalance = address(this).balance;\r\n        // swap tokens for ETH\r\n        swapTokensForEth(half); // <- this breaks the ETH -> HATE swap when swap+liquify is triggered\r\n\r\n        // how much ETH did we just swap into?\r\n        uint256 newBalance = address(this).balance.sub(initialBalance);\r\n\r\n        // add liquidity to uniswap\r\n        addLiquidity(otherHalf, newBalance);\r\n        \r\n        emit SwapAndLiquify(half, newBalance, otherHalf);\r\n    }\r\n\r\n    function swapTokensForEth(uint256 tokenAmount) private {\r\n        // generate the uniswap pair path of token -> weth\r\n        address[] memory path = new address[](2);\r\n        path[0] = address(this);\r\n        path[1] = uniswapV2Router.WETH();\r\n\r\n        _approve(address(this), address(uniswapV2Router), tokenAmount);\r\n\r\n        // make the swap\r\n        uniswapV2Router.swapExactTokensForETHSupportingFeeOnTransferTokens(\r\n            tokenAmount,\r\n            0, // accept any amount of ETH\r\n            path,\r\n            address(this),\r\n            block.timestamp\r\n        );\r\n    }\r\n\r\n    function addLiquidity(uint256 tokenAmount, uint256 ethAmount) private {\r\n        // approve token transfer to cover all possible scenarios\r\n        _approve(address(this), address(uniswapV2Router), tokenAmount);\r\n\r\n        // add the liquidity\r\n        uniswapV2Router.addLiquidityETH{value: ethAmount}(\r\n            address(this),\r\n            tokenAmount,\r\n            0, // slippage is unavoidable\r\n            0, // slippage is unavoidable\r\n            owner(),\r\n            block.timestamp\r\n        );\r\n    }\r\n\r\n    //this method is responsible for taking all fee, if takeFee is true\r\n    function _tokenTransfer(address sender, address recipient, uint256 amount,bool takeFee) internal {\r\n        if(!takeFee)\r\n            removeAllFee();\r\n        \r\n        if (_isExcluded[sender] && !_isExcluded[recipient]) {\r\n            _transferFromExcluded(sender, recipient, amount);\r\n        } else if (!_isExcluded[sender] && _isExcluded[recipient]) {\r\n            _transferToExcluded(sender, recipient, amount);\r\n        } else if (_isExcluded[sender] && _isExcluded[recipient]) {\r\n            _transferBothExcluded(sender, recipient, amount);\r\n        } else {\r\n            _transferStandard(sender, recipient, amount);\r\n        }\r\n        \r\n        if(!takeFee)\r\n            restoreAllFee();\r\n    }\r\n  \r\n    function _transferStandard(address sender, address recipient, uint256 tAmount) internal {\r\n        (uint256 tTransferAmount, uint256 tFee, uint256 tLiquidityFee, uint256 tMarketingWalletFee) = getTValues(tAmount);\r\n        (uint256 rAmount, uint256 rTransferAmount, uint256 rFee,uint256 rLiquidityFee,uint256 rMarketingWalletFee) = getRValues(tAmount, tFee, tLiquidityFee,tMarketingWalletFee);\r\n\r\n        _rOwned[sender] = _rOwned[sender].sub(rAmount);\r\n        _rOwned[recipient] = _rOwned[recipient].add(rTransferAmount);\r\n        takeReflectionFee(rFee, tFee);\r\n        takeLiquidityFee(rLiquidityFee, tLiquidityFee);\r\n        takeMarketingWalletFee(rMarketingWalletFee, tMarketingWalletFee);\r\n        emit Transfer(sender, recipient, tTransferAmount);\r\n\r\n    }\r\n    \r\n    function _transferBothExcluded(address sender, address recipient, uint256 tAmount) internal {\r\n        (uint256 tTransferAmount, uint256 tFee,uint256 tLiquidityFee, uint256 tMarketingWalletFee) = getTValues(tAmount);\r\n        (uint256 rAmount, uint256 rTransferAmount, uint256 rFee, uint256 rLiquidityFee, uint256 rMarketingWalletFee) = getRValues(tAmount, tFee,tLiquidityFee,tMarketingWalletFee);\r\n\r\n        _tOwned[sender] = _tOwned[sender].sub(tAmount);\r\n        _rOwned[sender] = _rOwned[sender].sub(rAmount);\r\n        _tOwned[recipient] = _tOwned[recipient].add(tTransferAmount);\r\n        _rOwned[recipient] = _rOwned[recipient].add(rTransferAmount);        \r\n        takeReflectionFee(rFee, tFee);\r\n        takeLiquidityFee(rLiquidityFee, tLiquidityFee);\r\n        takeMarketingWalletFee(rMarketingWalletFee, tMarketingWalletFee);\r\n        emit Transfer(sender, recipient, tTransferAmount);\r\n\r\n    }\r\n    \r\n    function _transferToExcluded(address sender, address recipient, uint256 tAmount) internal {\r\n        (uint256 tTransferAmount, uint256 tFee, uint256 tLiquidityFee, uint256 tMarketingWalletFee) = getTValues(tAmount);\r\n        (uint256 rAmount, uint256 rTransferAmount, uint256 rFee, uint256 rLiquidityFee, uint256 rMarketingWalletFee) = getRValues(tAmount, tFee,tLiquidityFee,tMarketingWalletFee);\r\n        _rOwned[sender] = _rOwned[sender].sub(rAmount);\r\n        _tOwned[recipient] = _tOwned[recipient].add(tTransferAmount);\r\n        _rOwned[recipient] = _rOwned[recipient].add(rTransferAmount);           \r\n        takeReflectionFee(rFee, tFee);\r\n        takeLiquidityFee(rLiquidityFee, tLiquidityFee);\r\n        takeMarketingWalletFee(rMarketingWalletFee, tMarketingWalletFee);\r\n        emit Transfer(sender, recipient, tTransferAmount);\r\n    }\r\n\r\n    function _transferFromExcluded(address sender, address recipient, uint256 tAmount) internal {\r\n        (uint256 tTransferAmount, uint256 tFee, uint256 tLiquidityFee, uint256 tMarketingWalletFee) = getTValues(tAmount);\r\n        (uint256 rAmount, uint256 rTransferAmount, uint256 rFee, uint256 rLiquidityFee, uint256 rMarketingWalletFee) = getRValues(tAmount, tFee,tLiquidityFee,tMarketingWalletFee);\r\n        _tOwned[sender] = _tOwned[sender].sub(tAmount);\r\n        _rOwned[sender] = _rOwned[sender].sub(rAmount);\r\n        _rOwned[recipient] = _rOwned[recipient].add(rTransferAmount);   \r\n        takeReflectionFee(rFee, tFee);\r\n        takeLiquidityFee(rLiquidityFee, tLiquidityFee);\r\n        takeMarketingWalletFee(rMarketingWalletFee, tMarketingWalletFee);\r\n        emit Transfer(sender, recipient, tTransferAmount);\r\n    }\r\n\r\n     function withdrawToken(address _tokenContract, uint256 _amount)\r\n        external\r\n        onlyOwner\r\n    {\r\n        require(_tokenContract != address(0), \"Address cant be zero address\");\r\n        IERC20 tokenContract = IERC20(_tokenContract);\r\n        tokenContract.transfer(msg.sender, _amount);\r\n        emit ExternalTokenTransfered(_tokenContract, msg.sender, _amount);\r\n    }\r\n\r\n\r\n    function _beforeTokenTransfer(address from, address to) internal virtual { \r\n    }\r\n}",
  "sourcePath": "E:\\Geetha\\Blockchain\\ENEXT_contract\\contracts\\ExplorationNext.sol",
  "compiler": {
    "name": "solc",
    "version": "0.8.0+commit.c7dfd78e.Emscripten.clang"
  },
  "schemaVersion": "3.4.3",
  "updatedAt": "2021-11-25T05:20:31.196Z",
  "networkType": "ethereum",
  "devdoc": {
    "kind": "dev",
    "methods": {
      "allowance(address,address)": {
        "details": "See {IERC20-allowance}."
      },
      "approve(address,uint256)": {
        "details": "See {IERC20-approve}. Requirements: - `spender` cannot be the zero address."
      },
      "balanceOf(address)": {
        "details": "See {IERC20-balanceOf}."
      },
      "decreaseAllowance(address,uint256)": {
        "details": "Atomically decreases the allowance granted to `spender` by the caller. This is an alternative to {approve} that can be used as a mitigation for problems described in {IERC20-approve}. Emits an {Approval} event indicating the updated allowance. Requirements: - `spender` cannot be the zero address. - `spender` must have allowance for the caller of at least `subtractedValue`."
      },
      "increaseAllowance(address,uint256)": {
        "details": "Atomically increases the allowance granted to `spender` by the caller. This is an alternative to {approve} that can be used as a mitigation for problems described in {IERC20-approve}. Emits an {Approval} event indicating the updated allowance. Requirements: - `spender` cannot be the zero address."
      },
      "owner()": {
        "details": "Returns the address of the current owner."
      },
      "renounceOwnership()": {
        "details": "Leaves the contract without owner. It will not be possible to call `onlyOwner` functions anymore. Can only be called by the current owner. NOTE: Renouncing ownership will leave the contract without an owner, thereby removing any functionality that is only available to the owner."
      },
      "totalSupply()": {
        "details": "See {IERC20-totalSupply}."
      },
      "transfer(address,uint256)": {
        "details": "See {IERC20-transfer}. Requirements: - `recipient` cannot be the zero address. - the caller must have a balance of at least `amount`."
      },
      "transferFrom(address,address,uint256)": {
        "details": "See {IERC20-transferFrom}. Emits an {Approval} event indicating the updated allowance. This is not required by the EIP. See the note at the beginning of {ERC20}. Requirements: - `sender` and `recipient` cannot be the zero address. - `sender` must have a balance of at least `amount`. - the caller must have allowance for ``sender``'s tokens of at least `amount`."
      },
      "transferOwnership(address)": {
        "details": "Transfers ownership of the contract to a new account (`newOwner`). Can only be called by the current owner."
      }
    },
    "version": 1
  },
  "userdoc": {
    "kind": "user",
    "methods": {
      "decimals()": {
        "notice": "Returns the number of decimals "
      },
      "name()": {
        "notice": "Returns the name of the token."
      },
      "symbol()": {
        "notice": "Returns the symbol of the token."
      }
    },
    "version": 1
  }
}