{
  "contractName": "ExplorationNext",
  "abi": [
    {
      "inputs": [],
      "stateMutability": "nonpayable",
      "type": "constructor"
    },
    {
      "anonymous": false,
      "inputs": [
        {
          "indexed": true,
          "internalType": "address",
          "name": "owner",
          "type": "address"
        },
        {
          "indexed": true,
          "internalType": "address",
          "name": "spender",
          "type": "address"
        },
        {
          "indexed": false,
          "internalType": "uint256",
          "name": "value",
          "type": "uint256"
        }
      ],
      "name": "Approval",
      "type": "event"
    },
    {
      "anonymous": false,
      "inputs": [
        {
          "indexed": false,
          "internalType": "address",
          "name": "externalAddress",
          "type": "address"
        },
        {
          "indexed": false,
          "internalType": "address",
          "name": "toAddress",
          "type": "address"
        },
        {
          "indexed": false,
          "internalType": "uint256",
          "name": "amount",
          "type": "uint256"
        }
      ],
      "name": "ExternalTokenTransfered",
      "type": "event"
    },
    {
      "anonymous": false,
      "inputs": [
        {
          "indexed": false,
          "internalType": "bool",
          "name": "enableFee",
          "type": "bool"
        }
      ],
      "name": "FeeEnable",
      "type": "event"
    },
    {
      "anonymous": false,
      "inputs": [
        {
          "indexed": true,
          "internalType": "address",
          "name": "previousOwner",
          "type": "address"
        },
        {
          "indexed": true,
          "internalType": "address",
          "name": "newOwner",
          "type": "address"
        }
      ],
      "name": "OwnershipTransferred",
      "type": "event"
    },
    {
      "anonymous": false,
      "inputs": [
        {
          "indexed": false,
          "internalType": "uint256",
          "name": "maxPercent",
          "type": "uint256"
        }
      ],
      "name": "SetMaxTxPercent",
      "type": "event"
    },
    {
      "anonymous": false,
      "inputs": [
        {
          "indexed": false,
          "internalType": "uint256",
          "name": "taxFeePercent",
          "type": "uint256"
        }
      ],
      "name": "SetTaxFeePercent",
      "type": "event"
    },
    {
      "anonymous": false,
      "inputs": [
        {
          "indexed": true,
          "internalType": "address",
          "name": "from",
          "type": "address"
        },
        {
          "indexed": true,
          "internalType": "address",
          "name": "to",
          "type": "address"
        },
        {
          "indexed": false,
          "internalType": "uint256",
          "name": "value",
          "type": "uint256"
        }
      ],
      "name": "Transfer",
      "type": "event"
    },
    {
      "inputs": [],
      "name": "enableFee",
      "outputs": [
        {
          "internalType": "bool",
          "name": "",
          "type": "bool"
        }
      ],
      "stateMutability": "view",
      "type": "function"
    },
    {
      "inputs": [],
      "name": "owner",
      "outputs": [
        {
          "internalType": "address",
          "name": "",
          "type": "address"
        }
      ],
      "stateMutability": "view",
      "type": "function"
    },
    {
      "inputs": [],
      "name": "renounceOwnership",
      "outputs": [],
      "stateMutability": "nonpayable",
      "type": "function"
    },
    {
      "inputs": [],
      "name": "taxFee",
      "outputs": [
        {
          "internalType": "uint256",
          "name": "",
          "type": "uint256"
        }
      ],
      "stateMutability": "view",
      "type": "function"
    },
    {
      "inputs": [
        {
          "internalType": "address",
          "name": "newOwner",
          "type": "address"
        }
      ],
      "name": "transferOwnership",
      "outputs": [],
      "stateMutability": "nonpayable",
      "type": "function"
    },
    {
      "inputs": [],
      "name": "name",
      "outputs": [
        {
          "internalType": "string",
          "name": "",
          "type": "string"
        }
      ],
      "stateMutability": "view",
      "type": "function"
    },
    {
      "inputs": [],
      "name": "symbol",
      "outputs": [
        {
          "internalType": "string",
          "name": "",
          "type": "string"
        }
      ],
      "stateMutability": "view",
      "type": "function"
    },
    {
      "inputs": [],
      "name": "decimals",
      "outputs": [
        {
          "internalType": "uint8",
          "name": "",
          "type": "uint8"
        }
      ],
      "stateMutability": "view",
      "type": "function"
    },
    {
      "inputs": [],
      "name": "totalSupply",
      "outputs": [
        {
          "internalType": "uint256",
          "name": "",
          "type": "uint256"
        }
      ],
      "stateMutability": "view",
      "type": "function"
    },
    {
      "inputs": [
        {
          "internalType": "address",
          "name": "account",
          "type": "address"
        }
      ],
      "name": "balanceOf",
      "outputs": [
        {
          "internalType": "uint256",
          "name": "",
          "type": "uint256"
        }
      ],
      "stateMutability": "view",
      "type": "function"
    },
    {
      "inputs": [
        {
          "internalType": "address",
          "name": "recipient",
          "type": "address"
        },
        {
          "internalType": "uint256",
          "name": "amount",
          "type": "uint256"
        }
      ],
      "name": "transfer",
      "outputs": [
        {
          "internalType": "bool",
          "name": "",
          "type": "bool"
        }
      ],
      "stateMutability": "nonpayable",
      "type": "function"
    },
    {
      "inputs": [
        {
          "internalType": "address",
          "name": "owner",
          "type": "address"
        },
        {
          "internalType": "address",
          "name": "spender",
          "type": "address"
        }
      ],
      "name": "allowance",
      "outputs": [
        {
          "internalType": "uint256",
          "name": "",
          "type": "uint256"
        }
      ],
      "stateMutability": "view",
      "type": "function"
    },
    {
      "inputs": [
        {
          "internalType": "address",
          "name": "spender",
          "type": "address"
        },
        {
          "internalType": "uint256",
          "name": "amount",
          "type": "uint256"
        }
      ],
      "name": "approve",
      "outputs": [
        {
          "internalType": "bool",
          "name": "",
          "type": "bool"
        }
      ],
      "stateMutability": "nonpayable",
      "type": "function"
    },
    {
      "inputs": [
        {
          "internalType": "address",
          "name": "sender",
          "type": "address"
        },
        {
          "internalType": "address",
          "name": "recipient",
          "type": "address"
        },
        {
          "internalType": "uint256",
          "name": "amount",
          "type": "uint256"
        }
      ],
      "name": "transferFrom",
      "outputs": [
        {
          "internalType": "bool",
          "name": "",
          "type": "bool"
        }
      ],
      "stateMutability": "nonpayable",
      "type": "function"
    },
    {
      "inputs": [
        {
          "internalType": "address",
          "name": "spender",
          "type": "address"
        },
        {
          "internalType": "uint256",
          "name": "addedValue",
          "type": "uint256"
        }
      ],
      "name": "increaseAllowance",
      "outputs": [
        {
          "internalType": "bool",
          "name": "",
          "type": "bool"
        }
      ],
      "stateMutability": "nonpayable",
      "type": "function"
    },
    {
      "inputs": [
        {
          "internalType": "address",
          "name": "spender",
          "type": "address"
        },
        {
          "internalType": "uint256",
          "name": "subtractedValue",
          "type": "uint256"
        }
      ],
      "name": "decreaseAllowance",
      "outputs": [
        {
          "internalType": "bool",
          "name": "",
          "type": "bool"
        }
      ],
      "stateMutability": "nonpayable",
      "type": "function"
    },
    {
      "inputs": [],
      "name": "totalFees",
      "outputs": [
        {
          "internalType": "uint256",
          "name": "",
          "type": "uint256"
        }
      ],
      "stateMutability": "view",
      "type": "function"
    },
    {
      "inputs": [
        {
          "internalType": "uint256",
          "name": "rAmount",
          "type": "uint256"
        }
      ],
      "name": "tokenFromReflection",
      "outputs": [
        {
          "internalType": "uint256",
          "name": "",
          "type": "uint256"
        }
      ],
      "stateMutability": "view",
      "type": "function"
    },
    {
      "inputs": [
        {
          "internalType": "address",
          "name": "account",
          "type": "address"
        }
      ],
      "name": "excludeFromReward",
      "outputs": [],
      "stateMutability": "nonpayable",
      "type": "function"
    },
    {
      "inputs": [
        {
          "internalType": "address",
          "name": "account",
          "type": "address"
        }
      ],
      "name": "includeInReward",
      "outputs": [],
      "stateMutability": "nonpayable",
      "type": "function"
    },
    {
      "inputs": [
        {
          "internalType": "address",
          "name": "account",
          "type": "address"
        }
      ],
      "name": "isExcludedFromReward",
      "outputs": [
        {
          "internalType": "bool",
          "name": "",
          "type": "bool"
        }
      ],
      "stateMutability": "view",
      "type": "function"
    },
    {
      "inputs": [
        {
          "internalType": "uint256",
          "name": "fee",
          "type": "uint256"
        }
      ],
      "name": "setTaxFeePercent",
      "outputs": [],
      "stateMutability": "nonpayable",
      "type": "function"
    },
    {
      "inputs": [
        {
          "internalType": "bool",
          "name": "enableTax",
          "type": "bool"
        }
      ],
      "name": "setEnableFee",
      "outputs": [],
      "stateMutability": "nonpayable",
      "type": "function"
    },
    {
      "inputs": [
        {
          "internalType": "address",
          "name": "_tokenContract",
          "type": "address"
        },
        {
          "internalType": "uint256",
          "name": "_amount",
          "type": "uint256"
        }
      ],
      "name": "withdrawToken",
      "outputs": [],
      "stateMutability": "nonpayable",
      "type": "function"
    }
  ],
  "bytecode": "0x60806040526b01401e70099fcb3a6300000060068190556200002490600019620001aa565b62000032906000196200016d565b6007556002600955600954600a553480156200004d57600080fd5b50620000746200006564010000000062000110810204565b64010000000062000114810204565b600754600160006200008e64010000000062000110810204565b600160a060020a03168152602081019190915260400160002055620000bb64010000000062000110810204565b600160a060020a03166000600160a060020a03167fddf252ad1be2c89b69c2b068fc378daa952ba7f163c4a11628f55a4df523b3ef60065460405162000102919062000164565b60405180910390a3620001e4565b3390565b60008054600160a060020a03838116600160a060020a0319831681178455604051919092169283917f8be0079c531659141344cd1fd0a4f28419497f9722a3daafe3b4186f6b6457e09190a35050565b90815260200190565b600082821015620001a5577f4e487b710000000000000000000000000000000000000000000000000000000081526011600452602481fd5b500390565b600082620001df577f4e487b710000000000000000000000000000000000000000000000000000000081526012600452602481fd5b500690565b611caa80620001f46000396000f3fe608060405234801561001057600080fd5b5060043610610175576000357c01000000000000000000000000000000000000000000000000000000009004806370a08231116100e0578063a071dcf411610099578063a071dcf4146102c4578063a457c2d7146102cc578063a9059cbb146102df578063d8e00271146102f2578063dd62ed3e14610305578063f2fde38b1461031857610175565b806370a0823114610266578063715018a61461027957806388f82020146102815780638da5cb5b1461029457806395d89b41146102a95780639e281a98146102b157610175565b80632d838119116101325780632d838119146101fd57806330d2091d14610210578063313ce567146102185780633685d4191461022d578063395093511461024057806352390c021461025357610175565b8063061c82d01461017a57806306fdde031461018f578063095ea7b3146101ad57806313114a9d146101cd57806318160ddd146101e257806323b872dd146101ea575b600080fd5b61018d610188366004611667565b61032b565b005b6101976103b6565b6040516101a491906116db565b60405180910390f35b6101c06101bb366004611606565b6103ed565b6040516101a491906116d0565b6101d561040a565b6040516101a49190611baa565b6101d5610410565b6101c06101f83660046115cb565b610427565b6101d561020b366004611667565b6104c1565b6101c0610507565b610220610510565b6040516101a49190611bb3565b61018d61023b36600461157f565b610515565b6101c061024e366004611606565b610716565b61018d61026136600461157f565b610765565b6101d561027436600461157f565b6108b0565b61018d610918565b6101c061028f36600461157f565b610966565b61029c610984565b6040516101a4919061167f565b610197610993565b61018d6102bf366004611606565b6109ca565b6101d5610b11565b6101c06102da366004611606565b610b17565b6101c06102ed366004611606565b610b93565b61018d61030036600461162f565b610ba7565b6101d5610313366004611599565b610c27565b61018d61032636600461157f565b610c52565b610333610cc9565b600160a060020a0316610344610984565b600160a060020a0316146103765760405160e560020a62461bcd02815260040161036d906119ca565b60405180910390fd5b60098190556040517f19da908cae03512cf29c19a5842b2904a06fd24ef9982759c78f9379831ed70f906103ab908390611baa565b60405180910390a150565b60408051808201909152600f81527f4578706c6f726174696f6e4e6578740000000000000000000000000000000000602082015290565b60006104016103fa610cc9565b8484610ccd565b50600192915050565b60085490565b6000600c546006546104229190611c1b565b905090565b6000610434848484610d87565b600160a060020a038416600090815260036020526040812081610455610cc9565b600160a060020a0316600160a060020a031681526020019081526020016000205490508281101561049b5760405160e560020a62461bcd02815260040161036d9061196d565b6104b6856104a7610cc9565b6104b18685611c1b565b610ccd565b506001949350505050565b60006007548211156104e85760405160e560020a62461bcd02815260040161036d9061178b565b60006104f2610e5a565b90506104fe8382610e7d565b9150505b919050565b600b5460ff1681565b601290565b61051d610cc9565b600160a060020a031661052e610984565b600160a060020a0316146105575760405160e560020a62461bcd02815260040161036d906119ca565b600160a060020a03811660009081526004602052604090205460ff166105925760405160e560020a62461bcd02815260040161036d906118ff565b60005b6005548110156107125781600160a060020a0316600582815481106105cd5760e060020a634e487b7102600052603260045260246000fd5b600091825260209091200154600160a060020a0316141561070057600580546105f890600190611c1b565b815481106106195760e060020a634e487b7102600052603260045260246000fd5b60009182526020909120015460058054600160a060020a0390921691839081106106565760e060020a634e487b7102600052603260045260246000fd5b6000918252602080832091909101805473ffffffffffffffffffffffffffffffffffffffff1916600160a060020a039485161790559184168152600282526040808220829055600490925220805460ff1916905560058054806106cc5760e060020a634e487b7102600052603160045260246000fd5b6000828152602090208101600019908101805473ffffffffffffffffffffffffffffffffffffffff19169055019055610712565b8061070a81611c32565b915050610595565b5050565b6000610401610723610cc9565b848460036000610731610cc9565b600160a060020a03908116825260208083019390935260409182016000908120918b16815292529020546104b19190611bc1565b61076d610cc9565b600160a060020a031661077e610984565b600160a060020a0316146107a75760405160e560020a62461bcd02815260040161036d906119ca565b600160a060020a03811660009081526004602052604090205460ff16156107e35760405160e560020a62461bcd02815260040161036d90611936565b600160a060020a0381166000908152600160205260409020541561083d57600160a060020a038116600090815260016020526040902054610823906104c1565b600160a060020a0382166000908152600260205260409020555b600160a060020a03166000818152600460205260408120805460ff191660019081179091556005805491820181559091527f036b6384b5eca791c62761152d0c79bb0604c104a5fb6f4eb0703f3154bb3db001805473ffffffffffffffffffffffffffffffffffffffff19169091179055565b600160a060020a03811660009081526004602052604081205460ff16156108f05750600160a060020a038116600090815260026020526040902054610502565b600160a060020a038216600090815260016020526040902054610912906104c1565b92915050565b610920610cc9565b600160a060020a0316610931610984565b600160a060020a03161461095a5760405160e560020a62461bcd02815260040161036d906119ca565b6109646000610e90565b565b600160a060020a031660009081526004602052604090205460ff1690565b600054600160a060020a031690565b60408051808201909152600581527f454e455854000000000000000000000000000000000000000000000000000000602082015290565b6109d2610cc9565b600160a060020a03166109e3610984565b600160a060020a031614610a0c5760405160e560020a62461bcd02815260040161036d906119ca565b600160a060020a038216610a355760405160e560020a62461bcd02815260040161036d90611a5c565b6040517fa9059cbb0000000000000000000000000000000000000000000000000000000081528290600160a060020a0382169063a9059cbb90610a7e90339086906004016116b7565b602060405180830381600087803b158015610a9857600080fd5b505af1158015610aac573d6000803e3d6000fd5b505050506040513d601f19601f82011682018060405250810190610ad0919061164b565b507f5c5578c78fc9b87943279247ef36abf638b9551372bb769b5d87d1ae6a31be64833384604051610b0493929190611693565b60405180910390a1505050565b60095481565b60008060036000610b26610cc9565b600160a060020a0390811682526020808301939093526040918201600090812091881681529252902054905082811015610b755760405160e560020a62461bcd02815260040161036d90611b4d565b610b89610b80610cc9565b85858403610ccd565b5060019392505050565b6000610401610ba0610cc9565b8484610d87565b610baf610cc9565b600160a060020a0316610bc0610984565b600160a060020a031614610be95760405160e560020a62461bcd02815260040161036d906119ca565b600b805460ff19168215151790556040517fd93972947b6f619cc048053ab8874f9f4fc05ac3e2e41a2c689a1e520066750f906103ab9083906116d0565b600160a060020a03918216600090815260036020908152604080832093909416825291909152205490565b610c5a610cc9565b600160a060020a0316610c6b610984565b600160a060020a031614610c945760405160e560020a62461bcd02815260040161036d906119ca565b600160a060020a038116610cbd5760405160e560020a62461bcd02815260040161036d906117e8565b610cc681610e90565b50565b3390565b600160a060020a038316610cf65760405160e560020a62461bcd02815260040161036d90611af0565b600160a060020a038216610d1f5760405160e560020a62461bcd02815260040161036d90611845565b600160a060020a0380841660008181526003602090815260408083209487168084529490915290819020849055517f8c5be1e5ebec7d5bd14f71427d1e84f3dd0314c0f7b2291e5b200ac8c7c3b92590610d7a908590611baa565b60405180910390a3505050565b600160a060020a038316610db05760405160e560020a62461bcd02815260040161036d90611a93565b600160a060020a038216610dd95760405160e560020a62461bcd02815260040161036d9061172e565b60008111610dfc5760405160e560020a62461bcd02815260040161036d906119ff565b610e068383610712565b6000610e11846108b0565b905081811015610e365760405160e560020a62461bcd02815260040161036d906118a2565b600b5460019060ff16610e47575060005b610e5385858584610eed565b5050505050565b6000806000610e6761100f565b9092509050610e768282610e7d565b9250505090565b6000610e898284611bd9565b9392505050565b60008054600160a060020a0383811673ffffffffffffffffffffffffffffffffffffffff19831681178455604051919092169283917f8be0079c531659141344cd1fd0a4f28419497f9722a3daafe3b4186f6b6457e09190a35050565b80610efa57610efa6111d8565b600160a060020a03841660009081526004602052604090205460ff168015610f3b5750600160a060020a03831660009081526004602052604090205460ff16155b15610f5057610f4b8484846111f1565b610ffc565b600160a060020a03841660009081526004602052604090205460ff16158015610f915750600160a060020a03831660009081526004602052604090205460ff165b15610fa157610f4b848484611311565b600160a060020a03841660009081526004602052604090205460ff168015610fe15750600160a060020a03831660009081526004602052604090205460ff165b15610ff157610f4b8484846113c0565b610ffc848484611439565b8061100957611009611483565b50505050565b6007546006546000918291825b6005548110156111a65782600160006005848154811061104f5760e060020a634e487b7102600052603260045260246000fd5b6000918252602080832090910154600160a060020a0316835282019290925260400190205411806110cb57508160026000600584815481106110a45760e060020a634e487b7102600052603260045260246000fd5b6000918252602080832090910154600160a060020a03168352820192909252604001902054115b156110e257600754600654945094505050506111d4565b611139600160006005848154811061110d5760e060020a634e487b7102600052603260045260246000fd5b6000918252602080832090910154600160a060020a03168352820192909252604001902054849061148b565b925061119260026000600584815481106111665760e060020a634e487b7102600052603260045260246000fd5b6000918252602080832090910154600160a060020a03168352820192909252604001902054839061148b565b91508061119e81611c32565b91505061101c565b506006546007546111b691610e7d565b8210156111ce576007546006549350935050506111d4565b90925090505b9091565b6009546111e457610964565b60098054600a5560009055565b6000806111fd83611497565b91509150600080600061121086856114bf565b600160a060020a038b16600090815260026020526040902054929550909350915061123b908761148b565b600160a060020a03891660009081526002602090815260408083209390935560019052205461126a908461148b565b600160a060020a03808a166000908152600160205260408082209390935590891681522054611299908361150a565b600160a060020a0388166000908152600160205260409020556112bc8185611516565b86600160a060020a031688600160a060020a03167fddf252ad1be2c89b69c2b068fc378daa952ba7f163c4a11628f55a4df523b3ef876040516112ff9190611baa565b60405180910390a35050505050505050565b60008061131d83611497565b91509150600080600061133086856114bf565b600160a060020a038b16600090815260016020526040902054929550909350915061135b908461148b565b600160a060020a03808a16600090815260016020908152604080832094909455918a16815260029091522054611391908661150a565b600160a060020a038816600090815260026020908152604080832093909355600190522054611299908361150a565b6000806113cc83611497565b9150915060008060006113df86856114bf565b600160a060020a038b16600090815260026020526040902054929550909350915061140a908761148b565b600160a060020a03891660009081526002602090815260408083209390935560019052205461135b908461148b565b60008061144583611497565b91509150600080600061145886856114bf565b600160a060020a038b16600090815260016020526040902054929550909350915061126a908461148b565b600a54600955565b6000610e898284611c1b565b60008082816114a58261153a565b905060006114b3838361148b565b94509092505050915091565b6000806000806114cd610e5a565b90508560006114dc828461155c565b905060006114ea888561155c565b905060006114f8838361148b565b92975091955093505050509250925092565b6000610e898284611bc1565b600754611523908361148b565b600755600854611533908261150a565b6008555050565b600061091260646115566009548561155c90919063ffffffff16565b90610e7d565b6000610e898284611bfc565b8035600160a060020a038116811461050257600080fd5b600060208284031215611590578081fd5b610e8982611568565b600080604083850312156115ab578081fd5b6115b483611568565b91506115c260208401611568565b90509250929050565b6000806000606084860312156115df578081fd5b6115e884611568565b92506115f660208501611568565b9150604084013590509250925092565b60008060408385031215611618578182fd5b61162183611568565b946020939093013593505050565b600060208284031215611640578081fd5b8135610e8981611c66565b60006020828403121561165c578081fd5b8151610e8981611c66565b600060208284031215611678578081fd5b5035919050565b600160a060020a0391909116815260200190565b600160a060020a039384168152919092166020820152604081019190915260600190565b600160a060020a03929092168252602082015260400190565b901515815260200190565b6000602080835283518082850152825b81811015611707578581018301518582016040015282016116eb565b818111156117185783604083870101525b50601f01601f1916929092016040019392505050565b60208082526023908201527f45524332303a207472616e7366657220746f20746865207a65726f206164647260408201527f6573730000000000000000000000000000000000000000000000000000000000606082015260800190565b6020808252602a908201527f416d6f756e74206d757374206265206c657373207468616e20746f74616c207260408201527f65666c656374696f6e7300000000000000000000000000000000000000000000606082015260800190565b60208082526026908201527f4f776e61626c653a206e6577206f776e657220697320746865207a65726f206160408201527f6464726573730000000000000000000000000000000000000000000000000000606082015260800190565b60208082526022908201527f45524332303a20617070726f766520746f20746865207a65726f20616464726560408201527f7373000000000000000000000000000000000000000000000000000000000000606082015260800190565b60208082526026908201527f45524332303a207472616e7366657220616d6f756e742065786365656473206260408201527f616c616e63650000000000000000000000000000000000000000000000000000606082015260800190565b60208082526017908201527f4163636f756e74206973206e6f74206578636c75646564000000000000000000604082015260600190565b6020808252601b908201527f4163636f756e7420697320616c726561647920696e636c756465640000000000604082015260600190565b60208082526028908201527f45524332303a207472616e7366657220616d6f756e742065786365656473206160408201527f6c6c6f77616e6365000000000000000000000000000000000000000000000000606082015260800190565b6020808252818101527f4f776e61626c653a2063616c6c6572206973206e6f7420746865206f776e6572604082015260600190565b60208082526029908201527f5472616e7366657220616d6f756e74206d75737420626520677265617465722060408201527f7468616e207a65726f0000000000000000000000000000000000000000000000606082015260800190565b6020808252601c908201527f416464726573732063616e74206265207a65726f206164647265737300000000604082015260600190565b60208082526025908201527f45524332303a207472616e736665722066726f6d20746865207a65726f20616460408201527f6472657373000000000000000000000000000000000000000000000000000000606082015260800190565b60208082526024908201527f45524332303a20617070726f76652066726f6d20746865207a65726f2061646460408201527f7265737300000000000000000000000000000000000000000000000000000000606082015260800190565b60208082526025908201527f45524332303a2064656372656173656420616c6c6f77616e63652062656c6f7760408201527f207a65726f000000000000000000000000000000000000000000000000000000606082015260800190565b90815260200190565b60ff91909116815260200190565b60008219821115611bd457611bd4611c4d565b500190565b600082611bf75760e060020a634e487b710281526012600452602481fd5b500490565b6000816000190483118215151615611c1657611c16611c4d565b500290565b600082821015611c2d57611c2d611c4d565b500390565b6000600019821415611c4657611c46611c4d565b5060010190565b60e060020a634e487b7102600052601160045260246000fd5b8015158114610cc657600080fdfea264697066735822122003c903708ffa82c81387b5e25e1e5fe259f6a0ba14f54298b57f09275bfa677f64736f6c63430008000033",
  "immutableReferences": {},
  "source": "// SPDX-License-Identifier: MIT\r\npragma solidity ^0.8.0;\r\n\r\nimport \"@openzeppelin/contracts/token/ERC20/extensions/IERC20Metadata.sol\";\r\nimport \"@openzeppelin/contracts/token/ERC20/IERC20.sol\";\r\nimport \"@openzeppelin/contracts/utils/Context.sol\";\r\nimport \"@openzeppelin/contracts/access/Ownable.sol\";\r\nimport \"@openzeppelin/contracts/utils/Address.sol\";\r\nimport \"@openzeppelin/contracts/utils/math/SafeMath.sol\";\r\n\r\ncontract ExplorationNext is Context, IERC20, IERC20Metadata, Ownable {\r\n    using SafeMath for uint256;\r\n    using Address for address;\r\n\r\n    mapping (address => uint256) private _rOwned;\r\n    mapping (address => uint256) private _tOwned;\r\n    mapping (address => mapping (address => uint256)) private _allowances;\r\n    mapping (address => bool) private _isExcluded;\r\n    address[] private _excluded;\r\n   \r\n    uint256 private constant MAX = ~uint256(0);\r\n    uint256 private _tTotal = 387000000  * 10**18;\r\n    uint256 private _rTotal = (MAX - (MAX % _tTotal));\r\n    uint256 private _tFeeTotal;\r\n\r\n    string private constant _name = \"ExplorationNext\";\r\n    string private constant _symbol = \"ENEXT\";\r\n    uint8 private constant _decimals = 18;\r\n    \r\n    uint256 public taxFee = 2;\r\n    uint256 private previousTaxFee = taxFee;\r\n\r\n    bool public enableFee;\r\n \r\n    uint256 private _amount_burnt;\r\n\r\n    event FeeEnable(bool enableFee);\r\n    event SetMaxTxPercent(uint256 maxPercent);\r\n    event SetTaxFeePercent(uint256 taxFeePercent);\r\n    event ExternalTokenTransfered(address externalAddress,address toAddress, uint amount);\r\n\r\n    constructor () {\r\n        _rOwned[_msgSender()] = _rTotal;\r\n        emit Transfer(address(0), _msgSender(), _tTotal);     \r\n    }\r\n\r\n    /**\r\n     * @dev Returns the name of the token.\r\n     */\r\n    function name() external view virtual override returns (string memory) {\r\n        return _name;\r\n    }\r\n\r\n    /**\r\n     * @dev Returns the symbol of the token, usually a shorter version of the\r\n     * name.\r\n     */\r\n    function symbol() external view virtual override returns (string memory) {\r\n        return _symbol;\r\n    }\r\n\r\n    /**\r\n     * @dev Returns the number of decimals used to get its user representation.\r\n     * For example, if `decimals` equals `2`, a balance of `505` tokens should\r\n     * be displayed to a user as `5,05` (`505 / 10 ** 2`).\r\n     *\r\n     * Tokens usually opt for a value of 18, imitating the relationship between\r\n     * Ether and Wei. This is the value {ERC20} uses, unless this function is\r\n     * overridden;\r\n     *\r\n     * NOTE: This information is only used for _display_ purposes: it in\r\n     * no way affects any of the arithmetic of the contract, including\r\n     * {IERC20-balanceOf} and {IERC20-transfer}.\r\n     */\r\n    function decimals() external view virtual override returns (uint8) {\r\n        return _decimals;\r\n    }\r\n\r\n    /**\r\n     * @dev See {IERC20-totalSupply}.\r\n     */\r\n    function totalSupply() external view virtual override returns (uint256) {\r\n        return _tTotal - _amount_burnt;\r\n    }\r\n\r\n    /**\r\n     * @dev See {IERC20-balanceOf}.\r\n     */\r\n    function balanceOf(address account) public view virtual override returns (uint256) {\r\n        if (_isExcluded[account]) return _tOwned[account];\r\n        return tokenFromReflection(_rOwned[account]);\r\n    }\r\n\r\n    /**\r\n     * @dev See {IERC20-transfer}.\r\n     *\r\n     * Requirements:\r\n     *\r\n     * - `recipient` cannot be the zero address.\r\n     * - the caller must have a balance of at least `amount`.\r\n     */\r\n    function transfer(address recipient, uint256 amount) external virtual override returns (bool) {\r\n        _transfer(_msgSender(), recipient, amount);\r\n        return true;\r\n    }\r\n\r\n    /**\r\n     * @dev See {IERC20-allowance}.\r\n     */\r\n    function allowance(address owner, address spender) external view virtual override returns (uint256) {\r\n        return _allowances[owner][spender];\r\n    }\r\n\r\n    /**\r\n     * @dev See {IERC20-approve}.\r\n     *\r\n     * Requirements:\r\n     *\r\n     * - `spender` cannot be the zero address.\r\n     */\r\n    function approve(address spender, uint256 amount) external virtual override returns (bool) {\r\n        _approve(_msgSender(), spender, amount);\r\n        return true;\r\n    }\r\n\r\n    /**\r\n     * @dev See {IERC20-transferFrom}.\r\n     *\r\n     * Emits an {Approval} event indicating the updated allowance. This is not\r\n     * required by the EIP. See the note at the beginning of {ERC20}.\r\n     *\r\n     * Requirements:\r\n     *\r\n     * - `sender` and `recipient` cannot be the zero address.\r\n     * - `sender` must have a balance of at least `amount`.\r\n     * - the caller must have allowance for ``sender``'s tokens of at least\r\n     * `amount`.\r\n     */\r\n    function transferFrom(address sender, address recipient, uint256 amount) external virtual override returns (bool) {\r\n        _transfer(sender, recipient, amount);\r\n\r\n        uint256 currentAllowance = _allowances[sender][_msgSender()];\r\n        require(currentAllowance >= amount, \"ERC20: transfer amount exceeds allowance\");\r\n        _approve(sender, _msgSender(), currentAllowance - amount);\r\n\r\n        return true;\r\n    }\r\n\r\n    /**\r\n     * @dev Atomically increases the allowance granted to `spender` by the caller.\r\n     *\r\n     * This is an alternative to {approve} that can be used as a mitigation for\r\n     * problems described in {IERC20-approve}.\r\n     *\r\n     * Emits an {Approval} event indicating the updated allowance.\r\n     *\r\n     * Requirements:\r\n     *\r\n     * - `spender` cannot be the zero address.\r\n     */\r\n    function increaseAllowance(address spender, uint256 addedValue) external virtual returns (bool) {\r\n        _approve(_msgSender(), spender, _allowances[_msgSender()][spender] + addedValue);\r\n        return true;\r\n    }\r\n\r\n    /**\r\n     * @dev Atomically decreases the allowance granted to `spender` by the caller.\r\n     *\r\n     * This is an alternative to {approve} that can be used as a mitigation for\r\n     * problems described in {IERC20-approve}.\r\n     *\r\n     * Emits an {Approval} event indicating the updated allowance.\r\n     *\r\n     * Requirements:\r\n     *\r\n     * - `spender` cannot be the zero address.\r\n     * - `spender` must have allowance for the caller of at least\r\n     * `subtractedValue`.\r\n     */\r\n    function decreaseAllowance(address spender, uint256 subtractedValue) external virtual returns (bool) {\r\n        uint256 currentAllowance = _allowances[_msgSender()][spender];\r\n        require(currentAllowance >= subtractedValue, \"ERC20: decreased allowance below zero\");\r\n        unchecked {\r\n            _approve(_msgSender(), spender, currentAllowance - subtractedValue);\r\n        }\r\n\r\n        return true;\r\n    }\r\n\r\n    function totalFees() external view returns (uint256) {\r\n        return _tFeeTotal;\r\n    }\r\n\r\n    function tokenFromReflection(uint256 rAmount) public view returns(uint256) {\r\n        require(rAmount <= _rTotal, \"Amount must be less than total reflections\");\r\n        uint256 currentRate =  getRate();\r\n        return rAmount.div(currentRate);\r\n    }\r\n\r\n    function excludeFromReward(address account) public onlyOwner {\r\n        require(!_isExcluded[account], \"Account is already included\");\r\n        if(_rOwned[account] > 0) {\r\n            _tOwned[account] = tokenFromReflection(_rOwned[account]);\r\n        }\r\n        _isExcluded[account] = true;\r\n        _excluded.push(account);\r\n    }\r\n\r\n    function includeInReward(address account) public onlyOwner {\r\n        require(_isExcluded[account], \"Account is not excluded\");\r\n        for (uint256 i = 0; i < _excluded.length; i++) {\r\n            if (_excluded[i] == account) {\r\n                _excluded[i] = _excluded[_excluded.length - 1];\r\n                _tOwned[account] = 0;\r\n                _isExcluded[account] = false;\r\n                _excluded.pop();\r\n                break;\r\n            }\r\n        }\r\n    }\r\n\r\n    function isExcludedFromReward(address account) external view returns (bool) {\r\n        return _isExcluded[account];\r\n    }\r\n    \r\n    function setTaxFeePercent(uint256 fee) external onlyOwner {\r\n        taxFee = fee;\r\n        emit SetTaxFeePercent(taxFee);\r\n    }\r\n\r\n    function setEnableFee(bool enableTax) external onlyOwner {\r\n        enableFee = enableTax;\r\n        emit FeeEnable(enableTax);\r\n    }\r\n\r\n    function takeReflectionFee(uint256 rFee, uint256 tFee) internal {\r\n        _rTotal = _rTotal.sub(rFee);\r\n        _tFeeTotal = _tFeeTotal.add(tFee);\r\n    }\r\n\r\n    function getTValues(uint256 amount) internal view returns (uint256, uint256) {\r\n        uint256 tAmount = amount;\r\n        uint256 tFee = calculateTaxFee(tAmount);\r\n        uint256 tTransferAmount = tAmount.sub(tFee);\r\n        return (tTransferAmount, tFee);\r\n    }\r\n\r\n    function getRValues(uint256 amount, uint256 tFee) internal view returns (uint256, uint256, uint256) {\r\n        uint256 currentRate = getRate();\r\n        uint256 tAmount = amount;\r\n        uint256 rAmount = tAmount.mul(currentRate);\r\n        uint256 rFee = tFee.mul(currentRate);\r\n        uint256 rTransferAmount = rAmount.sub(rFee);\r\n        return (rAmount, rTransferAmount, rFee);\r\n    }\r\n\r\n    function getRate() internal view returns(uint256) {\r\n        (uint256 rSupply, uint256 tSupply) = getCurrentSupply();\r\n        return rSupply.div(tSupply);\r\n    }\r\n\r\n    function getCurrentSupply() internal view returns(uint256, uint256) {\r\n        uint256 rSupply = _rTotal;\r\n        uint256 tSupply = _tTotal;      \r\n        for (uint256 i = 0; i < _excluded.length; i++) {\r\n            if (_rOwned[_excluded[i]] > rSupply || _tOwned[_excluded[i]] > tSupply) return (_rTotal, _tTotal);\r\n            rSupply = rSupply.sub(_rOwned[_excluded[i]]);\r\n            tSupply = tSupply.sub(_tOwned[_excluded[i]]);\r\n        }\r\n        if (rSupply < _rTotal.div(_tTotal)) return (_rTotal, _tTotal);\r\n        return (rSupply, tSupply);\r\n    }\r\n    \r\n    function calculateTaxFee(uint256 _amount) internal view returns (uint256) {\r\n        return _amount.mul(taxFee).div(\r\n            10**2\r\n        );\r\n    }\r\n    \r\n    function removeAllFee() internal {\r\n        if(taxFee == 0) return;\r\n        \r\n        previousTaxFee = taxFee;\r\n        \r\n        taxFee = 0;\r\n    }\r\n \r\n    function restoreAllFee() internal {\r\n        taxFee = previousTaxFee;\r\n    }\r\n\r\n    /**\r\n     * @dev Sets `amount` as the allowance of `spender` over the `owner` s tokens.\r\n     *\r\n     * This internal function is equivalent to `approve`, and can be used to\r\n     * e.g. set automatic allowances for certain subsystems, etc.\r\n     *\r\n     * Emits an {Approval} event.\r\n     *\r\n     * Requirements:\r\n     *\r\n     * - `owner` cannot be the zero address.\r\n     * - `spender` cannot be the zero address.\r\n     */\r\n    function _approve(address owner, address spender, uint256 amount) internal virtual {\r\n        require(owner != address(0), \"ERC20: approve from the zero address\");\r\n        require(spender != address(0), \"ERC20: approve to the zero address\");\r\n\r\n        _allowances[owner][spender] = amount;\r\n        emit Approval(owner, spender, amount);\r\n    }\r\n\r\n    /**\r\n     * @dev Moves tokens `amount` from `sender` to `recipient`.\r\n     *\r\n     * This is internal function is equivalent to {transfer}, and can be used to\r\n     * e.g. implement automatic token fees, slashing mechanisms, etc.\r\n     *\r\n     * Emits a {Transfer} event.\r\n     *\r\n     * Requirements:\r\n     *\r\n     * - `sender` cannot be the zero address.\r\n     * - `recipient` cannot be the zero address.\r\n     * - `sender` must have a balance of at least `amount`.\r\n     */\r\n    function _transfer(\r\n        address from,\r\n        address to,\r\n        uint256 amount\r\n    ) internal {\r\n        require(from != address(0), \"ERC20: transfer from the zero address\");\r\n        require(to != address(0), \"ERC20: transfer to the zero address\");\r\n        require(amount > 0, \"Transfer amount must be greater than zero\");\r\n        \r\n        _beforeTokenTransfer(from, to);\r\n        \r\n        uint256 senderBalance = balanceOf(from);\r\n        require(senderBalance >= amount, \"ERC20: transfer amount exceeds balance\");\r\n\r\n        //indicates if fee should be deducted from transfer\r\n        bool takeFee = true;\r\n        \r\n        //if any account belongs to _isIncludedInFee account then take fee\r\n        //else remove fee\r\n        if(!enableFee){\r\n            takeFee = false;\r\n        }\r\n         \r\n         //transfer amount, it will take tax, burn and charity amount\r\n        _tokenTransfer(from,to,amount,takeFee);\r\n    }\r\n\r\n    //this method is responsible for taking all fee, if takeFee is true\r\n    function _tokenTransfer(address sender, address recipient, uint256 amount,bool takeFee) internal {\r\n        if(!takeFee)\r\n            removeAllFee();\r\n        \r\n        if (_isExcluded[sender] && !_isExcluded[recipient]) {\r\n            _transferFromExcluded(sender, recipient, amount);\r\n        } else if (!_isExcluded[sender] && _isExcluded[recipient]) {\r\n            _transferToExcluded(sender, recipient, amount);\r\n        } else if (_isExcluded[sender] && _isExcluded[recipient]) {\r\n            _transferBothExcluded(sender, recipient, amount);\r\n        } else {\r\n            _transferStandard(sender, recipient, amount);\r\n        }\r\n        \r\n        if(!takeFee)\r\n            restoreAllFee();\r\n    }\r\n  \r\n    function _transferStandard(address sender, address recipient, uint256 tAmount) internal {\r\n        (uint256 tTransferAmount, uint256 tFee) = getTValues(tAmount);\r\n        (uint256 rAmount, uint256 rTransferAmount, uint256 rFee) = getRValues(tAmount, tFee);\r\n\r\n        _rOwned[sender] = _rOwned[sender].sub(rAmount);\r\n        _rOwned[recipient] = _rOwned[recipient].add(rTransferAmount);\r\n        takeReflectionFee(rFee, tFee);\r\n        emit Transfer(sender, recipient, tTransferAmount);\r\n    }\r\n    \r\n    function _transferBothExcluded(address sender, address recipient, uint256 tAmount) internal {\r\n        (uint256 tTransferAmount, uint256 tFee) = getTValues(tAmount);\r\n        (uint256 rAmount, uint256 rTransferAmount, uint256 rFee) = getRValues(tAmount, tFee);\r\n        _tOwned[sender] = _tOwned[sender].sub(tAmount);\r\n        _rOwned[sender] = _rOwned[sender].sub(rAmount);\r\n        _tOwned[recipient] = _tOwned[recipient].add(tTransferAmount);\r\n        _rOwned[recipient] = _rOwned[recipient].add(rTransferAmount);        \r\n        takeReflectionFee(rFee, tFee);\r\n        emit Transfer(sender, recipient, tTransferAmount);\r\n    }\r\n    \r\n    function _transferToExcluded(address sender, address recipient, uint256 tAmount) internal {\r\n        (uint256 tTransferAmount, uint256 tFee) = getTValues(tAmount);\r\n        (uint256 rAmount, uint256 rTransferAmount, uint256 rFee) = getRValues(tAmount, tFee);\r\n        _rOwned[sender] = _rOwned[sender].sub(rAmount);\r\n        _tOwned[recipient] = _tOwned[recipient].add(tTransferAmount);\r\n        _rOwned[recipient] = _rOwned[recipient].add(rTransferAmount);           \r\n        takeReflectionFee(rFee, tFee);\r\n        emit Transfer(sender, recipient, tTransferAmount);\r\n    }\r\n\r\n    function _transferFromExcluded(address sender, address recipient, uint256 tAmount) internal {\r\n        (uint256 tTransferAmount, uint256 tFee) = getTValues(tAmount);\r\n        (uint256 rAmount, uint256 rTransferAmount, uint256 rFee) = getRValues(tAmount, tFee);\r\n        _tOwned[sender] = _tOwned[sender].sub(tAmount);\r\n        _rOwned[sender] = _rOwned[sender].sub(rAmount);\r\n        _rOwned[recipient] = _rOwned[recipient].add(rTransferAmount);   \r\n        takeReflectionFee(rFee, tFee);\r\n        emit Transfer(sender, recipient, tTransferAmount);\r\n    }\r\n\r\n    function withdrawToken(address _tokenContract, uint256 _amount) external onlyOwner {\r\n        require(_tokenContract != address(0), \"Address cant be zero address\");\r\n        IERC20 tokenContract = IERC20(_tokenContract);\r\n        tokenContract.transfer(msg.sender, _amount);\r\n        emit ExternalTokenTransfered(_tokenContract, msg.sender, _amount);\r\n    }\r\n    \r\n    /**\r\n     * @dev Hook that is called before any transfer of tokens. This includes\r\n     * minting and burning.\r\n     *\r\n     * Calling conditions:\r\n     *\r\n     * - when `from` and `to` are both non-zero, `amount` of ``from``'s tokens\r\n     * will be to transferred to `to`.\r\n     * - when `from` is zero, `amount` tokens will be minted for `to`.\r\n     * - when `to` is zero, `amount` of ``from``'s tokens will be burned.\r\n     * - `from` and `to` are never both zero.\r\n     *\r\n     * To learn more about hooks, head to xref:ROOT:extending-contracts.adoc#using-hooks[Using Hooks].\r\n     */\r\n    function _beforeTokenTransfer(address from, address to) internal virtual { \r\n    }\r\n}",
  "sourcePath": "E:\\Geetha\\Blockchain\\task1\\contracts\\ERC20.sol",
  "compiler": {
    "name": "solc",
    "version": "0.8.0+commit.c7dfd78e.Emscripten.clang"
  },
  "schemaVersion": "3.4.3",
  "updatedAt": "2021-11-10T10:46:31.532Z",
  "devdoc": {
    "kind": "dev",
    "methods": {
      "allowance(address,address)": {
        "details": "See {IERC20-allowance}."
      },
      "approve(address,uint256)": {
        "details": "See {IERC20-approve}. Requirements: - `spender` cannot be the zero address."
      },
      "balanceOf(address)": {
        "details": "See {IERC20-balanceOf}."
      },
      "decimals()": {
        "details": "Returns the number of decimals used to get its user representation. For example, if `decimals` equals `2`, a balance of `505` tokens should be displayed to a user as `5,05` (`505 / 10 ** 2`). Tokens usually opt for a value of 18, imitating the relationship between Ether and Wei. This is the value {ERC20} uses, unless this function is overridden; NOTE: This information is only used for _display_ purposes: it in no way affects any of the arithmetic of the contract, including {IERC20-balanceOf} and {IERC20-transfer}."
      },
      "decreaseAllowance(address,uint256)": {
        "details": "Atomically decreases the allowance granted to `spender` by the caller. This is an alternative to {approve} that can be used as a mitigation for problems described in {IERC20-approve}. Emits an {Approval} event indicating the updated allowance. Requirements: - `spender` cannot be the zero address. - `spender` must have allowance for the caller of at least `subtractedValue`."
      },
      "increaseAllowance(address,uint256)": {
        "details": "Atomically increases the allowance granted to `spender` by the caller. This is an alternative to {approve} that can be used as a mitigation for problems described in {IERC20-approve}. Emits an {Approval} event indicating the updated allowance. Requirements: - `spender` cannot be the zero address."
      },
      "name()": {
        "details": "Returns the name of the token."
      },
      "owner()": {
        "details": "Returns the address of the current owner."
      },
      "renounceOwnership()": {
        "details": "Leaves the contract without owner. It will not be possible to call `onlyOwner` functions anymore. Can only be called by the current owner. NOTE: Renouncing ownership will leave the contract without an owner, thereby removing any functionality that is only available to the owner."
      },
      "symbol()": {
        "details": "Returns the symbol of the token, usually a shorter version of the name."
      },
      "totalSupply()": {
        "details": "See {IERC20-totalSupply}."
      },
      "transfer(address,uint256)": {
        "details": "See {IERC20-transfer}. Requirements: - `recipient` cannot be the zero address. - the caller must have a balance of at least `amount`."
      },
      "transferFrom(address,address,uint256)": {
        "details": "See {IERC20-transferFrom}. Emits an {Approval} event indicating the updated allowance. This is not required by the EIP. See the note at the beginning of {ERC20}. Requirements: - `sender` and `recipient` cannot be the zero address. - `sender` must have a balance of at least `amount`. - the caller must have allowance for ``sender``'s tokens of at least `amount`."
      },
      "transferOwnership(address)": {
        "details": "Transfers ownership of the contract to a new account (`newOwner`). Can only be called by the current owner."
      }
    },
    "version": 1
  },
  "userdoc": {
    "kind": "user",
    "methods": {},
    "version": 1
  }
}