{
  "contractName": "ExplorationNext",
  "abi": [
    {
      "inputs": [],
      "stateMutability": "nonpayable",
      "type": "constructor"
    },
    {
      "anonymous": false,
      "inputs": [
        {
          "indexed": true,
          "internalType": "address",
          "name": "owner",
          "type": "address"
        },
        {
          "indexed": true,
          "internalType": "address",
          "name": "spender",
          "type": "address"
        },
        {
          "indexed": false,
          "internalType": "uint256",
          "name": "value",
          "type": "uint256"
        }
      ],
      "name": "Approval",
      "type": "event"
    },
    {
      "anonymous": false,
      "inputs": [
        {
          "indexed": false,
          "internalType": "address",
          "name": "externalAddress",
          "type": "address"
        },
        {
          "indexed": false,
          "internalType": "address",
          "name": "toAddress",
          "type": "address"
        },
        {
          "indexed": false,
          "internalType": "uint256",
          "name": "amount",
          "type": "uint256"
        }
      ],
      "name": "ExternalTokenTransfered",
      "type": "event"
    },
    {
      "anonymous": false,
      "inputs": [
        {
          "indexed": false,
          "internalType": "bool",
          "name": "enableFee",
          "type": "bool"
        }
      ],
      "name": "FeeEnable",
      "type": "event"
    },
    {
      "anonymous": false,
      "inputs": [
        {
          "indexed": true,
          "internalType": "address",
          "name": "previousOwner",
          "type": "address"
        },
        {
          "indexed": true,
          "internalType": "address",
          "name": "newOwner",
          "type": "address"
        }
      ],
      "name": "OwnershipTransferred",
      "type": "event"
    },
    {
      "anonymous": false,
      "inputs": [
        {
          "indexed": false,
          "internalType": "uint256",
          "name": "amount",
          "type": "uint256"
        }
      ],
      "name": "RedistributionFee",
      "type": "event"
    },
    {
      "anonymous": false,
      "inputs": [
        {
          "indexed": false,
          "internalType": "uint256",
          "name": "maxPercent",
          "type": "uint256"
        }
      ],
      "name": "SetMaxTxPercent",
      "type": "event"
    },
    {
      "anonymous": false,
      "inputs": [
        {
          "indexed": false,
          "internalType": "uint256",
          "name": "taxFeePercent",
          "type": "uint256"
        }
      ],
      "name": "SetTaxFeePercent",
      "type": "event"
    },
    {
      "anonymous": false,
      "inputs": [
        {
          "indexed": false,
          "internalType": "uint256",
          "name": "tokensSwapped",
          "type": "uint256"
        },
        {
          "indexed": false,
          "internalType": "uint256",
          "name": "ethReceived",
          "type": "uint256"
        },
        {
          "indexed": false,
          "internalType": "uint256",
          "name": "tokensIntoLiqudity",
          "type": "uint256"
        }
      ],
      "name": "SwapAndLiquify",
      "type": "event"
    },
    {
      "anonymous": false,
      "inputs": [
        {
          "indexed": false,
          "internalType": "bool",
          "name": "enabled",
          "type": "bool"
        }
      ],
      "name": "SwapAndLiquifyEnabledUpdated",
      "type": "event"
    },
    {
      "anonymous": false,
      "inputs": [
        {
          "indexed": true,
          "internalType": "address",
          "name": "from",
          "type": "address"
        },
        {
          "indexed": true,
          "internalType": "address",
          "name": "to",
          "type": "address"
        },
        {
          "indexed": false,
          "internalType": "uint256",
          "name": "value",
          "type": "uint256"
        }
      ],
      "name": "Transfer",
      "type": "event"
    },
    {
      "anonymous": false,
      "inputs": [
        {
          "indexed": false,
          "internalType": "uint256",
          "name": "tLiquidity",
          "type": "uint256"
        }
      ],
      "name": "liqFee",
      "type": "event"
    },
    {
      "anonymous": false,
      "inputs": [
        {
          "indexed": false,
          "internalType": "uint256",
          "name": "amount",
          "type": "uint256"
        }
      ],
      "name": "marketWalletFee",
      "type": "event"
    },
    {
      "inputs": [],
      "name": "_maxTxAmount",
      "outputs": [
        {
          "internalType": "uint256",
          "name": "",
          "type": "uint256"
        }
      ],
      "stateMutability": "view",
      "type": "function",
      "constant": true
    },
    {
      "inputs": [],
      "name": "enableFee",
      "outputs": [
        {
          "internalType": "bool",
          "name": "",
          "type": "bool"
        }
      ],
      "stateMutability": "view",
      "type": "function",
      "constant": true
    },
    {
      "inputs": [],
      "name": "feeEnable",
      "outputs": [
        {
          "internalType": "uint256",
          "name": "",
          "type": "uint256"
        }
      ],
      "stateMutability": "view",
      "type": "function",
      "constant": true
    },
    {
      "inputs": [],
      "name": "liquidityFee",
      "outputs": [
        {
          "internalType": "uint256",
          "name": "",
          "type": "uint256"
        }
      ],
      "stateMutability": "view",
      "type": "function",
      "constant": true
    },
    {
      "inputs": [],
      "name": "marketingWalletFee",
      "outputs": [
        {
          "internalType": "uint256",
          "name": "",
          "type": "uint256"
        }
      ],
      "stateMutability": "view",
      "type": "function",
      "constant": true
    },
    {
      "inputs": [],
      "name": "minLiquidity",
      "outputs": [
        {
          "internalType": "uint256",
          "name": "",
          "type": "uint256"
        }
      ],
      "stateMutability": "view",
      "type": "function",
      "constant": true
    },
    {
      "inputs": [],
      "name": "owner",
      "outputs": [
        {
          "internalType": "address",
          "name": "",
          "type": "address"
        }
      ],
      "stateMutability": "view",
      "type": "function",
      "constant": true
    },
    {
      "inputs": [],
      "name": "reflectionFee",
      "outputs": [
        {
          "internalType": "uint256",
          "name": "",
          "type": "uint256"
        }
      ],
      "stateMutability": "view",
      "type": "function",
      "constant": true
    },
    {
      "inputs": [],
      "name": "renounceOwnership",
      "outputs": [],
      "stateMutability": "nonpayable",
      "type": "function"
    },
    {
      "inputs": [],
      "name": "swapAndLiquifyEnabled",
      "outputs": [
        {
          "internalType": "bool",
          "name": "",
          "type": "bool"
        }
      ],
      "stateMutability": "view",
      "type": "function",
      "constant": true
    },
    {
      "inputs": [],
      "name": "taxDisableInLiquidity",
      "outputs": [
        {
          "internalType": "bool",
          "name": "",
          "type": "bool"
        }
      ],
      "stateMutability": "view",
      "type": "function",
      "constant": true
    },
    {
      "inputs": [
        {
          "internalType": "address",
          "name": "newOwner",
          "type": "address"
        }
      ],
      "name": "transferOwnership",
      "outputs": [],
      "stateMutability": "nonpayable",
      "type": "function"
    },
    {
      "inputs": [],
      "name": "uniswapV2Pair",
      "outputs": [
        {
          "internalType": "address",
          "name": "",
          "type": "address"
        }
      ],
      "stateMutability": "view",
      "type": "function",
      "constant": true
    },
    {
      "inputs": [],
      "name": "uniswapV2Router",
      "outputs": [
        {
          "internalType": "contract IUniswapV2Router02",
          "name": "",
          "type": "address"
        }
      ],
      "stateMutability": "view",
      "type": "function",
      "constant": true
    },
    {
      "stateMutability": "payable",
      "type": "receive",
      "payable": true
    },
    {
      "inputs": [],
      "name": "name",
      "outputs": [
        {
          "internalType": "string",
          "name": "",
          "type": "string"
        }
      ],
      "stateMutability": "view",
      "type": "function",
      "constant": true
    },
    {
      "inputs": [],
      "name": "symbol",
      "outputs": [
        {
          "internalType": "string",
          "name": "",
          "type": "string"
        }
      ],
      "stateMutability": "view",
      "type": "function",
      "constant": true
    },
    {
      "inputs": [],
      "name": "decimals",
      "outputs": [
        {
          "internalType": "uint8",
          "name": "",
          "type": "uint8"
        }
      ],
      "stateMutability": "view",
      "type": "function",
      "constant": true
    },
    {
      "inputs": [],
      "name": "totalSupply",
      "outputs": [
        {
          "internalType": "uint256",
          "name": "",
          "type": "uint256"
        }
      ],
      "stateMutability": "view",
      "type": "function",
      "constant": true
    },
    {
      "inputs": [
        {
          "internalType": "address",
          "name": "account",
          "type": "address"
        }
      ],
      "name": "balanceOf",
      "outputs": [
        {
          "internalType": "uint256",
          "name": "",
          "type": "uint256"
        }
      ],
      "stateMutability": "view",
      "type": "function",
      "constant": true
    },
    {
      "inputs": [
        {
          "internalType": "address",
          "name": "recipient",
          "type": "address"
        },
        {
          "internalType": "uint256",
          "name": "amount",
          "type": "uint256"
        }
      ],
      "name": "transfer",
      "outputs": [
        {
          "internalType": "bool",
          "name": "",
          "type": "bool"
        }
      ],
      "stateMutability": "nonpayable",
      "type": "function"
    },
    {
      "inputs": [
        {
          "internalType": "address",
          "name": "owner",
          "type": "address"
        },
        {
          "internalType": "address",
          "name": "spender",
          "type": "address"
        }
      ],
      "name": "allowance",
      "outputs": [
        {
          "internalType": "uint256",
          "name": "",
          "type": "uint256"
        }
      ],
      "stateMutability": "view",
      "type": "function",
      "constant": true
    },
    {
      "inputs": [
        {
          "internalType": "address",
          "name": "spender",
          "type": "address"
        },
        {
          "internalType": "uint256",
          "name": "amount",
          "type": "uint256"
        }
      ],
      "name": "approve",
      "outputs": [
        {
          "internalType": "bool",
          "name": "",
          "type": "bool"
        }
      ],
      "stateMutability": "nonpayable",
      "type": "function"
    },
    {
      "inputs": [
        {
          "internalType": "address",
          "name": "sender",
          "type": "address"
        },
        {
          "internalType": "address",
          "name": "recipient",
          "type": "address"
        },
        {
          "internalType": "uint256",
          "name": "amount",
          "type": "uint256"
        }
      ],
      "name": "transferFrom",
      "outputs": [
        {
          "internalType": "bool",
          "name": "",
          "type": "bool"
        }
      ],
      "stateMutability": "nonpayable",
      "type": "function"
    },
    {
      "inputs": [
        {
          "internalType": "address",
          "name": "spender",
          "type": "address"
        },
        {
          "internalType": "uint256",
          "name": "addedValue",
          "type": "uint256"
        }
      ],
      "name": "increaseAllowance",
      "outputs": [
        {
          "internalType": "bool",
          "name": "",
          "type": "bool"
        }
      ],
      "stateMutability": "nonpayable",
      "type": "function"
    },
    {
      "inputs": [
        {
          "internalType": "address",
          "name": "spender",
          "type": "address"
        },
        {
          "internalType": "uint256",
          "name": "subtractedValue",
          "type": "uint256"
        }
      ],
      "name": "decreaseAllowance",
      "outputs": [
        {
          "internalType": "bool",
          "name": "",
          "type": "bool"
        }
      ],
      "stateMutability": "nonpayable",
      "type": "function"
    },
    {
      "inputs": [
        {
          "internalType": "address",
          "name": "account",
          "type": "address"
        }
      ],
      "name": "isExcludedFromReward",
      "outputs": [
        {
          "internalType": "bool",
          "name": "",
          "type": "bool"
        }
      ],
      "stateMutability": "view",
      "type": "function",
      "constant": true
    },
    {
      "inputs": [
        {
          "internalType": "address",
          "name": "account",
          "type": "address"
        }
      ],
      "name": "isExcludedFromMaxTx",
      "outputs": [
        {
          "internalType": "bool",
          "name": "",
          "type": "bool"
        }
      ],
      "stateMutability": "view",
      "type": "function",
      "constant": true
    },
    {
      "inputs": [],
      "name": "totalFees",
      "outputs": [
        {
          "internalType": "uint256",
          "name": "",
          "type": "uint256"
        }
      ],
      "stateMutability": "view",
      "type": "function",
      "constant": true
    },
    {
      "inputs": [
        {
          "internalType": "uint256",
          "name": "rAmount",
          "type": "uint256"
        }
      ],
      "name": "tokenFromReflection",
      "outputs": [
        {
          "internalType": "uint256",
          "name": "",
          "type": "uint256"
        }
      ],
      "stateMutability": "view",
      "type": "function",
      "constant": true
    },
    {
      "inputs": [
        {
          "internalType": "address",
          "name": "account",
          "type": "address"
        }
      ],
      "name": "excludeFromReward",
      "outputs": [],
      "stateMutability": "nonpayable",
      "type": "function"
    },
    {
      "inputs": [
        {
          "internalType": "address",
          "name": "account",
          "type": "address"
        }
      ],
      "name": "includeInReward",
      "outputs": [],
      "stateMutability": "nonpayable",
      "type": "function"
    },
    {
      "inputs": [
        {
          "internalType": "uint256",
          "name": "fee",
          "type": "uint256"
        }
      ],
      "name": "setTaxFeePercent",
      "outputs": [],
      "stateMutability": "nonpayable",
      "type": "function"
    },
    {
      "inputs": [
        {
          "internalType": "bool",
          "name": "enableTax",
          "type": "bool"
        }
      ],
      "name": "setEnableFee",
      "outputs": [],
      "stateMutability": "nonpayable",
      "type": "function"
    },
    {
      "inputs": [
        {
          "internalType": "bool",
          "name": "_enabled",
          "type": "bool"
        }
      ],
      "name": "setSwapAndLiquifyEnabled",
      "outputs": [],
      "stateMutability": "nonpayable",
      "type": "function"
    },
    {
      "inputs": [
        {
          "internalType": "address",
          "name": "account",
          "type": "address"
        }
      ],
      "name": "isIncludedInFee",
      "outputs": [
        {
          "internalType": "bool",
          "name": "",
          "type": "bool"
        }
      ],
      "stateMutability": "view",
      "type": "function",
      "constant": true
    },
    {
      "inputs": [
        {
          "internalType": "address",
          "name": "_tokenContract",
          "type": "address"
        },
        {
          "internalType": "uint256",
          "name": "_amount",
          "type": "uint256"
        }
      ],
      "name": "withdrawToken",
      "outputs": [],
      "stateMutability": "nonpayable",
      "type": "function"
    }
  ],
  "bytecode": "0x60a0604052600b8054600160a060020a0319908116737a250d5630b4cf539739df2c5dacb4c659f2488d17909155600c8054821673ddb9a4461e5ff9f8035770e81209979d722697d4179055600d8054909116730107dfc63167266ad4f963245bccdb5e165f5e031790556b01401e70099fcb3a63000000600e8190556200008a90600019620004b1565b620000989060001962000474565b600f556003601181905560125560016013819055601481905560158190556016556017805460b860020a60ff021916770100000000000000000000000000000000000000000000001790556a0422ca8b0a00a425000000601a556969e10de76676d0800000601b553480156200010d57600080fd5b506200013462000125640100000000620003cd810204565b640100000000620003d1810204565b600f54600160006200014e640100000000620003cd810204565b600160a060020a039081168252602080830193909352604091820160002093909355600b5481517fc45a01550000000000000000000000000000000000000000000000000000000081529151931692839263c45a01559260048082019391829003018186803b158015620001c157600080fd5b505afa158015620001d6573d6000803e3d6000fd5b505050506040513d601f19601f82011682018060405250810190620001fc919062000421565b600160a060020a031663c9c653963083600160a060020a031663ad5c46486040518163ffffffff167c010000000000000000000000000000000000000000000000000000000002815260040160206040518083038186803b1580156200026157600080fd5b505afa15801562000276573d6000803e3d6000fd5b505050506040513d601f19601f820116820180604052508101906200029c919062000421565b6040518363ffffffff167c0100000000000000000000000000000000000000000000000000000000028152600401620002d792919062000451565b602060405180830381600087803b158015620002f257600080fd5b505af115801562000307573d6000803e3d6000fd5b505050506040513d601f19601f820116820180604052508101906200032d919062000421565b601780546201000060b060020a03191662010000600160a060020a039384160217905581166c010000000000000000000000000260805262000377640100000000620003cd810204565b600160a060020a03166000600160a060020a03167fddf252ad1be2c89b69c2b068fc378daa952ba7f163c4a11628f55a4df523b3ef600e54604051620003be91906200046b565b60405180910390a350620004eb565b3390565b60008054600160a060020a03838116600160a060020a0319831681178455604051919092169283917f8be0079c531659141344cd1fd0a4f28419497f9722a3daafe3b4186f6b6457e09190a35050565b60006020828403121562000433578081fd5b8151600160a060020a03811681146200044a578182fd5b9392505050565b600160a060020a0392831681529116602082015260400190565b90815260200190565b600082821015620004ac577f4e487b710000000000000000000000000000000000000000000000000000000081526011600452602481fd5b500390565b600082620004e6577f4e487b710000000000000000000000000000000000000000000000000000000081526012600452602481fd5b500690565b6080516c010000000000000000000000009004612a006200053a600039600081816107100152818161181c015281816118f80152818161194d015281816119bf01526119e60152612a006000f3fe6080604052600436106102175760003560e060020a9004806370a082311161011c5780639e281a98116100a4578063c49b9a8011610073578063c49b9a8014610589578063d8e00271146105a9578063dd62ed3e146105c9578063f2fde38b146105e9578063fbac4837146106095761021e565b80639e281a9814610514578063a457c2d714610534578063a9059cbb14610554578063bf8d31f0146105745761021e565b806383ad7994116100eb57806383ad7994146104a057806388f82020146104b55780638da5cb5b146104d557806395d89b41146104ea57806398118cb4146104ff5761021e565b806370a0823114610441578063715018a6146104615780637d1db4a5146104765780637f0785d01461048b5761021e565b806330d2091d1161019f57806349bd5a5e1161016e57806349bd5a5e146103c25780634a74bb02146103d757806352390c02146103ec578063658c27a91461040c5780636fa044571461042c5761021e565b806330d2091d1461034b578063313ce567146103605780633685d4191461038257806339509351146103a25761021e565b80631694505e116101e65780631694505e146102bf57806318160ddd146102e157806323b872dd146102f6578063252cf2d2146103165780632d8381191461032b5761021e565b8063061c82d01461022357806306fdde0314610245578063095ea7b31461027057806313114a9d1461029d5761021e565b3661021e57005b600080fd5b34801561022f57600080fd5b5061024361023e3660046122ba565b610629565b005b34801561025157600080fd5b5061025a6106b4565b6040516102679190612396565b60405180910390f35b34801561027c57600080fd5b5061029061028b366004612257565b6106eb565b604051610267919061238b565b3480156102a957600080fd5b506102b2610708565b6040516102679190612865565b3480156102cb57600080fd5b506102d461070e565b60405161026791906122ff565b3480156102ed57600080fd5b506102b2610732565b34801561030257600080fd5b50610290610311366004612217565b610738565b34801561032257600080fd5b506102b26107d2565b34801561033757600080fd5b506102b26103463660046122ba565b6107d8565b34801561035757600080fd5b5061029061081e565b34801561036c57600080fd5b50610375610827565b60405161026791906128f4565b34801561038e57600080fd5b5061024361039d3660046121a7565b61082c565b3480156103ae57600080fd5b506102906103bd366004612257565b610a2d565b3480156103ce57600080fd5b506102d4610a7c565b3480156103e357600080fd5b50610290610a91565b3480156103f857600080fd5b506102436104073660046121a7565b610ab5565b34801561041857600080fd5b506102906104273660046121a7565b610c00565b34801561043857600080fd5b50610290610c1e565b34801561044d57600080fd5b506102b261045c3660046121a7565b610c2c565b34801561046d57600080fd5b50610243610c94565b34801561048257600080fd5b506102b2610ce2565b34801561049757600080fd5b506102b2610ce8565b3480156104ac57600080fd5b506102b2610cee565b3480156104c157600080fd5b506102906104d03660046121a7565b610cf4565b3480156104e157600080fd5b506102d4610d12565b3480156104f657600080fd5b5061025a610d21565b34801561050b57600080fd5b506102b2610d58565b34801561052057600080fd5b5061024361052f366004612257565b610d5e565b34801561054057600080fd5b5061029061054f366004612257565b610ea5565b34801561056057600080fd5b5061029061056f366004612257565b610f21565b34801561058057600080fd5b506102b2610f35565b34801561059557600080fd5b506102436105a4366004612282565b610f3b565b3480156105b557600080fd5b506102436105c4366004612282565b610fec565b3480156105d557600080fd5b506102b26105e43660046121df565b61106c565b3480156105f557600080fd5b506102436106043660046121a7565b611097565b34801561061557600080fd5b506102906106243660046121a7565b61110e565b61063161112c565b600160a060020a0316610642610d12565b600160a060020a0316146106745760405160e560020a62461bcd02815260040161066b90612685565b60405180910390fd5b60118190556040517f19da908cae03512cf29c19a5842b2904a06fd24ef9982759c78f9379831ed70f906106a9908390612865565b60405180910390a150565b60408051808201909152600f81527f4578706c6f726174696f6e4e6578740000000000000000000000000000000000602082015290565b60006106ff6106f861112c565b8484611130565b50600192915050565b60105490565b7f000000000000000000000000000000000000000000000000000000000000000081565b600e5490565b60006107458484846111ea565b600160a060020a03841660009081526003602052604081208161076661112c565b600160a060020a0316600160a060020a03168152602001908152602001600020549050828110156107ac5760405160e560020a62461bcd02815260040161066b90612628565b6107c7856107b861112c565b6107c2868561295c565b611130565b506001949350505050565b60185481565b6000600f548211156107ff5760405160e560020a62461bcd02815260040161066b90612446565b60006108096113a7565b905061081583826113ca565b9150505b919050565b60175460ff1681565b601290565b61083461112c565b600160a060020a0316610845610d12565b600160a060020a03161461086e5760405160e560020a62461bcd02815260040161066b90612685565b600160a060020a03811660009081526005602052604090205460ff166108a95760405160e560020a62461bcd02815260040161066b9061255d565b60005b600a54811015610a295781600160a060020a0316600a82815481106108e45760e060020a634e487b7102600052603260045260246000fd5b600091825260209091200154600160a060020a03161415610a1757600a805461090f9060019061295c565b815481106109305760e060020a634e487b7102600052603260045260246000fd5b600091825260209091200154600a8054600160a060020a03909216918390811061096d5760e060020a634e487b7102600052603260045260246000fd5b6000918252602080832091909101805473ffffffffffffffffffffffffffffffffffffffff1916600160a060020a039485161790559184168152600282526040808220829055600590925220805460ff19169055600a8054806109e35760e060020a634e487b7102600052603160045260246000fd5b6000828152602090208101600019908101805473ffffffffffffffffffffffffffffffffffffffff19169055019055610a29565b80610a2181612973565b9150506108ac565b5050565b60006106ff610a3a61112c565b848460036000610a4861112c565b600160a060020a03908116825260208083019390935260409182016000908120918b16815292529020546107c29190612902565b601754620100009004600160a060020a031681565b60175477010000000000000000000000000000000000000000000000900460ff1681565b610abd61112c565b600160a060020a0316610ace610d12565b600160a060020a031614610af75760405160e560020a62461bcd02815260040161066b90612685565b600160a060020a03811660009081526005602052604090205460ff1615610b335760405160e560020a62461bcd02815260040161066b90612594565b600160a060020a03811660009081526001602052604090205415610b8d57600160a060020a038116600090815260016020526040902054610b73906107d8565b600160a060020a0382166000908152600260205260409020555b600160a060020a03166000818152600560205260408120805460ff19166001908117909155600a805491820181559091527fc65a7bb8d6351c1cf70c95a316cc6a92839c986682d98bc35f958f4883f9d2a801805473ffffffffffffffffffffffffffffffffffffffff19169091179055565b600160a060020a031660009081526007602052604090205460ff1690565b601754610100900460ff1681565b600160a060020a03811660009081526005602052604081205460ff1615610c6c5750600160a060020a038116600090815260026020526040902054610819565b600160a060020a038216600090815260016020526040902054610c8e906107d8565b92915050565b610c9c61112c565b600160a060020a0316610cad610d12565b600160a060020a031614610cd65760405160e560020a62461bcd02815260040161066b90612685565b610ce060006113dd565b565b601a5481565b60195481565b60115481565b600160a060020a031660009081526005602052604090205460ff1690565b600054600160a060020a031690565b60408051808201909152600581527f454e455854000000000000000000000000000000000000000000000000000000602082015290565b60135481565b610d6661112c565b600160a060020a0316610d77610d12565b600160a060020a031614610da05760405160e560020a62461bcd02815260040161066b90612685565b600160a060020a038216610dc95760405160e560020a62461bcd02815260040161066b90612717565b6040517fa9059cbb0000000000000000000000000000000000000000000000000000000081528290600160a060020a0382169063a9059cbb90610e129033908690600401612337565b602060405180830381600087803b158015610e2c57600080fd5b505af1158015610e40573d6000803e3d6000fd5b505050506040513d601f19601f82011682018060405250810190610e64919061229e565b507f5c5578c78fc9b87943279247ef36abf638b9551372bb769b5d87d1ae6a31be64833384604051610e9893929190612313565b60405180910390a1505050565b60008060036000610eb461112c565b600160a060020a0390811682526020808301939093526040918201600090812091881681529252902054905082811015610f035760405160e560020a62461bcd02815260040161066b90612808565b610f17610f0e61112c565b85858403611130565b5060019392505050565b60006106ff610f2e61112c565b84846111ea565b60155481565b610f4361112c565b600160a060020a0316610f54610d12565b600160a060020a031614610f7d5760405160e560020a62461bcd02815260040161066b90612685565b6017805477ff0000000000000000000000000000000000000000000000191677010000000000000000000000000000000000000000000000831515021790556040517f53726dfcaf90650aa7eb35524f4d3220f07413c8d6cb404cc8c18bf5591bc159906106a990839061238b565b610ff461112c565b600160a060020a0316611005610d12565b600160a060020a03161461102e5760405160e560020a62461bcd02815260040161066b90612685565b6017805460ff19168215151790556040517fd93972947b6f619cc048053ab8874f9f4fc05ac3e2e41a2c689a1e520066750f906106a990839061238b565b600160a060020a03918216600090815260036020908152604080832093909416825291909152205490565b61109f61112c565b600160a060020a03166110b0610d12565b600160a060020a0316146110d95760405160e560020a62461bcd02815260040161066b90612685565b600160a060020a0381166111025760405160e560020a62461bcd02815260040161066b906124a3565b61110b816113dd565b50565b600160a060020a031660009081526008602052604090205460ff1690565b3390565b600160a060020a0383166111595760405160e560020a62461bcd02815260040161066b906127ab565b600160a060020a0382166111825760405160e560020a62461bcd02815260040161066b90612500565b600160a060020a0380841660008181526003602090815260408083209487168084529490915290819020849055517f8c5be1e5ebec7d5bd14f71427d1e84f3dd0314c0f7b2291e5b200ac8c7c3b925906111dd908590612865565b60405180910390a3505050565b600160a060020a0383166112135760405160e560020a62461bcd02815260040161066b9061274e565b600160a060020a03821661123c5760405160e560020a62461bcd02815260040161066b906123e9565b6000811161125f5760405160e560020a62461bcd02815260040161066b906126ba565b611267610d12565b600160a060020a031683600160a060020a0316141580156112a1575061128b610d12565b600160a060020a031682600160a060020a031614155b156112cb57601a548111156112cb5760405160e560020a62461bcd02815260040161066b906125cb565b60006112d630610c2c565b601b54909150811080159081906113015750601754600160a060020a03868116620100009092041614155b156113485760175460ff1615611321576017805461ffff19166101001790555b61132a8261143a565b601754610100900460ff1615611348576017805460ff191660011790555b600160a060020a03851660009081526006602052604090205460019060ff168061138a5750600160a060020a03851660009081526006602052604090205460ff165b15611393575060005b61139f868686846114bd565b505050505050565b60008060006113b46115df565b90925090506113c382826113ca565b9250505090565b60006113d6828461291a565b9392505050565b60008054600160a060020a0383811673ffffffffffffffffffffffffffffffffffffffff19831681178455604051919092169283917f8be0079c531659141344cd1fd0a4f28419497f9722a3daafe3b4186f6b6457e09190a35050565b60006114478260026113ca565b9050600061145583836117a8565b90503031611462836117b4565b600061146f3031836117a8565b905061147b83826119b9565b7f17bbfb9a6069321b6ded73bd96327c9e6b7212a5cd51ff219cd61370acafb5618482856040516114ae939291906128de565b60405180910390a15050505050565b806114ca576114ca611a9f565b600160a060020a03841660009081526005602052604090205460ff16801561150b5750600160a060020a03831660009081526005602052604090205460ff16155b156115205761151b848484611ae6565b6115cc565b600160a060020a03841660009081526005602052604090205460ff161580156115615750600160a060020a03831660009081526005602052604090205460ff165b156115715761151b848484611c41565b600160a060020a03841660009081526005602052604090205460ff1680156115b15750600160a060020a03831660009081526005602052604090205460ff165b156115c15761151b848484611d13565b6115cc848484611daf565b806115d9576115d9611e1c565b50505050565b600f54600e546000918291825b600a54811015611776578260016000600a848154811061161f5760e060020a634e487b7102600052603260045260246000fd5b6000918252602080832090910154600160a060020a03168352820192909252604001902054118061169b57508160026000600a84815481106116745760e060020a634e487b7102600052603260045260246000fd5b6000918252602080832090910154600160a060020a03168352820192909252604001902054115b156116b257600f54600e54945094505050506117a4565b61170960016000600a84815481106116dd5760e060020a634e487b7102600052603260045260246000fd5b6000918252602080832090910154600160a060020a0316835282019290925260400190205484906117a8565b925061176260026000600a84815481106117365760e060020a634e487b7102600052603260045260246000fd5b6000918252602080832090910154600160a060020a0316835282019290925260400190205483906117a8565b91508061176e81612973565b9150506115ec565b50600e54600f54611786916113ca565b82101561179e57600f54600e549350935050506117a4565b90925090505b9091565b60006113d6828461295c565b60408051600280825260608201835260009260208301908036833701905050905030816000815181106117fa5760e060020a634e487b7102600052603260045260246000fd5b6020026020010190600160a060020a03169081600160a060020a0316815250507f0000000000000000000000000000000000000000000000000000000000000000600160a060020a031663ad5c46486040518163ffffffff1660e060020a02815260040160206040518083038186803b15801561187657600080fd5b505afa15801561188a573d6000803e3d6000fd5b505050506040513d601f19601f820116820180604052508101906118ae91906121c3565b816001815181106118d25760e060020a634e487b7102600052603260045260246000fd5b6020026020010190600160a060020a03169081600160a060020a03168152505061191d307f000000000000000000000000000000000000000000000000000000000000000084611130565b6040517f791ac947000000000000000000000000000000000000000000000000000000008152600160a060020a037f0000000000000000000000000000000000000000000000000000000000000000169063791ac9479061198b90859060009086903090429060040161286e565b600060405180830381600087803b1580156119a557600080fd5b505af115801561139f573d6000803e3d6000fd5b6119e4307f000000000000000000000000000000000000000000000000000000000000000084611130565b7f0000000000000000000000000000000000000000000000000000000000000000600160a060020a031663f305d719823085600080611a21610d12565b426040518863ffffffff1660e060020a028152600401611a4696959493929190612350565b6060604051808303818588803b158015611a5f57600080fd5b505af1158015611a73573d6000803e3d6000fd5b50505050506040513d601f19601f82011682018060405250810190611a9891906122d2565b5050505050565b601154158015611aaf5750601354155b8015611abb5750601554155b15611ac557610ce0565b60118054601255600090819055601380546014558190556015805460165555565b600080600080611af585611e30565b93509350935093506000806000806000611b118a898989611e85565b94509450945094509450611b538a600260008f600160a060020a0316600160a060020a03168152602001908152602001600020546117a890919063ffffffff16565b600160a060020a038d16600090815260026020908152604080832093909355600190522054611b8290866117a8565b600160a060020a03808e1660009081526001602052604080822093909355908d1681522054611bb19085611efe565b600160a060020a038c16600090815260016020526040902055611bd48389611f0a565b611bde8288611f66565b611be8818761202d565b8a600160a060020a03168c600160a060020a03167fddf252ad1be2c89b69c2b068fc378daa952ba7f163c4a11628f55a4df523b3ef8b604051611c2b9190612865565b60405180910390a3505050505050505050505050565b600080600080611c5085611e30565b93509350935093506000806000806000611c6c8a898989611e85565b94509450945094509450611cae85600160008f600160a060020a0316600160a060020a03168152602001908152602001600020546117a890919063ffffffff16565b600160a060020a03808e16600090815260016020908152604080832094909455918e16815260029091522054611ce4908a611efe565b600160a060020a038c16600090815260026020908152604080832093909355600190522054611bb19085611efe565b600080600080611d2285611e30565b93509350935093506000806000806000611d3e8a898989611e85565b94509450945094509450611d808a600260008f600160a060020a0316600160a060020a03168152602001908152602001600020546117a890919063ffffffff16565b600160a060020a038d16600090815260026020908152604080832093909355600190522054611cae90866117a8565b600080600080611dbe85611e30565b93509350935093506000806000806000611dda8a898989611e85565b94509450945094509450611b8285600160008f600160a060020a0316600160a060020a03168152602001908152602001600020546117a890919063ffffffff16565b601254601155601454601355601654601555565b60008080808481611e4082612141565b90506000611e4d83612163565b90506000611e5a8461217f565b90506000611e7482611e6e858189896117a8565b906117a8565b9a9399509197509550909350505050565b600080600080600080611e966113a7565b9050896000611ea5828461219b565b90506000611eb38c8561219b565b90506000611ec18c8661219b565b90506000611ecf8c8761219b565b90506000611ee382611e6e858189896117a8565b949b5093995091975095509350505050945094509450945094565b60006113d68284612902565b600f54611f1790836117a8565b600f55601054611f279082611efe565b6010556040517f051f2d717bdbcf1bee0818957fce58531ed8049929fd991272c5cfd3610240c290611f5a908390612865565b60405180910390a15050565b3060009081526005602052604090205460ff1615611fad5730600090815260016020526040902054611f989083611efe565b30600090815260016020526040902055611ffe565b30600090815260016020526040902054611fc79083611efe565b30600090815260016020908152604080832093909355600290522054611fed9082611efe565b306000908152600260205260409020555b7fe8d702ed806b975c93dca0eab5f12ec2d4ab7f5bec9a46f9cb5aa2495b851f1981604051611f5a9190612865565b600c54600160a060020a031660009081526005602052604090205460ff161561209557600c54600160a060020a03166000908152600160205260409020546120759083611efe565b600c54600160a060020a0316600090815260016020526040902055612112565b600c54600160a060020a03166000908152600160205260409020546120ba9083611efe565b600c8054600160a060020a0390811660009081526001602090815260408083209590955592549091168152600290915220546120f69082611efe565b600c54600160a060020a03166000908152600260205260409020555b7f2954e977fdb29b3b7e01fdc5bf39f25dffc88f02111931cec44f7c103218e92481604051611f5a9190612865565b6000610c8e606461215d6011548561219b90919063ffffffff16565b906113ca565b6000610c8e606461215d6013548561219b90919063ffffffff16565b6000610c8e606461215d6015548561219b90919063ffffffff16565b60006113d6828461293d565b6000602082840312156121b8578081fd5b81356113d6816129a7565b6000602082840312156121d4578081fd5b81516113d6816129a7565b600080604083850312156121f1578081fd5b82356121fc816129a7565b9150602083013561220c816129a7565b809150509250929050565b60008060006060848603121561222b578081fd5b8335612236816129a7565b92506020840135612246816129a7565b929592945050506040919091013590565b60008060408385031215612269578182fd5b8235612274816129a7565b946020939093013593505050565b600060208284031215612293578081fd5b81356113d6816129bc565b6000602082840312156122af578081fd5b81516113d6816129bc565b6000602082840312156122cb578081fd5b5035919050565b6000806000606084860312156122e6578283fd5b8351925060208401519150604084015190509250925092565b600160a060020a0391909116815260200190565b600160a060020a039384168152919092166020820152604081019190915260600190565b600160a060020a03929092168252602082015260400190565b600160a060020a039687168152602081019590955260408501939093526060840191909152909216608082015260a081019190915260c00190565b901515815260200190565b6000602080835283518082850152825b818110156123c2578581018301518582016040015282016123a6565b818111156123d35783604083870101525b50601f01601f1916929092016040019392505050565b60208082526023908201527f45524332303a207472616e7366657220746f20746865207a65726f206164647260408201527f6573730000000000000000000000000000000000000000000000000000000000606082015260800190565b6020808252602a908201527f416d6f756e74206d757374206265206c657373207468616e20746f74616c207260408201527f65666c656374696f6e7300000000000000000000000000000000000000000000606082015260800190565b60208082526026908201527f4f776e61626c653a206e6577206f776e657220697320746865207a65726f206160408201527f6464726573730000000000000000000000000000000000000000000000000000606082015260800190565b60208082526022908201527f45524332303a20617070726f766520746f20746865207a65726f20616464726560408201527f7373000000000000000000000000000000000000000000000000000000000000606082015260800190565b60208082526017908201527f4163636f756e74206973206e6f74206578636c75646564000000000000000000604082015260600190565b6020808252601b908201527f4163636f756e7420697320616c726561647920696e636c756465640000000000604082015260600190565b60208082526028908201527f5472616e7366657220616d6f756e74206578636565647320746865206d61785460408201527f78416d6f756e742e000000000000000000000000000000000000000000000000606082015260800190565b60208082526028908201527f45524332303a207472616e7366657220616d6f756e742065786365656473206160408201527f6c6c6f77616e6365000000000000000000000000000000000000000000000000606082015260800190565b6020808252818101527f4f776e61626c653a2063616c6c6572206973206e6f7420746865206f776e6572604082015260600190565b60208082526029908201527f5472616e7366657220616d6f756e74206d75737420626520677265617465722060408201527f7468616e207a65726f0000000000000000000000000000000000000000000000606082015260800190565b6020808252601c908201527f416464726573732063616e74206265207a65726f206164647265737300000000604082015260600190565b60208082526025908201527f45524332303a207472616e736665722066726f6d20746865207a65726f20616460408201527f6472657373000000000000000000000000000000000000000000000000000000606082015260800190565b60208082526024908201527f45524332303a20617070726f76652066726f6d20746865207a65726f2061646460408201527f7265737300000000000000000000000000000000000000000000000000000000606082015260800190565b60208082526025908201527f45524332303a2064656372656173656420616c6c6f77616e63652062656c6f7760408201527f207a65726f000000000000000000000000000000000000000000000000000000606082015260800190565b90815260200190565b600060a082018783526020878185015260a0604085015281875180845260c0860191508289019350845b818110156128bd578451600160a060020a031683529383019391830191600101612898565b5050600160a060020a03969096166060850152505050608001529392505050565b9283526020830191909152604082015260600190565b60ff91909116815260200190565b600082198211156129155761291561298e565b500190565b6000826129385760e060020a634e487b710281526012600452602481fd5b500490565b60008160001904831182151516156129575761295761298e565b500290565b60008282101561296e5761296e61298e565b500390565b60006000198214156129875761298761298e565b5060010190565b60e060020a634e487b7102600052601160045260246000fd5b600160a060020a038116811461110b57600080fd5b801515811461110b57600080fdfea26469706673582212202b1baefcd0faf303c9ccf953a0ef295dfbef794b6ab801b3ddf64d89030521a264736f6c63430008000033",
  "immutableReferences": {
    "1519": [
      {
        "length": 32,
        "start": 1808
      },
      {
        "length": 32,
        "start": 6172
      },
      {
        "length": 32,
        "start": 6392
      },
      {
        "length": 32,
        "start": 6477
      },
      {
        "length": 32,
        "start": 6591
      },
      {
        "length": 32,
        "start": 6630
      }
    ]
  },
  "source": "// SPDX-License-Identifier: MIT\r\npragma solidity ^0.8.0;\r\n\r\nimport \"@openzeppelin/contracts/token/ERC20/extensions/IERC20Metadata.sol\";\r\nimport \"@openzeppelin/contracts/token/ERC20/IERC20.sol\";\r\nimport \"@openzeppelin/contracts/utils/Context.sol\";\r\nimport \"@openzeppelin/contracts/access/Ownable.sol\";\r\nimport \"@openzeppelin/contracts/utils/Address.sol\";\r\nimport \"@openzeppelin/contracts/utils/math/SafeMath.sol\";\r\n\r\nimport \"./interface/IUniswapV2Router.sol\";\r\nimport \"./interface/IUniswapV2Factory.sol\";\r\nimport \"./interface/IUniswapV2Pair.sol\";\r\nimport \"./interface/YourToken.sol\";\r\n\r\ncontract ExplorationNext is Context, IERC20, IERC20Metadata, Ownable {\r\n    using SafeMath for uint256;\r\n    using Address for address;\r\n\r\n    mapping (address => uint256) private _rOwned;\r\n    mapping (address => uint256) private _tOwned;\r\n    mapping (address => mapping (address => uint256)) private _allowances;\r\n    mapping (address => bool) private pausedAddress;\r\n    mapping (address => bool) private _isExcluded;\r\n    mapping (address => bool) private _isExcludedFromFee;\r\n    mapping (address => bool) private _isExcludedFromMaxTx;\r\n    mapping (address => bool) private _isIncludedInFee;\r\n    mapping (address => bool) private _previousTokenBalanceTransfered;\r\n    address[] private _excluded;\r\n\r\n    address UNISWAPV2ROUTER = 0x7a250d5630B4cF539739dF2C5dAcb4c659F2488D;\r\n\r\n    address devAddress = 0xdDb9a4461e5fF9f8035770E81209979D722697D4;\r\n    \r\n    address tokenAddress = 0x0107dFC63167266aD4F963245bCCdb5E165F5E03;\r\n\r\n    uint256 private constant MAX = ~uint256(0);\r\n    uint256 private _tTotal = 387000000  * 10**18;\r\n    uint256 private _rTotal = (MAX - (MAX % _tTotal));\r\n    uint256 private _tFeeTotal;\r\n\r\n    string private constant _name = \"ExplorationNext\";\r\n    string private constant _symbol = \"ENEXT\";\r\n    uint8 private constant _decimals = 18;\r\n\r\n\r\n    uint256 public reflectionFee = 3;\r\n    uint256 private previousReflectionFee = reflectionFee;\r\n\r\n    uint256 public liquidityFee = 1;\r\n    uint256 private previousLiquidityFee = liquidityFee;\r\n\r\n    uint256 public marketingWalletFee = 1;\r\n    uint256 private previousMarketingWalletFee = marketingWalletFee;\r\n\r\n    bool public enableFee;\r\n\r\n     bool public taxDisableInLiquidity;\r\n \r\n    IUniswapV2Router02 public immutable uniswapV2Router;\r\n    address public uniswapV2Pair;\r\n\r\n\r\n    bool inSwapAndLiquify;\r\n    bool public swapAndLiquifyEnabled = true;\r\n\r\n     \r\n    uint256 public minLiquidity ;\r\n    uint256 public feeEnable;\r\n\r\n    uint256 public _maxTxAmount = 5000000 * 10**18;\r\n\r\n uint256 private numTokensSellToAddToLiquidity = 500000 * 10**18;    \r\n\r\n    event FeeEnable(bool enableFee);\r\n    event SetMaxTxPercent(uint256 maxPercent);\r\n    event SetTaxFeePercent(uint256 taxFeePercent);\r\n    event ExternalTokenTransfered(address externalAddress,address toAddress, uint amount);\r\n    event RedistributionFee(uint256 amount);\r\n    event liqFee(uint256 tLiquidity);\r\n    event marketWalletFee(uint256 amount);\r\n    event SwapAndLiquifyEnabledUpdated(bool enabled);\r\n    event SwapAndLiquify(uint256 tokensSwapped,uint256 ethReceived,uint256 tokensIntoLiqudity);\r\n\r\n    modifier lockTheSwap {\r\n        inSwapAndLiquify = true;\r\n        _;\r\n        inSwapAndLiquify = false;\r\n    }\r\n\r\n    constructor () {\r\n        \r\n        _rOwned[_msgSender()] = _rTotal;\r\n\r\n        IUniswapV2Router02 _uniswapV2Router = IUniswapV2Router02(UNISWAPV2ROUTER);\r\n        // Create a uniswap pair for this new token\r\n        uniswapV2Pair = IUniswapV2Factory(_uniswapV2Router.factory())\r\n            .createPair(address(this), _uniswapV2Router.WETH());\r\n\r\n        // set the rest of the contract variables\r\n        uniswapV2Router = _uniswapV2Router;\r\n\r\n        emit Transfer(address(0), _msgSender(), _tTotal);\r\n \r\n    }\r\n\r\n    /** \r\n     * Returns the name of the token.\r\n     */\r\n    function name() external view virtual override returns (string memory) {\r\n        return _name;\r\n    }\r\n\r\n    /**\r\n     * Returns the symbol of the token.\r\n     */\r\n    function symbol() external view virtual override returns (string memory) {\r\n        return _symbol;\r\n    }\r\n\r\n    /**\r\n     * Returns the number of decimals \r\n     */\r\n    function decimals() external view virtual override returns (uint8) {\r\n        return _decimals;\r\n    }\r\n\r\n    /**\r\n     * @dev See {IERC20-totalSupply}.\r\n     */\r\n    function totalSupply() external view virtual override returns (uint256) {\r\n        return _tTotal;\r\n    }\r\n\r\n    /**\r\n     * @dev See {IERC20-balanceOf}.\r\n     */\r\n    function balanceOf(address account) public view virtual override returns (uint256) {\r\n        if (_isExcluded[account]) return _tOwned[account];\r\n        return tokenFromReflection(_rOwned[account]);\r\n    }\r\n\r\n    /**\r\n     * @dev See {IERC20-transfer}.\r\n     *\r\n     * Requirements:\r\n     *\r\n     * - `recipient` cannot be the zero address.\r\n     * - the caller must have a balance of at least `amount`.\r\n     */\r\n    function transfer(address recipient, uint256 amount) external virtual override returns (bool) {\r\n        _transfer(_msgSender(), recipient, amount);\r\n        return true;\r\n    }\r\n\r\n    /**\r\n     * @dev See {IERC20-allowance}.\r\n     */\r\n    function allowance(address owner, address spender) external view virtual override returns (uint256) {\r\n        return _allowances[owner][spender];\r\n    }\r\n\r\n    /**\r\n     * @dev See {IERC20-approve}.\r\n     *\r\n     * Requirements:`\r\n     *\r\n     * - `spender` cannot be the zero address.\r\n     */\r\n    function approve(address spender, uint256 amount) external virtual override returns (bool) {\r\n        _approve(_msgSender(), spender, amount);\r\n        return true;\r\n    }\r\n\r\n    /**   \r\n     * @dev See {IERC20-transferFrom}.\r\n     *\r\n     * Emits an {Approval} event indicating the updated allowance. This is not\r\n     * required by the EIP. See the note at the beginning of {ERC20}.\r\n     *\r\n     * Requirements:\r\n     *\r\n     * - `sender` and `recipient` cannot be the zero address.\r\n     * - `sender` must have a balance of at least `amount`.\r\n     * - the caller must have allowance for ``sender``'s tokens of at least\r\n     * `amount`.\r\n     */\r\n    function transferFrom(address sender, address recipient, uint256 amount) external virtual override returns (bool) {\r\n        _transfer(sender, recipient, amount);\r\n\r\n        uint256 currentAllowance = _allowances[sender][_msgSender()];\r\n        require(currentAllowance >= amount, \"ERC20: transfer amount exceeds allowance\");\r\n        _approve(sender, _msgSender(), currentAllowance - amount);\r\n\r\n        return true;\r\n    }\r\n\r\n    /**\r\n     * @dev Atomically increases the allowance granted to `spender` by the caller.\r\n     *\r\n     * This is an alternative to {approve} that can be used as a mitigation for\r\n     * problems described in {IERC20-approve}.\r\n     *\r\n     * Emits an {Approval} event indicating the updated allowance.\r\n     *\r\n     * Requirements:\r\n     *\r\n     * - `spender` cannot be the zero address.\r\n     */\r\n    function increaseAllowance(address spender, uint256 addedValue) external virtual returns (bool) {\r\n        _approve(_msgSender(), spender, _allowances[_msgSender()][spender] + addedValue);\r\n        return true;\r\n    }\r\n\r\n    /**\r\n     * @dev Atomically decreases the allowance granted to `spender` by the caller.\r\n     *\r\n     * This is an alternative to {approve} that can be used as a mitigation for\r\n     * problems described in {IERC20-approve}.\r\n     *\r\n     * Emits an {Approval} event indicating the updated allowance.\r\n     *\r\n     * Requirements:\r\n     *\r\n     * - `spender` cannot be the zero address.\r\n     * - `spender` must have allowance for the caller of at least\r\n     * `subtractedValue`.\r\n     */\r\n    function decreaseAllowance(address spender, uint256 subtractedValue) external virtual returns (bool) {\r\n        uint256 currentAllowance = _allowances[_msgSender()][spender];\r\n        require(currentAllowance >= subtractedValue, \"ERC20: decreased allowance below zero\");\r\n        unchecked {\r\n            _approve(_msgSender(), spender, currentAllowance - subtractedValue);\r\n        }\r\n\r\n        return true;\r\n    }\r\n\r\n    \r\n    function isExcludedFromReward(address account) external view returns (bool) {\r\n        return _isExcluded[account];\r\n    }\r\n\r\n    function isExcludedFromMaxTx(address account) external view returns (bool) {\r\n        return _isExcludedFromMaxTx[account];\r\n    }\r\n\r\n    function totalFees() external view returns (uint256) {\r\n        return _tFeeTotal;\r\n    }\r\n\r\n    function tokenFromReflection(uint256 rAmount) public view returns(uint256) {\r\n        require(rAmount <= _rTotal, \"Amount must be less than total reflections\");\r\n        uint256 currentRate =  getRate();\r\n        return rAmount.div(currentRate);\r\n    }\r\n\r\n    function excludeFromReward(address account) public onlyOwner {\r\n        require(!_isExcluded[account], \"Account is already included\");\r\n        if(_rOwned[account] > 0) {\r\n            _tOwned[account] = tokenFromReflection(_rOwned[account]);\r\n        }\r\n        _isExcluded[account] = true;\r\n        _excluded.push(account);\r\n    }\r\n\r\n    function includeInReward(address account) public onlyOwner {\r\n        require(_isExcluded[account], \"Account is not excluded\");\r\n        for (uint256 i = 0; i < _excluded.length; i++) {\r\n            if (_excluded[i] == account) {\r\n                _excluded[i] = _excluded[_excluded.length - 1];\r\n                _tOwned[account] = 0;\r\n                _isExcluded[account] = false;\r\n                _excluded.pop();\r\n                break;\r\n            }\r\n        }\r\n    }\r\n    \r\n    function setTaxFeePercent(uint256 fee) external onlyOwner {\r\n        reflectionFee = fee;\r\n        emit SetTaxFeePercent(reflectionFee);\r\n    }\r\n\r\n    function setEnableFee(bool enableTax) external onlyOwner {\r\n        enableFee = enableTax;\r\n        emit FeeEnable(enableTax);\r\n    }\r\n\r\n\r\n    function takeReflectionFee(uint256 rFee, uint256 tFee) internal {\r\n        _rTotal = _rTotal.sub(rFee);\r\n        _tFeeTotal = _tFeeTotal.add(tFee);\r\n        emit RedistributionFee(tFee);\r\n    }\r\n\r\n   function takeLiquidityFee(uint256 rliquidityFee, uint256 tliquidityFee)\r\n        internal\r\n    {\r\n        if (_isExcluded[address(this)]) {\r\n            _rOwned[address(this)] = _rOwned[address(this)].add(rliquidityFee);\r\n        } else {\r\n            _rOwned[address(this)] = _rOwned[address(this)].add(rliquidityFee);\r\n            _tOwned[address(this)] = _tOwned[address(this)].add(tliquidityFee);\r\n        }\r\n        emit liqFee(tliquidityFee);\r\n    }\r\n\r\n    function takeMarketingWalletFee(uint256 rMarketingWalletFee, uint256 tMarketingWalletFee) internal {\r\n       if (_isExcluded[address(devAddress)]) {\r\n            _rOwned[address(devAddress)] = _rOwned[address(devAddress)].add(rMarketingWalletFee);\r\n        } else {\r\n            _rOwned[address(devAddress)] = _rOwned[address(devAddress)].add(rMarketingWalletFee);\r\n            _tOwned[address(devAddress)] = _tOwned[address(devAddress)].add(tMarketingWalletFee);\r\n        }\r\n        emit marketWalletFee(tMarketingWalletFee);\r\n    }\r\n\r\n    function setSwapAndLiquifyEnabled(bool _enabled) public onlyOwner {\r\n        swapAndLiquifyEnabled = _enabled;\r\n        emit SwapAndLiquifyEnabledUpdated(_enabled);\r\n    }\r\n\r\n     //to recieve ETH from uniswapV2Router when swaping\r\n    receive() external payable {}\r\n\r\n    function getTValues(uint256 amount) internal view returns (uint256, uint256, uint256,uint256) {\r\n        uint256 tAmount = amount;\r\n        uint256 tFee = calculateTaxFee(tAmount);\r\n        uint256 tLiquidityFee = calculateLiquidityFee(tAmount);\r\n        uint256 tMarketingWalletFee = calculateMarketingWalletFee(tAmount);\r\n        uint256 tTransferAmount = tAmount.sub(tFee).sub(tLiquidityFee).sub(tMarketingWalletFee);\r\n        return (tTransferAmount, tFee, tLiquidityFee,tMarketingWalletFee);\r\n    }\r\n\r\n    function getRValues(uint256 amount, uint256 tFee, uint256 tLiquidityFee, uint256 tMarketingWalletFee) internal view returns (uint256,uint256, uint256,uint256,uint256) {\r\n        uint256 currentRate = getRate();\r\n        uint256 tAmount = amount;\r\n        uint256 rAmount = tAmount.mul(currentRate);\r\n        uint256 rFee = tFee.mul(currentRate);\r\n        uint256 rLiquidityfee = tLiquidityFee.mul(currentRate);\r\n        uint256 rMarketingWalletFee = tMarketingWalletFee.mul(currentRate);\r\n        uint256 rTransferAmount = rAmount.sub(rFee).sub(rLiquidityfee).sub(rMarketingWalletFee);\r\n        return (rAmount, rTransferAmount, rFee, rLiquidityfee,rMarketingWalletFee);\r\n    }\r\n\r\n    function getRate() internal view returns(uint256) {\r\n        (uint256 rSupply, uint256 tSupply) = getCurrentSupply();\r\n        return rSupply.div(tSupply);\r\n    }\r\n\r\n    function getCurrentSupply() internal view returns(uint256, uint256) {\r\n        uint256 rSupply = _rTotal;\r\n        uint256 tSupply = _tTotal;      \r\n        for (uint256 i = 0; i < _excluded.length; i++) {\r\n            if (_rOwned[_excluded[i]] > rSupply || _tOwned[_excluded[i]] > tSupply) return (_rTotal, _tTotal);\r\n            rSupply = rSupply.sub(_rOwned[_excluded[i]]);\r\n            tSupply = tSupply.sub(_tOwned[_excluded[i]]);\r\n        }\r\n        if (rSupply < _rTotal.div(_tTotal)) return (_rTotal, _tTotal);\r\n        return (rSupply, tSupply);\r\n    }\r\n\r\n      function _takeLiquidity(uint256 tLiquidity) private {\r\n        uint256 currentRate =  getRate();\r\n        uint256 rLiquidity = tLiquidity.mul(currentRate);\r\n        _rOwned[address(this)] = _rOwned[address(this)].add(rLiquidity);\r\n        if(_isExcluded[address(this)])\r\n            _tOwned[address(this)] = _tOwned[address(this)].add(tLiquidity);\r\n    }\r\n    \r\n    function calculateTaxFee(uint256 _amount) internal view returns (uint256) {\r\n        return _amount.mul(reflectionFee).div(\r\n            10**2\r\n        );\r\n    }\r\n\r\n    function calculateLiquidityFee(uint256 _amount) private view returns (uint256) {\r\n        return _amount.mul(liquidityFee).div(\r\n            10**2\r\n        );\r\n    }\r\n    function calculateMarketingWalletFee(uint256 _amount) internal view returns (uint256) {\r\n        return _amount.mul(marketingWalletFee).div(\r\n            10**2\r\n        );\r\n    }\r\n    \r\n    function removeAllFee() internal {\r\n        if(reflectionFee == 0 && liquidityFee == 0 && marketingWalletFee == 0) return;\r\n        \r\n        previousReflectionFee = reflectionFee;\r\n        reflectionFee = 0;\r\n        \r\n        previousLiquidityFee = liquidityFee;\r\n        liquidityFee = 0;\r\n\r\n        previousMarketingWalletFee = marketingWalletFee;\r\n        marketingWalletFee = 0;\r\n    }\r\n \r\n    function restoreAllFee() internal {\r\n        reflectionFee = previousReflectionFee;\r\n        liquidityFee = previousLiquidityFee;\r\n        marketingWalletFee = previousMarketingWalletFee;\r\n    }\r\n\r\n     function isIncludedInFee(address account) external view returns(bool) {\r\n        return _isIncludedInFee[account];\r\n    }\r\n   \r\n    function _approve(address owner, address spender, uint256 amount) internal virtual {\r\n        require(owner != address(0), \"ERC20: approve from the zero address\");\r\n        require(spender != address(0), \"ERC20: approve to the zero address\");\r\n\r\n        _allowances[owner][spender] = amount;\r\n        emit Approval(owner, spender, amount);\r\n    }\r\n\r\n    function _transfer(\r\n        address from,\r\n        address to,\r\n        uint256 amount\r\n    ) internal {\r\n        require(from != address(0), \"ERC20: transfer from the zero address\");\r\n        require(to != address(0), \"ERC20: transfer to the zero address\");\r\n        require(amount > 0, \"Transfer amount must be greater than zero\");\r\n        if(from != owner() && to != owner())\r\n            require(amount <= _maxTxAmount, \"Transfer amount exceeds the maxTxAmount.\");\r\n        \r\n        //_beforeTokenTransfer(from, to);\r\n        \r\n        //uint256 senderBalance = balanceOf(from);\r\n        //require(senderBalance >= amount, \"ERC20: transfer amount exceeds balance\");\r\n        uint256 contractTokenBalance = balanceOf(address(this));\r\n        // bool previousenableFee;\r\n\r\n        //  if(contractTokenBalance >= _maxTxAmount)\r\n        // {\r\n        //     contractTokenBalance = _maxTxAmount;\r\n        // }\r\n        \r\n        bool overMinTokenBalance = contractTokenBalance >= numTokensSellToAddToLiquidity;\r\n       if(overMinTokenBalance && from != uniswapV2Pair){\r\n            if(enableFee){\r\n                enableFee = false;\r\n                taxDisableInLiquidity = true;\r\n            }\r\n            swapAndLiquify(contractTokenBalance);\r\n            if(taxDisableInLiquidity){\r\n                enableFee = true;\r\n            }\r\n        }\r\n\r\n        //indicates if fee should be deducted from transfer\r\n        bool takeFee = true;\r\n         //if any account belongs to _isExcludedFromFee account then remove the fee\r\n        if(_isExcludedFromFee[from] || _isExcludedFromFee[to]){\r\n            takeFee = false;\r\n        }\r\n       \r\n        //transfer amount, it will take tax, burn and charity amount\r\n        _tokenTransfer(from,to,amount,takeFee);\r\n    }\r\n    \r\n    function swapAndLiquify(uint256 contractTokenBalance) private {\r\n        // split the contract balance into halves\r\n        uint256 half = contractTokenBalance.div(2);\r\n        uint256 otherHalf = contractTokenBalance.sub(half);\r\n\r\n        // capture the contract's current ETH balance.\r\n        // this is so that we can capture exactly the amount of ETH that the\r\n        // swap creates, and not make the liquidity event include any ETH that\r\n        // has been manually sent to the contract\r\n        uint256 initialBalance = address(this).balance;\r\n        // swap tokens for ETH\r\n        swapTokensForEth(half); // <- this breaks the ETH -> HATE swap when swap+liquify is triggered\r\n\r\n        // how much ETH did we just swap into?\r\n        uint256 newBalance = address(this).balance.sub(initialBalance);\r\n\r\n        // add liquidity to uniswap\r\n        addLiquidity(otherHalf, newBalance );\r\n        \r\n        emit SwapAndLiquify(half, newBalance, otherHalf);\r\n    }\r\n\r\n    function swapTokensForEth(uint256 tokenAmount) private {\r\n        // generate the uniswap pair path of token -> weth\r\n        address[] memory path = new address[](2);\r\n        path[0] = address(this);\r\n        path[1] = uniswapV2Router.WETH();\r\n\r\n        _approve(address(this), address(uniswapV2Router), tokenAmount);\r\n\r\n        // make the swap\r\n        uniswapV2Router.swapExactTokensForETHSupportingFeeOnTransferTokens(\r\n            tokenAmount,\r\n            0, // accept any amount of ETH\r\n            path,\r\n            address(this),\r\n            block.timestamp\r\n        );\r\n    }\r\n\r\n    function addLiquidity(uint256 tokenAmount, uint256 ethAmount) private {\r\n        // approve token transfer to cover all possible scenarios\r\n        _approve(address(this), address(uniswapV2Router), tokenAmount);\r\n\r\n        // add the liquidity\r\n        uniswapV2Router.addLiquidityETH{value: ethAmount}(\r\n            address(this),\r\n            tokenAmount,\r\n            0, // slippage is unavoidable\r\n            0, // slippage is unavoidable\r\n            owner(),\r\n            block.timestamp\r\n        );\r\n    }\r\n\r\n    //this method is responsible for taking all fee, if takeFee is true\r\n    function _tokenTransfer(address sender, address recipient, uint256 amount,bool takeFee) internal {\r\n        if(!takeFee)\r\n            removeAllFee();\r\n        \r\n        if (_isExcluded[sender] && !_isExcluded[recipient]) {\r\n            _transferFromExcluded(sender, recipient, amount);\r\n        } else if (!_isExcluded[sender] && _isExcluded[recipient]) {\r\n            _transferToExcluded(sender, recipient, amount);\r\n        } else if (_isExcluded[sender] && _isExcluded[recipient]) {\r\n            _transferBothExcluded(sender, recipient, amount);\r\n        } else {\r\n            _transferStandard(sender, recipient, amount);\r\n        }\r\n        \r\n        if(!takeFee)\r\n            restoreAllFee();\r\n    }\r\n  \r\n    function _transferStandard(address sender, address recipient, uint256 tAmount) internal {\r\n        (uint256 tTransferAmount, uint256 tFee, uint256 tLiquidityFee, uint256 tMarketingWalletFee) = getTValues(tAmount);\r\n        (uint256 rAmount, uint256 rTransferAmount, uint256 rFee,uint256 rLiquidityFee,uint256 rMarketingWalletFee) = getRValues(tAmount, tFee, tLiquidityFee,tMarketingWalletFee);\r\n\r\n        _rOwned[sender] = _rOwned[sender].sub(rAmount);\r\n        _rOwned[recipient] = _rOwned[recipient].add(rTransferAmount);\r\n        takeReflectionFee(rFee, tFee);\r\n        takeLiquidityFee(rLiquidityFee, tLiquidityFee);\r\n        takeMarketingWalletFee(rMarketingWalletFee, tMarketingWalletFee);\r\n        emit Transfer(sender, recipient, tTransferAmount);\r\n\r\n    }\r\n    \r\n    function _transferBothExcluded(address sender, address recipient, uint256 tAmount) internal {\r\n        (uint256 tTransferAmount, uint256 tFee,uint256 tLiquidityFee, uint256 tMarketingWalletFee) = getTValues(tAmount);\r\n        (uint256 rAmount, uint256 rTransferAmount, uint256 rFee, uint256 rLiquidityFee, uint256 rMarketingWalletFee) = getRValues(tAmount, tFee,tLiquidityFee,tMarketingWalletFee);\r\n\r\n        _tOwned[sender] = _tOwned[sender].sub(tAmount);\r\n        _rOwned[sender] = _rOwned[sender].sub(rAmount);\r\n        _tOwned[recipient] = _tOwned[recipient].add(tTransferAmount);\r\n        _rOwned[recipient] = _rOwned[recipient].add(rTransferAmount);        \r\n        takeReflectionFee(rFee, tFee);\r\n        takeLiquidityFee(rLiquidityFee, tLiquidityFee);\r\n        takeMarketingWalletFee(rMarketingWalletFee, tMarketingWalletFee);\r\n        emit Transfer(sender, recipient, tTransferAmount);\r\n\r\n    }\r\n    \r\n    function _transferToExcluded(address sender, address recipient, uint256 tAmount) internal {\r\n        (uint256 tTransferAmount, uint256 tFee, uint256 tLiquidityFee, uint256 tMarketingWalletFee) = getTValues(tAmount);\r\n        (uint256 rAmount, uint256 rTransferAmount, uint256 rFee, uint256 rLiquidityFee, uint256 rMarketingWalletFee) = getRValues(tAmount, tFee,tLiquidityFee,tMarketingWalletFee);\r\n        _rOwned[sender] = _rOwned[sender].sub(rAmount);\r\n        _tOwned[recipient] = _tOwned[recipient].add(tTransferAmount);\r\n        _rOwned[recipient] = _rOwned[recipient].add(rTransferAmount);           \r\n        takeReflectionFee(rFee, tFee);\r\n        takeLiquidityFee(rLiquidityFee, tLiquidityFee);\r\n        takeMarketingWalletFee(rMarketingWalletFee, tMarketingWalletFee);\r\n        emit Transfer(sender, recipient, tTransferAmount);\r\n    }\r\n\r\n    function _transferFromExcluded(address sender, address recipient, uint256 tAmount) internal {\r\n        (uint256 tTransferAmount, uint256 tFee, uint256 tLiquidityFee, uint256 tMarketingWalletFee) = getTValues(tAmount);\r\n        (uint256 rAmount, uint256 rTransferAmount, uint256 rFee, uint256 rLiquidityFee, uint256 rMarketingWalletFee) = getRValues(tAmount, tFee,tLiquidityFee,tMarketingWalletFee);\r\n        _tOwned[sender] = _tOwned[sender].sub(tAmount);\r\n        _rOwned[sender] = _rOwned[sender].sub(rAmount);\r\n        _rOwned[recipient] = _rOwned[recipient].add(rTransferAmount);   \r\n        takeReflectionFee(rFee, tFee);\r\n        takeLiquidityFee(rLiquidityFee, tLiquidityFee);\r\n        takeMarketingWalletFee(rMarketingWalletFee, tMarketingWalletFee);\r\n        emit Transfer(sender, recipient, tTransferAmount);\r\n    }\r\n\r\n     function withdrawToken(address _tokenContract, uint256 _amount)\r\n        external\r\n        onlyOwner\r\n    {\r\n        require(_tokenContract != address(0), \"Address cant be zero address\");\r\n        IERC20 tokenContract = IERC20(_tokenContract);\r\n        tokenContract.transfer(msg.sender, _amount);\r\n        emit ExternalTokenTransfered(_tokenContract, msg.sender, _amount);\r\n    }\r\n\r\n\r\n    function _beforeTokenTransfer(address from, address to) internal virtual { \r\n    }\r\n}",
  "sourcePath": "E:\\Geetha\\Blockchain\\ENEXT_contract\\contracts\\ExplorationNext.sol",
  "compiler": {
    "name": "solc",
    "version": "0.8.0+commit.c7dfd78e.Emscripten.clang"
  },
  "schemaVersion": "3.4.3",
  "updatedAt": "2021-11-29T10:13:59.678Z",
  "networkType": "ethereum",
  "devdoc": {
    "kind": "dev",
    "methods": {
      "allowance(address,address)": {
        "details": "See {IERC20-allowance}."
      },
      "approve(address,uint256)": {
        "details": "See {IERC20-approve}. Requirements:` - `spender` cannot be the zero address."
      },
      "balanceOf(address)": {
        "details": "See {IERC20-balanceOf}."
      },
      "decreaseAllowance(address,uint256)": {
        "details": "Atomically decreases the allowance granted to `spender` by the caller. This is an alternative to {approve} that can be used as a mitigation for problems described in {IERC20-approve}. Emits an {Approval} event indicating the updated allowance. Requirements: - `spender` cannot be the zero address. - `spender` must have allowance for the caller of at least `subtractedValue`."
      },
      "increaseAllowance(address,uint256)": {
        "details": "Atomically increases the allowance granted to `spender` by the caller. This is an alternative to {approve} that can be used as a mitigation for problems described in {IERC20-approve}. Emits an {Approval} event indicating the updated allowance. Requirements: - `spender` cannot be the zero address."
      },
      "owner()": {
        "details": "Returns the address of the current owner."
      },
      "renounceOwnership()": {
        "details": "Leaves the contract without owner. It will not be possible to call `onlyOwner` functions anymore. Can only be called by the current owner. NOTE: Renouncing ownership will leave the contract without an owner, thereby removing any functionality that is only available to the owner."
      },
      "totalSupply()": {
        "details": "See {IERC20-totalSupply}."
      },
      "transfer(address,uint256)": {
        "details": "See {IERC20-transfer}. Requirements: - `recipient` cannot be the zero address. - the caller must have a balance of at least `amount`."
      },
      "transferFrom(address,address,uint256)": {
        "details": "See {IERC20-transferFrom}. Emits an {Approval} event indicating the updated allowance. This is not required by the EIP. See the note at the beginning of {ERC20}. Requirements: - `sender` and `recipient` cannot be the zero address. - `sender` must have a balance of at least `amount`. - the caller must have allowance for ``sender``'s tokens of at least `amount`."
      },
      "transferOwnership(address)": {
        "details": "Transfers ownership of the contract to a new account (`newOwner`). Can only be called by the current owner."
      }
    },
    "version": 1
  },
  "userdoc": {
    "kind": "user",
    "methods": {
      "decimals()": {
        "notice": "Returns the number of decimals "
      },
      "name()": {
        "notice": "Returns the name of the token."
      },
      "symbol()": {
        "notice": "Returns the symbol of the token."
      }
    },
    "version": 1
  }
}