{
  "contractName": "ExplorationNext",
  "abi": [
    {
      "inputs": [],
      "stateMutability": "nonpayable",
      "type": "constructor"
    },
    {
      "anonymous": false,
      "inputs": [
        {
          "indexed": true,
          "internalType": "address",
          "name": "owner",
          "type": "address"
        },
        {
          "indexed": true,
          "internalType": "address",
          "name": "spender",
          "type": "address"
        },
        {
          "indexed": false,
          "internalType": "uint256",
          "name": "value",
          "type": "uint256"
        }
      ],
      "name": "Approval",
      "type": "event"
    },
    {
      "anonymous": false,
      "inputs": [
        {
          "indexed": false,
          "internalType": "address",
          "name": "externalAddress",
          "type": "address"
        },
        {
          "indexed": false,
          "internalType": "address",
          "name": "toAddress",
          "type": "address"
        },
        {
          "indexed": false,
          "internalType": "uint256",
          "name": "amount",
          "type": "uint256"
        }
      ],
      "name": "ExternalTokenTransfered",
      "type": "event"
    },
    {
      "anonymous": false,
      "inputs": [
        {
          "indexed": false,
          "internalType": "bool",
          "name": "enableFee",
          "type": "bool"
        }
      ],
      "name": "FeeEnable",
      "type": "event"
    },
    {
      "anonymous": false,
      "inputs": [
        {
          "indexed": true,
          "internalType": "address",
          "name": "previousOwner",
          "type": "address"
        },
        {
          "indexed": true,
          "internalType": "address",
          "name": "newOwner",
          "type": "address"
        }
      ],
      "name": "OwnershipTransferred",
      "type": "event"
    },
    {
      "anonymous": false,
      "inputs": [
        {
          "indexed": false,
          "internalType": "uint256",
          "name": "amount",
          "type": "uint256"
        }
      ],
      "name": "RedistributionFee",
      "type": "event"
    },
    {
      "anonymous": false,
      "inputs": [
        {
          "indexed": false,
          "internalType": "uint256",
          "name": "maxPercent",
          "type": "uint256"
        }
      ],
      "name": "SetMaxTxPercent",
      "type": "event"
    },
    {
      "anonymous": false,
      "inputs": [
        {
          "indexed": false,
          "internalType": "uint256",
          "name": "taxFeePercent",
          "type": "uint256"
        }
      ],
      "name": "SetTaxFeePercent",
      "type": "event"
    },
    {
      "anonymous": false,
      "inputs": [
        {
          "indexed": false,
          "internalType": "uint256",
          "name": "tokensSwapped",
          "type": "uint256"
        },
        {
          "indexed": false,
          "internalType": "uint256",
          "name": "ethReceived",
          "type": "uint256"
        },
        {
          "indexed": false,
          "internalType": "uint256",
          "name": "tokensIntoLiqudity",
          "type": "uint256"
        }
      ],
      "name": "SwapAndLiquify",
      "type": "event"
    },
    {
      "anonymous": false,
      "inputs": [
        {
          "indexed": false,
          "internalType": "bool",
          "name": "enabled",
          "type": "bool"
        }
      ],
      "name": "SwapAndLiquifyEnabledUpdated",
      "type": "event"
    },
    {
      "anonymous": false,
      "inputs": [
        {
          "indexed": true,
          "internalType": "address",
          "name": "from",
          "type": "address"
        },
        {
          "indexed": true,
          "internalType": "address",
          "name": "to",
          "type": "address"
        },
        {
          "indexed": false,
          "internalType": "uint256",
          "name": "value",
          "type": "uint256"
        }
      ],
      "name": "Transfer",
      "type": "event"
    },
    {
      "anonymous": false,
      "inputs": [
        {
          "indexed": false,
          "internalType": "uint256",
          "name": "amount",
          "type": "uint256"
        }
      ],
      "name": "liqFee",
      "type": "event"
    },
    {
      "anonymous": false,
      "inputs": [
        {
          "indexed": false,
          "internalType": "uint256",
          "name": "amount",
          "type": "uint256"
        }
      ],
      "name": "marketWalletFee",
      "type": "event"
    },
    {
      "inputs": [],
      "name": "enableFee",
      "outputs": [
        {
          "internalType": "bool",
          "name": "",
          "type": "bool"
        }
      ],
      "stateMutability": "view",
      "type": "function",
      "constant": true
    },
    {
      "inputs": [],
      "name": "liquidityFee",
      "outputs": [
        {
          "internalType": "uint256",
          "name": "",
          "type": "uint256"
        }
      ],
      "stateMutability": "view",
      "type": "function",
      "constant": true
    },
    {
      "inputs": [],
      "name": "marketingWalletFee",
      "outputs": [
        {
          "internalType": "uint256",
          "name": "",
          "type": "uint256"
        }
      ],
      "stateMutability": "view",
      "type": "function",
      "constant": true
    },
    {
      "inputs": [],
      "name": "minLiquidityToken",
      "outputs": [
        {
          "internalType": "uint256",
          "name": "",
          "type": "uint256"
        }
      ],
      "stateMutability": "view",
      "type": "function",
      "constant": true
    },
    {
      "inputs": [],
      "name": "owner",
      "outputs": [
        {
          "internalType": "address",
          "name": "",
          "type": "address"
        }
      ],
      "stateMutability": "view",
      "type": "function",
      "constant": true
    },
    {
      "inputs": [],
      "name": "reflectionFee",
      "outputs": [
        {
          "internalType": "uint256",
          "name": "",
          "type": "uint256"
        }
      ],
      "stateMutability": "view",
      "type": "function",
      "constant": true
    },
    {
      "inputs": [],
      "name": "renounceOwnership",
      "outputs": [],
      "stateMutability": "nonpayable",
      "type": "function"
    },
    {
      "inputs": [],
      "name": "swapAndLiquifyEnabled",
      "outputs": [
        {
          "internalType": "bool",
          "name": "",
          "type": "bool"
        }
      ],
      "stateMutability": "view",
      "type": "function",
      "constant": true
    },
    {
      "inputs": [
        {
          "internalType": "address",
          "name": "newOwner",
          "type": "address"
        }
      ],
      "name": "transferOwnership",
      "outputs": [],
      "stateMutability": "nonpayable",
      "type": "function"
    },
    {
      "inputs": [],
      "name": "uniswapV2Pair",
      "outputs": [
        {
          "internalType": "address",
          "name": "",
          "type": "address"
        }
      ],
      "stateMutability": "view",
      "type": "function",
      "constant": true
    },
    {
      "inputs": [],
      "name": "uniswapV2Router",
      "outputs": [
        {
          "internalType": "contract IUniswapV2Router02",
          "name": "",
          "type": "address"
        }
      ],
      "stateMutability": "view",
      "type": "function",
      "constant": true
    },
    {
      "stateMutability": "payable",
      "type": "receive",
      "payable": true
    },
    {
      "inputs": [],
      "name": "name",
      "outputs": [
        {
          "internalType": "string",
          "name": "",
          "type": "string"
        }
      ],
      "stateMutability": "view",
      "type": "function",
      "constant": true
    },
    {
      "inputs": [],
      "name": "symbol",
      "outputs": [
        {
          "internalType": "string",
          "name": "",
          "type": "string"
        }
      ],
      "stateMutability": "view",
      "type": "function",
      "constant": true
    },
    {
      "inputs": [],
      "name": "decimals",
      "outputs": [
        {
          "internalType": "uint8",
          "name": "",
          "type": "uint8"
        }
      ],
      "stateMutability": "view",
      "type": "function",
      "constant": true
    },
    {
      "inputs": [],
      "name": "totalSupply",
      "outputs": [
        {
          "internalType": "uint256",
          "name": "",
          "type": "uint256"
        }
      ],
      "stateMutability": "view",
      "type": "function",
      "constant": true
    },
    {
      "inputs": [
        {
          "internalType": "address",
          "name": "account",
          "type": "address"
        }
      ],
      "name": "balanceOf",
      "outputs": [
        {
          "internalType": "uint256",
          "name": "",
          "type": "uint256"
        }
      ],
      "stateMutability": "view",
      "type": "function",
      "constant": true
    },
    {
      "inputs": [
        {
          "internalType": "address",
          "name": "recipient",
          "type": "address"
        },
        {
          "internalType": "uint256",
          "name": "amount",
          "type": "uint256"
        }
      ],
      "name": "transfer",
      "outputs": [
        {
          "internalType": "bool",
          "name": "",
          "type": "bool"
        }
      ],
      "stateMutability": "nonpayable",
      "type": "function"
    },
    {
      "inputs": [
        {
          "internalType": "address",
          "name": "owner",
          "type": "address"
        },
        {
          "internalType": "address",
          "name": "spender",
          "type": "address"
        }
      ],
      "name": "allowance",
      "outputs": [
        {
          "internalType": "uint256",
          "name": "",
          "type": "uint256"
        }
      ],
      "stateMutability": "view",
      "type": "function",
      "constant": true
    },
    {
      "inputs": [
        {
          "internalType": "address",
          "name": "spender",
          "type": "address"
        },
        {
          "internalType": "uint256",
          "name": "amount",
          "type": "uint256"
        }
      ],
      "name": "approve",
      "outputs": [
        {
          "internalType": "bool",
          "name": "",
          "type": "bool"
        }
      ],
      "stateMutability": "nonpayable",
      "type": "function"
    },
    {
      "inputs": [
        {
          "internalType": "address",
          "name": "sender",
          "type": "address"
        },
        {
          "internalType": "address",
          "name": "recipient",
          "type": "address"
        },
        {
          "internalType": "uint256",
          "name": "amount",
          "type": "uint256"
        }
      ],
      "name": "transferFrom",
      "outputs": [
        {
          "internalType": "bool",
          "name": "",
          "type": "bool"
        }
      ],
      "stateMutability": "nonpayable",
      "type": "function"
    },
    {
      "inputs": [
        {
          "internalType": "address",
          "name": "spender",
          "type": "address"
        },
        {
          "internalType": "uint256",
          "name": "addedValue",
          "type": "uint256"
        }
      ],
      "name": "increaseAllowance",
      "outputs": [
        {
          "internalType": "bool",
          "name": "",
          "type": "bool"
        }
      ],
      "stateMutability": "nonpayable",
      "type": "function"
    },
    {
      "inputs": [
        {
          "internalType": "address",
          "name": "spender",
          "type": "address"
        },
        {
          "internalType": "uint256",
          "name": "subtractedValue",
          "type": "uint256"
        }
      ],
      "name": "decreaseAllowance",
      "outputs": [
        {
          "internalType": "bool",
          "name": "",
          "type": "bool"
        }
      ],
      "stateMutability": "nonpayable",
      "type": "function"
    },
    {
      "inputs": [],
      "name": "totalFees",
      "outputs": [
        {
          "internalType": "uint256",
          "name": "",
          "type": "uint256"
        }
      ],
      "stateMutability": "view",
      "type": "function",
      "constant": true
    },
    {
      "inputs": [
        {
          "internalType": "uint256",
          "name": "rAmount",
          "type": "uint256"
        }
      ],
      "name": "tokenFromReflection",
      "outputs": [
        {
          "internalType": "uint256",
          "name": "",
          "type": "uint256"
        }
      ],
      "stateMutability": "view",
      "type": "function",
      "constant": true
    },
    {
      "inputs": [
        {
          "internalType": "address",
          "name": "account",
          "type": "address"
        }
      ],
      "name": "excludeFromReward",
      "outputs": [],
      "stateMutability": "nonpayable",
      "type": "function"
    },
    {
      "inputs": [
        {
          "internalType": "address",
          "name": "account",
          "type": "address"
        }
      ],
      "name": "includeInReward",
      "outputs": [],
      "stateMutability": "nonpayable",
      "type": "function"
    },
    {
      "inputs": [
        {
          "internalType": "address",
          "name": "account",
          "type": "address"
        }
      ],
      "name": "isExcludedFromReward",
      "outputs": [
        {
          "internalType": "bool",
          "name": "",
          "type": "bool"
        }
      ],
      "stateMutability": "view",
      "type": "function",
      "constant": true
    },
    {
      "inputs": [
        {
          "internalType": "uint256",
          "name": "fee",
          "type": "uint256"
        }
      ],
      "name": "setTaxFeePercent",
      "outputs": [],
      "stateMutability": "nonpayable",
      "type": "function"
    },
    {
      "inputs": [
        {
          "internalType": "bool",
          "name": "enableTax",
          "type": "bool"
        }
      ],
      "name": "setEnableFee",
      "outputs": [],
      "stateMutability": "nonpayable",
      "type": "function"
    },
    {
      "inputs": [
        {
          "internalType": "bool",
          "name": "_enabled",
          "type": "bool"
        }
      ],
      "name": "setSwapAndLiquifyEnabled",
      "outputs": [],
      "stateMutability": "nonpayable",
      "type": "function"
    },
    {
      "inputs": [
        {
          "internalType": "address",
          "name": "_tokenContract",
          "type": "address"
        },
        {
          "internalType": "uint256",
          "name": "_amount",
          "type": "uint256"
        }
      ],
      "name": "withdrawToken",
      "outputs": [],
      "stateMutability": "nonpayable",
      "type": "function"
    }
  ],
  "bytecode": "0x60c06040526200001e6b01401e70099fcb3a63000000600019620005a6565b6200002c9060001962000513565b60065560408051808201909152600f8082527f4578706c6f726174696f6e4e6578740000000000000000000000000000000000602090920191825262000075916008916200041a565b506040805180820190915260058082527f454e4558540000000000000000000000000000000000000000000000000000006020909201918252620000bc916009916200041a565b50600a805460ff191660129081179091556003600b819055600c556002600d819055600e556001600f8190556010556011805474ddb9a4461e5ff9f8035770e81209979d722697d400610100600160a81b0319909116179055805460ff60a81b196001600160a01b0319909116737a250d5630b4cf539739df2c5dacb4c659f2488d171675010000000000000000000000000000000000000000001790556802b5e3af16b18800006013553480156200017457600080fd5b506200018962000183620003c6565b620003ca565b600654600160006200019a620003c6565b6001600160a01b03908116825260208083019390935260409182016000209390935560125481517fc45a01550000000000000000000000000000000000000000000000000000000081529151931692839263c45a01559260048082019391829003018186803b1580156200020d57600080fd5b505afa15801562000222573d6000803e3d6000fd5b505050506040513d601f19601f82011682018060405250810190620002489190620004c0565b6001600160a01b031663c9c6539630836001600160a01b031663ad5c46486040518163ffffffff1660e01b815260040160206040518083038186803b1580156200029157600080fd5b505afa158015620002a6573d6000803e3d6000fd5b505050506040513d601f19601f82011682018060405250810190620002cc9190620004c0565b6040518363ffffffff1660e01b8152600401620002eb929190620004f0565b602060405180830381600087803b1580156200030657600080fd5b505af11580156200031b573d6000803e3d6000fd5b505050506040513d601f19601f82011682018060405250810190620003419190620004c0565b6001600160601b0319606091821b811660a0529082901b1660805262000366620003c6565b6001600160a01b031660006001600160a01b03167fddf252ad1be2c89b69c2b068fc378daa952ba7f163c4a11628f55a4df523b3ef6b01401e70099fcb3a63000000604051620003b791906200050a565b60405180910390a350620005e0565b3390565b600080546001600160a01b038381166001600160a01b0319831681178455604051919092169283917f8be0079c531659141344cd1fd0a4f28419497f9722a3daafe3b4186f6b6457e09190a35050565b828054620004289062000550565b90600052602060002090601f0160209004810192826200044c576000855562000497565b82601f106200046757805160ff191683800117855562000497565b8280016001018555821562000497579182015b82811115620004975782518255916020019190600101906200047a565b50620004a5929150620004a9565b5090565b5b80821115620004a55760008155600101620004aa565b600060208284031215620004d2578081fd5b81516001600160a01b0381168114620004e9578182fd5b9392505050565b6001600160a01b0392831681529116602082015260400190565b90815260200190565b6000828210156200054b577f4e487b710000000000000000000000000000000000000000000000000000000081526011600452602481fd5b500390565b6002810460018216806200056557607f821691505b60208210811415620005a0577f4e487b7100000000000000000000000000000000000000000000000000000000600052602260045260246000fd5b50919050565b600082620005db577f4e487b710000000000000000000000000000000000000000000000000000000081526012600452602481fd5b500690565b60805160601c60a05160601c6127f862000636600039600081816109f2015261112b0152600081816106ae015281816116aa01528181611780015281816117bc01528181611836015261185d01526127f86000f3fe6080604052600436106101dc5760003560e01c806370a0823111610102578063a457c2d711610095578063c49b9a8011610064578063c49b9a80146104ef578063d8e002711461050f578063dd62ed3e1461052f578063f2fde38b1461054f576101e3565b8063a457c2d714610485578063a9059cbb146104a5578063b7b933c3146104c5578063bf8d31f0146104da576101e3565b80638da5cb5b116100d15780638da5cb5b1461042657806395d89b411461043b57806398118cb4146104505780639e281a9814610465576101e3565b806370a08231146103bc578063715018a6146103dc57806383ad7994146103f157806388f8202014610406576101e3565b80632d8381191161017a5780633950935111610149578063395093511461035257806349bd5a5e146103725780634a74bb021461038757806352390c021461039c576101e3565b80632d838119146102db57806330d2091d146102fb578063313ce567146103105780633685d41914610332576101e3565b806313114a9d116101b657806313114a9d146102625780631694505e1461028457806318160ddd146102a657806323b872dd146102bb576101e3565b8063061c82d0146101e857806306fdde031461020a578063095ea7b314610235576101e3565b366101e357005b600080fd5b3480156101f457600080fd5b50610208610203366004612165565b61056f565b005b34801561021657600080fd5b5061021f6105f7565b60405161022c9190612241565b60405180910390f35b34801561024157600080fd5b50610255610250366004612102565b610689565b60405161022c9190612236565b34801561026e57600080fd5b506102776106a6565b60405161022c9190612628565b34801561029057600080fd5b506102996106ac565b60405161022c91906121aa565b3480156102b257600080fd5b506102776106d0565b3480156102c757600080fd5b506102556102d63660046120c2565b6106e0565b3480156102e757600080fd5b506102776102f6366004612165565b610777565b34801561030757600080fd5b506102556107ba565b34801561031c57600080fd5b506103256107c3565b60405161022c91906126b7565b34801561033e57600080fd5b5061020861034d366004612052565b6107cc565b34801561035e57600080fd5b5061025561036d366004612102565b6109a1565b34801561037e57600080fd5b506102996109f0565b34801561039357600080fd5b50610255610a14565b3480156103a857600080fd5b506102086103b7366004612052565b610a24565b3480156103c857600080fd5b506102776103d7366004612052565b610b5c565b3480156103e857600080fd5b50610208610bc4565b3480156103fd57600080fd5b50610277610c0f565b34801561041257600080fd5b50610255610421366004612052565b610c15565b34801561043257600080fd5b50610299610c33565b34801561044757600080fd5b5061021f610c42565b34801561045c57600080fd5b50610277610c51565b34801561047157600080fd5b50610208610480366004612102565b610c57565b34801561049157600080fd5b506102556104a0366004612102565b610d7f565b3480156104b157600080fd5b506102556104c0366004612102565b610df8565b3480156104d157600080fd5b50610277610e0c565b3480156104e657600080fd5b50610277610e12565b3480156104fb57600080fd5b5061020861050a36600461212d565b610e18565b34801561051b57600080fd5b5061020861052a36600461212d565b610e9e565b34801561053b57600080fd5b5061027761054a36600461208a565b610f1b565b34801561055b57600080fd5b5061020861056a366004612052565b610f46565b610577610fb7565b6001600160a01b0316610588610c33565b6001600160a01b0316146105b75760405162461bcd60e51b81526004016105ae906124a5565b60405180910390fd5b600b8190556040517f19da908cae03512cf29c19a5842b2904a06fd24ef9982759c78f9379831ed70f906105ec908390612628565b60405180910390a150565b60606008805461060690612733565b80601f016020809104026020016040519081016040528092919081815260200182805461063290612733565b801561067f5780601f106106545761010080835404028352916020019161067f565b820191906000526020600020905b81548152906001019060200180831161066257829003601f168201915b5050505050905090565b600061069d610696610fb7565b8484610fbb565b50600192915050565b60075490565b7f000000000000000000000000000000000000000000000000000000000000000081565b6b01401e70099fcb3a6300000090565b60006106ed84848461106f565b6001600160a01b03841660009081526003602052604081208161070e610fb7565b6001600160a01b03166001600160a01b03168152602001908152602001600020549050828110156107515760405162461bcd60e51b81526004016105ae9061245d565b61076c8561075d610fb7565b610767868561271c565b610fbb565b506001949350505050565b600060065482111561079b5760405162461bcd60e51b81526004016105ae906122d7565b60006107a5611209565b90506107b1838261122c565b9150505b919050565b60115460ff1681565b600a5460ff1690565b6107d4610fb7565b6001600160a01b03166107e5610c33565b6001600160a01b03161461080b5760405162461bcd60e51b81526004016105ae906124a5565b6001600160a01b03811660009081526004602052604090205460ff166108435760405162461bcd60e51b81526004016105ae906123ef565b60005b60055481101561099d57816001600160a01b03166005828154811061087b57634e487b7160e01b600052603260045260246000fd5b6000918252602090912001546001600160a01b0316141561098b57600580546108a69060019061271c565b815481106108c457634e487b7160e01b600052603260045260246000fd5b600091825260209091200154600580546001600160a01b0390921691839081106108fe57634e487b7160e01b600052603260045260246000fd5b600091825260208083209190910180546001600160a01b0319166001600160a01b039485161790559184168152600282526040808220829055600490925220805460ff19169055600580548061096457634e487b7160e01b600052603160045260246000fd5b600082815260209020810160001990810180546001600160a01b031916905501905561099d565b806109958161276e565b915050610846565b5050565b600061069d6109ae610fb7565b8484600360006109bc610fb7565b6001600160a01b03908116825260208083019390935260409182016000908120918b168152925290205461076791906126c5565b7f000000000000000000000000000000000000000000000000000000000000000081565b601254600160a81b900460ff1681565b610a2c610fb7565b6001600160a01b0316610a3d610c33565b6001600160a01b031614610a635760405162461bcd60e51b81526004016105ae906124a5565b6001600160a01b03811660009081526004602052604090205460ff1615610a9c5760405162461bcd60e51b81526004016105ae90612426565b6001600160a01b03811660009081526001602052604090205415610af6576001600160a01b038116600090815260016020526040902054610adc90610777565b6001600160a01b0382166000908152600260205260409020555b6001600160a01b03166000818152600460205260408120805460ff191660019081179091556005805491820181559091527f036b6384b5eca791c62761152d0c79bb0604c104a5fb6f4eb0703f3154bb3db00180546001600160a01b0319169091179055565b6001600160a01b03811660009081526004602052604081205460ff1615610b9c57506001600160a01b0381166000908152600260205260409020546107b5565b6001600160a01b038216600090815260016020526040902054610bbe90610777565b92915050565b610bcc610fb7565b6001600160a01b0316610bdd610c33565b6001600160a01b031614610c035760405162461bcd60e51b81526004016105ae906124a5565b610c0d600061123f565b565b600b5481565b6001600160a01b031660009081526004602052604090205460ff1690565b6000546001600160a01b031690565b60606009805461060690612733565b600f5481565b610c5f610fb7565b6001600160a01b0316610c70610c33565b6001600160a01b031614610c965760405162461bcd60e51b81526004016105ae906124a5565b6001600160a01b038216610cbc5760405162461bcd60e51b81526004016105ae90612523565b60405163a9059cbb60e01b815282906001600160a01b0382169063a9059cbb90610cec90339086906004016121e2565b602060405180830381600087803b158015610d0657600080fd5b505af1158015610d1a573d6000803e3d6000fd5b505050506040513d601f19601f82011682018060405250810190610d3e9190612149565b507f5c5578c78fc9b87943279247ef36abf638b9551372bb769b5d87d1ae6a31be64833384604051610d72939291906121be565b60405180910390a1505050565b60008060036000610d8e610fb7565b6001600160a01b0390811682526020808301939093526040918201600090812091881681529252902054905082811015610dda5760405162461bcd60e51b81526004016105ae906125e3565b610dee610de5610fb7565b85858403610fbb565b5060019392505050565b600061069d610e05610fb7565b848461106f565b60135481565b600d5481565b610e20610fb7565b6001600160a01b0316610e31610c33565b6001600160a01b031614610e575760405162461bcd60e51b81526004016105ae906124a5565b6012805460ff60a81b1916600160a81b831515021790556040517f53726dfcaf90650aa7eb35524f4d3220f07413c8d6cb404cc8c18bf5591bc159906105ec908390612236565b610ea6610fb7565b6001600160a01b0316610eb7610c33565b6001600160a01b031614610edd5760405162461bcd60e51b81526004016105ae906124a5565b6011805460ff19168215151790556040517fd93972947b6f619cc048053ab8874f9f4fc05ac3e2e41a2c689a1e520066750f906105ec908390612236565b6001600160a01b03918216600090815260036020908152604080832093909416825291909152205490565b610f4e610fb7565b6001600160a01b0316610f5f610c33565b6001600160a01b031614610f855760405162461bcd60e51b81526004016105ae906124a5565b6001600160a01b038116610fab5760405162461bcd60e51b81526004016105ae90612321565b610fb48161123f565b50565b3390565b6001600160a01b038316610fe15760405162461bcd60e51b81526004016105ae9061259f565b6001600160a01b0382166110075760405162461bcd60e51b81526004016105ae90612367565b6001600160a01b0380841660008181526003602090815260408083209487168084529490915290819020849055517f8c5be1e5ebec7d5bd14f71427d1e84f3dd0314c0f7b2291e5b200ac8c7c3b92590611062908590612628565b60405180910390a3505050565b6001600160a01b0383166110955760405162461bcd60e51b81526004016105ae9061255a565b6001600160a01b0382166110bb5760405162461bcd60e51b81526004016105ae90612294565b600081116110db5760405162461bcd60e51b81526004016105ae906124da565b6110e5838361099d565b60006110f084610b5c565b905060006110fd30610b5c565b90506000601354821015905060008180156111225750601254600160a01b900460ff16155b801561116057507f00000000000000000000000000000000000000000000000000000000000000006001600160a01b0316876001600160a01b031614155b80156111755750601254600160a81b900460ff165b156111c25760115460ff1615156001141561119b57506011805460ff19811690915560ff165b60135492506111a98361128f565b600181151514156111c2576011805460ff191660011790555b848410156111e25760405162461bcd60e51b81526004016105ae906123a9565b60115460019060ff166111f3575060005b6111ff88888884611332565b5050505050505050565b6000806000611216611454565b9092509050611225828261122c565b9250505090565b600061123882846126dd565b9392505050565b600080546001600160a01b038381166001600160a01b0319831681178455604051919092169283917f8be0079c531659141344cd1fd0a4f28419497f9722a3daafe3b4186f6b6457e09190a35050565b6012805460ff60a01b1916600160a01b17905560006112af82600261122c565b905060006112bd8383611639565b905030316112ca83611645565b60006112d7303183611639565b90506112e38382611830565b7f17bbfb9a6069321b6ded73bd96327c9e6b7212a5cd51ff219cd61370acafb561848285604051611316939291906126a1565b60405180910390a150506012805460ff60a01b19169055505050565b8061133f5761133f611913565b6001600160a01b03841660009081526004602052604090205460ff16801561138057506001600160a01b03831660009081526004602052604090205460ff16155b156113955761139084848461195a565b611441565b6001600160a01b03841660009081526004602052604090205460ff161580156113d657506001600160a01b03831660009081526004602052604090205460ff165b156113e657611390848484611abb565b6001600160a01b03841660009081526004602052604090205460ff16801561142657506001600160a01b03831660009081526004602052604090205460ff165b1561143657611390848484611b93565b611441848484611c34565b8061144e5761144e611ca6565b50505050565b60065460009081906b01401e70099fcb3a63000000825b6005548110156115f35782600160006005848154811061149b57634e487b7160e01b600052603260045260246000fd5b60009182526020808320909101546001600160a01b03168352820192909252604001902054118061151457508160026000600584815481106114ed57634e487b7160e01b600052603260045260246000fd5b60009182526020808320909101546001600160a01b03168352820192909252604001902054115b15611535576006546b01401e70099fcb3a6300000094509450505050611635565b611589600160006005848154811061155d57634e487b7160e01b600052603260045260246000fd5b60009182526020808320909101546001600160a01b031683528201929092526040019020548490611639565b92506115df60026000600584815481106115b357634e487b7160e01b600052603260045260246000fd5b60009182526020808320909101546001600160a01b031683528201929092526040019020548390611639565b9150806115eb8161276e565b91505061146b565b5060065461160d906b01401e70099fcb3a6300000061122c565b82101561162f576006546b01401e70099fcb3a63000000935093505050611635565b90925090505b9091565b6000611238828461271c565b604080516002808252606082018352600092602083019080368337019050509050308160008151811061168857634e487b7160e01b600052603260045260246000fd5b60200260200101906001600160a01b031690816001600160a01b0316815250507f00000000000000000000000000000000000000000000000000000000000000006001600160a01b031663ad5c46486040518163ffffffff1660e01b815260040160206040518083038186803b15801561170157600080fd5b505afa158015611715573d6000803e3d6000fd5b505050506040513d601f19601f82011682018060405250810190611739919061206e565b8160018151811061175a57634e487b7160e01b600052603260045260246000fd5b60200260200101906001600160a01b031690816001600160a01b0316815250506117a5307f000000000000000000000000000000000000000000000000000000000000000084610fbb565b60405163791ac94760e01b81526001600160a01b037f0000000000000000000000000000000000000000000000000000000000000000169063791ac947906117fa908590600090869030904290600401612631565b600060405180830381600087803b15801561181457600080fd5b505af1158015611828573d6000803e3d6000fd5b505050505050565b61185b307f000000000000000000000000000000000000000000000000000000000000000084610fbb565b7f00000000000000000000000000000000000000000000000000000000000000006001600160a01b031663f305d719823085600080611898610c33565b426040518863ffffffff1660e01b81526004016118ba969594939291906121fb565b6060604051808303818588803b1580156118d357600080fd5b505af11580156118e7573d6000803e3d6000fd5b50505050506040513d601f19601f8201168201806040525081019061190c919061217d565b5050505050565b600b541580156119235750600d54155b801561192f5750600f54155b1561193957610c0d565b600b8054600c55600090819055600d8054600e55819055600f805460105555565b60008060008061196985611cba565b935093509350935060008060008060006119858a898989611d0f565b9450945094509450945060008c90506119cc8b60026000846001600160a01b03166001600160a01b031681526020019081526020016000205461163990919063ffffffff16565b6001600160a01b0382166000908152600260209081526040808320939093556001905220546119fb9087611639565b6001600160a01b0391821660009081526001602052604080822092909255918d168252902054611a2b9085611d88565b6001600160a01b038c16600090815260016020526040902055611a4e8389611d94565b611a588288611df0565b611a628187611f25565b8a6001600160a01b03168c6001600160a01b03167fddf252ad1be2c89b69c2b068fc378daa952ba7f163c4a11628f55a4df523b3ef8b604051611aa59190612628565b60405180910390a3505050505050505050505050565b600080600080611aca85611cba565b93509350935093506000806000806000611ae68a898989611d0f565b9450945094509450945060008c9050611b2d8660016000846001600160a01b03166001600160a01b031681526020019081526020016000205461163990919063ffffffff16565b6001600160a01b03918216600090815260016020908152604080832093909355928e1681526002909252902054611b64908a611d88565b6001600160a01b038c16600090815260026020908152604080832093909355600190522054611a2b9085611d88565b600080600080611ba285611cba565b93509350935093506000806000806000611bbe8a898989611d0f565b9450945094509450945060008c9050611c058b60026000846001600160a01b03166001600160a01b031681526020019081526020016000205461163990919063ffffffff16565b6001600160a01b038216600090815260026020908152604080832093909355600190522054611b2d9087611639565b600080600080611c4385611cba565b93509350935093506000806000806000611c5f8a898989611d0f565b9450945094509450945060008c90506119fb8660016000846001600160a01b03166001600160a01b031681526020019081526020016000205461163990919063ffffffff16565b600c54600b55600e54600d55601054600f55565b60008080808481611cca82611fec565b90506000611cd78361200e565b90506000611ce48461202a565b90506000611cfe82611cf885818989611639565b90611639565b9a9399509197509550909350505050565b600080600080600080611d20611209565b9050896000611d2f8284612046565b90506000611d3d8c85612046565b90506000611d4b8c86612046565b90506000611d598c87612046565b90506000611d6d82611cf885818989611639565b949b5093995091975095509350505050945094509450945094565b600061123882846126c5565b600654611da19083611639565b600655600754611db19082611d88565b6007556040517f051f2d717bdbcf1bee0818957fce58531ed8049929fd991272c5cfd3610240c290611de4908390612628565b60405180910390a15050565b60115461010090046001600160a01b031660009081526004602052604090205460ff1615611e675760115461010090046001600160a01b0316600090815260016020526040902054611e429083611d88565b60115461010090046001600160a01b0316600090815260016020526040902055611ef6565b60115461010090046001600160a01b0316600090815260016020526040902054611e919083611d88565b601180546001600160a01b0361010091829004811660009081526001602090815260408083209690965593549290920416815260029091522054611ed59082611d88565b60115461010090046001600160a01b03166000908152600260205260409020555b7f2954e977fdb29b3b7e01fdc5bf39f25dffc88f02111931cec44f7c103218e92481604051611de49190612628565b3060009081526004602052604090205460ff1615611f6c5730600090815260016020526040902054611f579083611d88565b30600090815260016020526040902055611fbd565b30600090815260016020526040902054611f869083611d88565b30600090815260016020908152604080832093909355600290522054611fac9082611d88565b306000908152600260205260409020555b7fe8d702ed806b975c93dca0eab5f12ec2d4ab7f5bec9a46f9cb5aa2495b851f1981604051611de49190612628565b6000610bbe6064612008600b548561204690919063ffffffff16565b9061122c565b6000610bbe6064612008600f548561204690919063ffffffff16565b6000610bbe6064612008600d548561204690919063ffffffff16565b600061123882846126fd565b600060208284031215612063578081fd5b81356112388161279f565b60006020828403121561207f578081fd5b81516112388161279f565b6000806040838503121561209c578081fd5b82356120a78161279f565b915060208301356120b78161279f565b809150509250929050565b6000806000606084860312156120d6578081fd5b83356120e18161279f565b925060208401356120f18161279f565b929592945050506040919091013590565b60008060408385031215612114578182fd5b823561211f8161279f565b946020939093013593505050565b60006020828403121561213e578081fd5b8135611238816127b4565b60006020828403121561215a578081fd5b8151611238816127b4565b600060208284031215612176578081fd5b5035919050565b600080600060608486031215612191578283fd5b8351925060208401519150604084015190509250925092565b6001600160a01b0391909116815260200190565b6001600160a01b039384168152919092166020820152604081019190915260600190565b6001600160a01b03929092168252602082015260400190565b6001600160a01b039687168152602081019590955260408501939093526060840191909152909216608082015260a081019190915260c00190565b901515815260200190565b6000602080835283518082850152825b8181101561226d57858101830151858201604001528201612251565b8181111561227e5783604083870101525b50601f01601f1916929092016040019392505050565b60208082526023908201527f45524332303a207472616e7366657220746f20746865207a65726f206164647260408201526265737360e81b606082015260800190565b6020808252602a908201527f416d6f756e74206d757374206265206c657373207468616e20746f74616c207260408201526965666c656374696f6e7360b01b606082015260800190565b60208082526026908201527f4f776e61626c653a206e6577206f776e657220697320746865207a65726f206160408201526564647265737360d01b606082015260800190565b60208082526022908201527f45524332303a20617070726f766520746f20746865207a65726f206164647265604082015261737360f01b606082015260800190565b60208082526026908201527f45524332303a207472616e7366657220616d6f756e7420657863656564732062604082015265616c616e636560d01b606082015260800190565b60208082526017908201527f4163636f756e74206973206e6f74206578636c75646564000000000000000000604082015260600190565b6020808252601b908201527f4163636f756e7420697320616c726561647920696e636c756465640000000000604082015260600190565b60208082526028908201527f45524332303a207472616e7366657220616d6f756e74206578636565647320616040820152676c6c6f77616e636560c01b606082015260800190565b6020808252818101527f4f776e61626c653a2063616c6c6572206973206e6f7420746865206f776e6572604082015260600190565b60208082526029908201527f5472616e7366657220616d6f756e74206d7573742062652067726561746572206040820152687468616e207a65726f60b81b606082015260800190565b6020808252601c908201527f416464726573732063616e74206265207a65726f206164647265737300000000604082015260600190565b60208082526025908201527f45524332303a207472616e736665722066726f6d20746865207a65726f206164604082015264647265737360d81b606082015260800190565b60208082526024908201527f45524332303a20617070726f76652066726f6d20746865207a65726f206164646040820152637265737360e01b606082015260800190565b60208082526025908201527f45524332303a2064656372656173656420616c6c6f77616e63652062656c6f77604082015264207a65726f60d81b606082015260800190565b90815260200190565b600060a082018783526020878185015260a0604085015281875180845260c0860191508289019350845b818110156126805784516001600160a01b03168352938301939183019160010161265b565b50506001600160a01b03969096166060850152505050608001529392505050565b9283526020830191909152604082015260600190565b60ff91909116815260200190565b600082198211156126d8576126d8612789565b500190565b6000826126f857634e487b7160e01b81526012600452602481fd5b500490565b600081600019048311821515161561271757612717612789565b500290565b60008282101561272e5761272e612789565b500390565b60028104600182168061274757607f821691505b6020821081141561276857634e487b7160e01b600052602260045260246000fd5b50919050565b600060001982141561278257612782612789565b5060010190565b634e487b7160e01b600052601160045260246000fd5b6001600160a01b0381168114610fb457600080fd5b8015158114610fb457600080fdfea26469706673582212200ce655fe829cc735bb433a43f53c16b4a5fbab70d3c5e560d526e43889797cd464736f6c63430008000033",
  "immutableReferences": {
    "1493": [
      {
        "length": 32,
        "start": 1710
      },
      {
        "length": 32,
        "start": 5802
      },
      {
        "length": 32,
        "start": 6016
      },
      {
        "length": 32,
        "start": 6076
      },
      {
        "length": 32,
        "start": 6198
      },
      {
        "length": 32,
        "start": 6237
      }
    ],
    "1495": [
      {
        "length": 32,
        "start": 2546
      },
      {
        "length": 32,
        "start": 4395
      }
    ]
  },
  "source": "// SPDX-License-Identifier: MIT\r\npragma solidity >=0.6.0 <0.9.0;\r\n\r\nimport \"@openzeppelin/contracts/token/ERC20/extensions/IERC20Metadata.sol\";\r\nimport \"@openzeppelin/contracts/token/ERC20/IERC20.sol\";\r\nimport \"@openzeppelin/contracts/utils/Context.sol\";\r\nimport \"@openzeppelin/contracts/access/Ownable.sol\";\r\nimport \"@openzeppelin/contracts/utils/Address.sol\";\r\nimport \"@openzeppelin/contracts/utils/math/SafeMath.sol\";\r\n\r\nimport \"./interface/IUniswapV2Router.sol\";\r\nimport \"./interface/IUniswapV2Factory.sol\";\r\nimport \"./interface/IUniswapV2Pair.sol\";\r\n\r\ncontract  ExplorationNext is Context, IERC20, IERC20Metadata, Ownable {\r\n    using SafeMath for uint256;\r\n    using Address for address;\r\n\r\n    mapping(address => uint256) private _rOwned;\r\n    mapping(address => uint256) private _tOwned;\r\n    mapping(address => mapping(address => uint256)) private _allowances;\r\n\r\n    mapping(address => bool) private _isExcluded;\r\n    address[] private _excluded;\r\n\r\n    uint256 private constant MAX = ~uint256(0);\r\n    uint256 private constant _tTotal = 387000000 * 10**18;\r\n    uint256 private _rTotal = (MAX - (MAX % _tTotal));\r\n    uint256 private _tFeeTotal;\r\n\r\n    string private _name = \"ExplorationNext\";\r\n    string private _symbol = \"ENEXT\";\r\n    uint8 private _decimals = 18;\r\n\r\n    uint256 public reflectionFee = 3;\r\n    uint256 private previousReflectionFee = reflectionFee;\r\n\r\n    uint256 public marketingWalletFee = 2;\r\n    uint256 private previousMarketingWalletFee = marketingWalletFee;\r\n\r\n    uint256 public liquidityFee = 1;\r\n    uint256 private previousLiquidityFee = liquidityFee;\r\n\r\n    bool public enableFee;\r\n\r\n    address devAddress = 0xdDb9a4461e5fF9f8035770E81209979D722697D4;\r\n    address UNISWAPV2ROUTER = 0x7a250d5630B4cF539739dF2C5dAcb4c659F2488D;\r\n\r\n    IUniswapV2Router02 public immutable uniswapV2Router;\r\n    address public immutable uniswapV2Pair;\r\n\r\n    bool inSwapAndLiquify;\r\n    bool public swapAndLiquifyEnabled = true;\r\n    uint256 public minLiquidityToken = 50 * 10**18;\r\n\r\n    event FeeEnable(bool enableFee);\r\n    event SetMaxTxPercent(uint256 maxPercent);\r\n    event SetTaxFeePercent(uint256 taxFeePercent);\r\n    event ExternalTokenTransfered(address externalAddress,address toAddress,uint256 amount);\r\n    event RedistributionFee(uint256 amount);\r\n    event marketWalletFee(uint256 amount);\r\n    event liqFee(uint256 amount);\r\n    event SwapAndLiquifyEnabledUpdated(bool enabled);\r\n    event SwapAndLiquify(uint256 tokensSwapped,uint256 ethReceived,uint256 tokensIntoLiqudity);\r\n\r\n    modifier lockTheSwap() {\r\n        inSwapAndLiquify = true;\r\n        _;\r\n        inSwapAndLiquify = false;\r\n    }\r\n\r\n    constructor() {\r\n        _rOwned[_msgSender()] = _rTotal;\r\n\r\n        IUniswapV2Router02 _uniswapV2Router = IUniswapV2Router02(UNISWAPV2ROUTER);\r\n\r\n        // Create a uniswap pair for this new token\r\n        uniswapV2Pair = IUniswapV2Factory(_uniswapV2Router.factory())\r\n            .createPair(address(this), _uniswapV2Router.WETH());\r\n\r\n        uniswapV2Router = _uniswapV2Router;\r\n        emit Transfer(address(0), _msgSender(), _tTotal);\r\n    }\r\n\r\n    function name() external view virtual override returns (string memory) {\r\n        return _name;\r\n    }\r\n\r\n    function symbol() external view virtual override returns (string memory) {\r\n        return _symbol;\r\n    }\r\n\r\n    function decimals() external view virtual override returns (uint8) {\r\n        return _decimals;\r\n    }\r\n\r\n    function totalSupply() external view virtual override returns (uint256) {\r\n        return _tTotal;\r\n    }\r\n\r\n    function balanceOf(address account) public view virtual override returns (uint256) {\r\n        if (_isExcluded[account]) return _tOwned[account];\r\n        return tokenFromReflection(_rOwned[account]);\r\n    }\r\n\r\n     function transfer(address recipient, uint256 amount) external virtual override returns (bool) {\r\n        _transfer(_msgSender(), recipient, amount);\r\n        return true;\r\n    }\r\n\r\n    function allowance(address owner, address spender) external view virtual override returns (uint256) {\r\n        return _allowances[owner][spender];\r\n    }\r\n\r\n\r\n   function approve(address spender, uint256 amount) external virtual override returns (bool) {\r\n        _approve(_msgSender(), spender, amount);\r\n        return true;\r\n    }\r\n\r\n     function transferFrom(address sender, address recipient, uint256 amount) external virtual override returns (bool) {\r\n        _transfer(sender, recipient, amount);\r\n\r\n        uint256 currentAllowance = _allowances[sender][_msgSender()];\r\n        require(currentAllowance >= amount, \"ERC20: transfer amount exceeds allowance\");\r\n        _approve(sender, _msgSender(), currentAllowance - amount);\r\n\r\n        return true;\r\n    }\r\n\r\n     function increaseAllowance(address spender, uint256 addedValue) external virtual returns (bool) {\r\n        _approve(_msgSender(), spender, _allowances[_msgSender()][spender] + addedValue);\r\n        return true;\r\n    }\r\n\r\n    function decreaseAllowance(address spender, uint256 subtractedValue) external virtual returns (bool) {\r\n        uint256 currentAllowance = _allowances[_msgSender()][spender];\r\n        require(currentAllowance >= subtractedValue, \"ERC20: decreased allowance below zero\");\r\n        unchecked {\r\n            _approve(_msgSender(), spender, currentAllowance - subtractedValue);\r\n        }\r\n\r\n        return true;\r\n    }\r\n\r\n    function totalFees() external view returns (uint256) {\r\n        return _tFeeTotal;\r\n    }\r\n\r\n    function tokenFromReflection(uint256 rAmount) public view returns(uint256) {\r\n        require(rAmount <= _rTotal, \"Amount must be less than total reflections\");\r\n        uint256 currentRate =  getRate();\r\n        return rAmount.div(currentRate);\r\n    }\r\n\r\n    function excludeFromReward(address account) public onlyOwner {\r\n        require(!_isExcluded[account], \"Account is already included\");\r\n        if (_rOwned[account] > 0) {\r\n            _tOwned[account] = tokenFromReflection(_rOwned[account]);\r\n        }\r\n        _isExcluded[account] = true;\r\n        _excluded.push(account);\r\n    }\r\n\r\n    function includeInReward(address account) public onlyOwner {\r\n        require(_isExcluded[account], \"Account is not excluded\");\r\n        for (uint256 i = 0; i < _excluded.length; i++) {\r\n            if (_excluded[i] == account) {\r\n                _excluded[i] = _excluded[_excluded.length - 1];\r\n                _tOwned[account] = 0;\r\n                _isExcluded[account] = false;\r\n                _excluded.pop();\r\n                break;\r\n            }\r\n        }\r\n    }\r\n\r\n     function isExcludedFromReward(address account) external view returns (bool) {\r\n        return _isExcluded[account];\r\n    }\r\n\r\n    function setTaxFeePercent(uint256 fee) external onlyOwner {\r\n        reflectionFee = fee;\r\n        emit SetTaxFeePercent(reflectionFee);\r\n    }\r\n\r\n    function setEnableFee(bool enableTax) external onlyOwner {\r\n        enableFee = enableTax;\r\n        emit FeeEnable(enableTax);\r\n    }\r\n\r\n    function takeReflectionFee(uint256 rFee, uint256 tFee) internal {\r\n        _rTotal = _rTotal.sub(rFee);\r\n        _tFeeTotal = _tFeeTotal.add(tFee);\r\n        emit RedistributionFee(tFee);\r\n    }\r\n\r\n    function takeMarketingWalletFee(uint256 rMarketingWalletFee, uint256 tMarketingWalletFee) internal {\r\n        if (_isExcluded[devAddress]) {\r\n            _rOwned[devAddress] = _rOwned[devAddress].add(rMarketingWalletFee);\r\n        } else {\r\n            _rOwned[devAddress] = _rOwned[devAddress].add(rMarketingWalletFee);\r\n            _tOwned[devAddress] = _tOwned[devAddress].add(tMarketingWalletFee);\r\n        }\r\n        emit marketWalletFee(tMarketingWalletFee);\r\n    }\r\n\r\n    function takeLiquidityFee(uint256 rliquidityFee, uint256 tliquidityFee)\r\n        internal\r\n    {\r\n        if (_isExcluded[address(this)]) {\r\n            _rOwned[address(this)] = _rOwned[address(this)].add(rliquidityFee);\r\n        } else {\r\n            _rOwned[address(this)] = _rOwned[address(this)].add(rliquidityFee);\r\n            _tOwned[address(this)] = _tOwned[address(this)].add(tliquidityFee);\r\n        }\r\n        emit liqFee(tliquidityFee);\r\n    }\r\n\r\n    function setSwapAndLiquifyEnabled(bool _enabled) public onlyOwner {\r\n        swapAndLiquifyEnabled = _enabled;\r\n        emit SwapAndLiquifyEnabledUpdated(_enabled);\r\n    }\r\n\r\n    //to recieve ETH from uniswapV2Router when swaping\r\n    receive() external payable {}\r\n\r\n    function getTValues(uint256 amount) internal view returns (uint256, uint256, uint256,uint256) {\r\n        uint256 tAmount = amount;\r\n        uint256 tFee = calculateTaxFee(tAmount);\r\n        uint256 tLiquidityFee = calculateLiquidityFee(tAmount);\r\n        uint256 tMarketingWalletFee = calculateMarketingWalletFee(tAmount);\r\n        uint256 tTransferAmount = tAmount.sub(tFee).sub(tLiquidityFee).sub(tMarketingWalletFee);\r\n        return (tTransferAmount, tFee, tLiquidityFee,tMarketingWalletFee);\r\n    }\r\n\r\n    function getRValues(uint256 amount, uint256 tFee, uint256 tLiquidityFee, uint256 tMarketingWalletFee) internal view returns (uint256,uint256, uint256,uint256,uint256) {\r\n        uint256 currentRate = getRate();\r\n        uint256 tAmount = amount;\r\n        uint256 rAmount = tAmount.mul(currentRate);\r\n        uint256 rFee = tFee.mul(currentRate);\r\n        uint256 rLiquidityfee = tLiquidityFee.mul(currentRate);\r\n        uint256 rMarketingWalletFee = tMarketingWalletFee.mul(currentRate);\r\n        uint256 rTransferAmount = rAmount.sub(rFee).sub(rLiquidityfee).sub(rMarketingWalletFee);\r\n        return (rAmount, rTransferAmount, rFee, rLiquidityfee,rMarketingWalletFee);\r\n    }\r\n\r\n    function getRate() internal view returns (uint256) {\r\n        (uint256 rSupply, uint256 tSupply) = getCurrentSupply();\r\n        return rSupply.div(tSupply);\r\n    }\r\n\r\n    function getCurrentSupply() internal view returns (uint256, uint256) {\r\n        uint256 rSupply = _rTotal;\r\n        uint256 tSupply = _tTotal;\r\n        for (uint256 i = 0; i < _excluded.length; i++) {\r\n            if (_rOwned[_excluded[i]] > rSupply || _tOwned[_excluded[i]] > tSupply) return (_rTotal, _tTotal);\r\n            rSupply = rSupply.sub(_rOwned[_excluded[i]]);\r\n            tSupply = tSupply.sub(_tOwned[_excluded[i]]);\r\n        }\r\n        if (rSupply < _rTotal.div(_tTotal)) return (_rTotal, _tTotal);\r\n        return (rSupply, tSupply);\r\n    }\r\n\r\n    function _takeLiquidity(uint256 tLiquidity) private {\r\n        uint256 currentRate =  getRate();\r\n        uint256 rLiquidity = tLiquidity.mul(currentRate);\r\n        _rOwned[address(this)] = _rOwned[address(this)].add(rLiquidity);\r\n        if(_isExcluded[address(this)])\r\n            _tOwned[address(this)] = _tOwned[address(this)].add(tLiquidity);\r\n    }\r\n\r\n    function calculateTaxFee(uint256 _amount) internal view returns (uint256) {\r\n        return _amount.mul(reflectionFee).div(10**2);\r\n    }\r\n\r\n    function calculateMarketingWalletFee(uint256 _amount) internal view returns (uint256) {\r\n        return _amount.mul(marketingWalletFee).div(10**2);\r\n    }\r\n\r\n     function calculateLiquidityFee(uint256 _amount) private view returns (uint256) {\r\n        return _amount.mul(liquidityFee).div(10**2);\r\n    }\r\n\r\n    function removeAllFee() internal {\r\n        if (reflectionFee == 0 && marketingWalletFee == 0 && liquidityFee == 0) return;\r\n        \r\n        previousReflectionFee = reflectionFee;\r\n        reflectionFee = 0;\r\n        \r\n        previousMarketingWalletFee = marketingWalletFee;\r\n        marketingWalletFee = 0;\r\n        \r\n        previousLiquidityFee = liquidityFee;\r\n        liquidityFee = 0;\r\n    }\r\n\r\n    function restoreAllFee() internal {\r\n        reflectionFee = previousReflectionFee;\r\n        marketingWalletFee = previousMarketingWalletFee;\r\n        liquidityFee = previousLiquidityFee;\r\n    }\r\n\r\n     function _approve(address owner, address spender, uint256 amount) internal virtual {\r\n        require(owner != address(0), \"ERC20: approve from the zero address\");\r\n        require(spender != address(0), \"ERC20: approve to the zero address\");\r\n\r\n        _allowances[owner][spender] = amount;\r\n        emit Approval(owner, spender, amount);\r\n    }\r\n\r\n    function _transfer(address from,address to,uint256 amount) internal {\r\n        \r\n        require(from != address(0), \"ERC20: transfer from the zero address\");\r\n        require(to != address(0), \"ERC20: transfer to the zero address\");\r\n        require(amount > 0, \"Transfer amount must be greater than zero\");\r\n\r\n        _beforeTokenTransfer(from, to);\r\n\r\n        uint256 senderBalance = balanceOf(from);\r\n        uint256 contractTokenBalance = balanceOf(address(this));\r\n        bool overMinTokenBalance = contractTokenBalance >= minLiquidityToken;\r\n        bool previousenableFee;\r\n\r\n        if (overMinTokenBalance &&\r\n            !inSwapAndLiquify &&\r\n            from != uniswapV2Pair &&\r\n            swapAndLiquifyEnabled){\r\n          \r\n            if(enableFee == true) {\r\n            previousenableFee = enableFee;\r\n            enableFee = false;\r\n            }\r\n            contractTokenBalance = minLiquidityToken;\r\n            //add liquidity\r\n            swapAndLiquify(contractTokenBalance);\r\n            if (previousenableFee == true) {\r\n                enableFee = true;\r\n            }\r\n        }\r\n\r\n        require(\r\n            senderBalance >= amount,\r\n            \"ERC20: transfer amount exceeds balance\"\r\n        );\r\n        \r\n        //indicates if fee should be deducted from transfer\r\n        bool takeFee = true;\r\n        //if any account belongs to _isIncludedInFee account then take fee\r\n        //else remove fee\r\n        if (!enableFee) {\r\n            takeFee = false;\r\n        }\r\n        _tokenTransfer(from, to, amount, takeFee);\r\n    }\r\n\r\n    function swapAndLiquify(uint256 contractTokenBalance) private lockTheSwap {\r\n        // split the contract balance into halves\r\n        uint256 half = contractTokenBalance.div(2);\r\n        uint256 otherHalf = contractTokenBalance.sub(half);\r\n\r\n        // capture the contract's current ETH balance.\r\n        // this is so that we can capture exactly the amount of ETH that the\r\n        // swap creates, and not make the liquidity event include any ETH that\r\n        // has been manually sent to the contract\r\n        uint256 initialBalance = address(this).balance;\r\n        // swap tokens for ETH\r\n        swapTokensForEth(half);\r\n\r\n        // how much ETH did we just swap into?\r\n        uint256 newBalance = address(this).balance.sub(initialBalance);\r\n\r\n        // add liquidity to uniswap\r\n        addLiquidity(otherHalf, newBalance);\r\n\r\n        emit SwapAndLiquify(half, newBalance, otherHalf);\r\n    }\r\n\r\n    function swapTokensForEth(uint256 tokenAmount) private {\r\n        address[] memory path = new address[](2);\r\n        path[0] = address(this);\r\n        path[1] = uniswapV2Router.WETH();\r\n\r\n        _approve(address(this), address(uniswapV2Router), tokenAmount);\r\n\r\n        // make the swap\r\n        uniswapV2Router.swapExactTokensForETHSupportingFeeOnTransferTokens(\r\n            tokenAmount,\r\n            0,\r\n            path,\r\n            address(this),\r\n            block.timestamp\r\n        );\r\n    }\r\n\r\n    function addLiquidity(uint256 tokenAmount, uint256 ethAmount) private {\r\n        // approve token transfer to cover all possible scenarios\r\n        _approve(address(this), address(uniswapV2Router), tokenAmount);\r\n\r\n        // add the liquidity\r\n        uniswapV2Router.addLiquidityETH{value: ethAmount}(\r\n            address(this),\r\n            tokenAmount,\r\n            0,\r\n            0,\r\n            owner(),\r\n            block.timestamp\r\n        );\r\n    }\r\n\r\n     //this method is responsible for taking all fee, if takeFee is true\r\n    function _tokenTransfer(address sender,address recipient,uint256 amount,bool takeFee) internal {\r\n        if (!takeFee) \r\n        removeAllFee();\r\n\r\n        if (_isExcluded[sender] && !_isExcluded[recipient]) {\r\n            _transferFromExcluded(sender, recipient, amount);\r\n        } else if (!_isExcluded[sender] && _isExcluded[recipient]) {\r\n            _transferToExcluded(sender, recipient, amount);\r\n        } else if (_isExcluded[sender] && _isExcluded[recipient]) {\r\n            _transferBothExcluded(sender, recipient, amount);\r\n        } else {\r\n            _transferStandard(sender, recipient, amount);\r\n        }\r\n        if (!takeFee) \r\n        restoreAllFee();\r\n    }\r\n\r\n    function _transferStandard(address sender,address recipient,uint256 tAmount) internal {\r\n        (uint256 tTransferAmount,uint256 tFee,uint256 tMarketingWalletFee,uint256 tliquidityFee) = getTValues(tAmount);\r\n        (uint256 rAmount,uint256 rTransferAmount,uint256 rFee,uint256 rdevFee,uint256 rliquidityFee) = getRValues(tAmount, tFee, tMarketingWalletFee, tliquidityFee);\r\n        {\r\n            address from = sender;\r\n            _rOwned[from] = _rOwned[from].sub(rAmount);\r\n        }\r\n        _rOwned[recipient] = _rOwned[recipient].add(rTransferAmount);\r\n        takeReflectionFee(rFee, tFee);\r\n        takeMarketingWalletFee(rdevFee, tMarketingWalletFee);\r\n        takeLiquidityFee(rliquidityFee, tliquidityFee);\r\n        emit Transfer(sender, recipient, tTransferAmount);\r\n    }\r\n\r\n    function _transferBothExcluded(address sender,address recipient,uint256 tAmount) internal {\r\n        (uint256 tTransferAmount,uint256 tFee,uint256 tMarketingWalletFee,uint256 tliquidityFee) = getTValues(tAmount);\r\n        (uint256 rAmount,uint256 rTransferAmount,uint256 rFee,uint256 rdevFee,uint256 rliquidityFee) = getRValues(tAmount, tFee, tMarketingWalletFee, tliquidityFee);\r\n        {\r\n            address from = sender;\r\n            _tOwned[from] = _tOwned[from].sub(tAmount);\r\n            _rOwned[from] = _rOwned[from].sub(rAmount);\r\n        }\r\n        _tOwned[recipient] = _tOwned[recipient].add(tTransferAmount);\r\n        _rOwned[recipient] = _rOwned[recipient].add(rTransferAmount);\r\n        takeReflectionFee(rFee, tFee);\r\n        takeMarketingWalletFee(rdevFee, tMarketingWalletFee);\r\n        takeLiquidityFee(rliquidityFee, tliquidityFee);\r\n        emit Transfer(sender, recipient, tTransferAmount);\r\n    }\r\n\r\n    function _transferToExcluded( address sender,address recipient, uint256 tAmount) internal {\r\n        (uint256 tTransferAmount,uint256 tFee,uint256 tMarketingWalletFee,uint256 tliquidityFee) = getTValues(tAmount);\r\n        (uint256 rAmount,uint256 rTransferAmount,uint256 rFee,uint256 rMarketingWalletFee,uint256 rliquidityFee) = getRValues(tAmount, tFee, tMarketingWalletFee, tliquidityFee);\r\n        {\r\n            address from = sender;\r\n            _rOwned[from] = _rOwned[from].sub(rAmount);\r\n        }\r\n        _tOwned[recipient] = _tOwned[recipient].add(tTransferAmount);\r\n        _rOwned[recipient] = _rOwned[recipient].add(rTransferAmount);\r\n        takeReflectionFee(rFee, tFee);\r\n        takeMarketingWalletFee(rMarketingWalletFee, tMarketingWalletFee);\r\n        takeLiquidityFee(rliquidityFee, tliquidityFee);\r\n        emit Transfer(sender, recipient, tTransferAmount);\r\n    }\r\n\r\n    function _transferFromExcluded(address sender,address recipient,uint256 tAmount) internal {\r\n        (uint256 tTransferAmount,uint256 tFee,uint256 tMarketingWalletFee,uint256 tliquidityFee) = getTValues(tAmount);\r\n        (uint256 rAmount,uint256 rTransferAmount,uint256 rFee,uint256 rMarketingWalletFee,uint256 rliquidityFee) = getRValues(tAmount, tFee, tMarketingWalletFee, tliquidityFee);\r\n        {\r\n            address from = sender;\r\n            _tOwned[from] = _tOwned[from].sub(tAmount);\r\n            _rOwned[from] = _rOwned[from].sub(rAmount);\r\n        }\r\n        _rOwned[recipient] = _rOwned[recipient].add(rTransferAmount);\r\n        takeReflectionFee(rFee, tFee);\r\n        takeMarketingWalletFee(rMarketingWalletFee, tMarketingWalletFee);\r\n        takeLiquidityFee(rliquidityFee, tliquidityFee);\r\n        emit Transfer(sender, recipient, tTransferAmount);\r\n    }\r\n\r\n    function withdrawToken(address _tokenContract, uint256 _amount) external onlyOwner{\r\n        require(_tokenContract != address(0), \"Address cant be zero address\");\r\n        IERC20 tokenContract = IERC20(_tokenContract);\r\n        tokenContract.transfer(msg.sender, _amount);\r\n        emit ExternalTokenTransfered(_tokenContract, msg.sender, _amount);\r\n    }\r\n\r\n    function _beforeTokenTransfer(address from, address to) internal virtual {}\r\n}\r\n",
  "sourcePath": "E:\\Geetha\\ENEXT_contract\\contracts\\ExplorationNext.sol",
  "compiler": {
    "name": "solc",
    "version": "0.8.0+commit.c7dfd78e.Emscripten.clang"
  },
  "schemaVersion": "3.4.3",
  "updatedAt": "2021-12-04T02:33:59.101Z",
  "networkType": "ethereum",
  "devdoc": {
    "kind": "dev",
    "methods": {
      "allowance(address,address)": {
        "details": "Returns the remaining number of tokens that `spender` will be allowed to spend on behalf of `owner` through {transferFrom}. This is zero by default. This value changes when {approve} or {transferFrom} are called."
      },
      "approve(address,uint256)": {
        "details": "Sets `amount` as the allowance of `spender` over the caller's tokens. Returns a boolean value indicating whether the operation succeeded. IMPORTANT: Beware that changing an allowance with this method brings the risk that someone may use both the old and the new allowance by unfortunate transaction ordering. One possible solution to mitigate this race condition is to first reduce the spender's allowance to 0 and set the desired value afterwards: https://github.com/ethereum/EIPs/issues/20#issuecomment-263524729 Emits an {Approval} event."
      },
      "balanceOf(address)": {
        "details": "Returns the amount of tokens owned by `account`."
      },
      "decimals()": {
        "details": "Returns the decimals places of the token."
      },
      "name()": {
        "details": "Returns the name of the token."
      },
      "owner()": {
        "details": "Returns the address of the current owner."
      },
      "renounceOwnership()": {
        "details": "Leaves the contract without owner. It will not be possible to call `onlyOwner` functions anymore. Can only be called by the current owner. NOTE: Renouncing ownership will leave the contract without an owner, thereby removing any functionality that is only available to the owner."
      },
      "symbol()": {
        "details": "Returns the symbol of the token."
      },
      "totalSupply()": {
        "details": "Returns the amount of tokens in existence."
      },
      "transfer(address,uint256)": {
        "details": "Moves `amount` tokens from the caller's account to `recipient`. Returns a boolean value indicating whether the operation succeeded. Emits a {Transfer} event."
      },
      "transferFrom(address,address,uint256)": {
        "details": "Moves `amount` tokens from `sender` to `recipient` using the allowance mechanism. `amount` is then deducted from the caller's allowance. Returns a boolean value indicating whether the operation succeeded. Emits a {Transfer} event."
      },
      "transferOwnership(address)": {
        "details": "Transfers ownership of the contract to a new account (`newOwner`). Can only be called by the current owner."
      }
    },
    "version": 1
  },
  "userdoc": {
    "kind": "user",
    "methods": {},
    "version": 1
  }
}