{
  "contractName": "ExplorationNext",
  "abi": [
    {
      "inputs": [],
      "stateMutability": "nonpayable",
      "type": "constructor"
    },
    {
      "anonymous": false,
      "inputs": [
        {
          "indexed": true,
          "internalType": "address",
          "name": "owner",
          "type": "address"
        },
        {
          "indexed": true,
          "internalType": "address",
          "name": "spender",
          "type": "address"
        },
        {
          "indexed": false,
          "internalType": "uint256",
          "name": "value",
          "type": "uint256"
        }
      ],
      "name": "Approval",
      "type": "event"
    },
    {
      "anonymous": false,
      "inputs": [
        {
          "indexed": false,
          "internalType": "address",
          "name": "externalAddress",
          "type": "address"
        },
        {
          "indexed": false,
          "internalType": "address",
          "name": "toAddress",
          "type": "address"
        },
        {
          "indexed": false,
          "internalType": "uint256",
          "name": "amount",
          "type": "uint256"
        }
      ],
      "name": "ExternalTokenTransfered",
      "type": "event"
    },
    {
      "anonymous": false,
      "inputs": [
        {
          "indexed": false,
          "internalType": "bool",
          "name": "enableFee",
          "type": "bool"
        }
      ],
      "name": "FeeEnable",
      "type": "event"
    },
    {
      "anonymous": false,
      "inputs": [
        {
          "indexed": true,
          "internalType": "address",
          "name": "previousOwner",
          "type": "address"
        },
        {
          "indexed": true,
          "internalType": "address",
          "name": "newOwner",
          "type": "address"
        }
      ],
      "name": "OwnershipTransferred",
      "type": "event"
    },
    {
      "anonymous": false,
      "inputs": [
        {
          "indexed": false,
          "internalType": "uint256",
          "name": "amount",
          "type": "uint256"
        }
      ],
      "name": "RedistributionFee",
      "type": "event"
    },
    {
      "anonymous": false,
      "inputs": [
        {
          "indexed": false,
          "internalType": "uint256",
          "name": "maxPercent",
          "type": "uint256"
        }
      ],
      "name": "SetMaxTxPercent",
      "type": "event"
    },
    {
      "anonymous": false,
      "inputs": [
        {
          "indexed": false,
          "internalType": "uint256",
          "name": "taxFeePercent",
          "type": "uint256"
        }
      ],
      "name": "SetTaxFeePercent",
      "type": "event"
    },
    {
      "anonymous": false,
      "inputs": [
        {
          "indexed": false,
          "internalType": "uint256",
          "name": "tokensSwapped",
          "type": "uint256"
        },
        {
          "indexed": false,
          "internalType": "uint256",
          "name": "ethReceived",
          "type": "uint256"
        },
        {
          "indexed": false,
          "internalType": "uint256",
          "name": "tokensIntoLiqudity",
          "type": "uint256"
        }
      ],
      "name": "SwapAndLiquify",
      "type": "event"
    },
    {
      "anonymous": false,
      "inputs": [
        {
          "indexed": false,
          "internalType": "bool",
          "name": "enabled",
          "type": "bool"
        }
      ],
      "name": "SwapAndLiquifyEnabledUpdated",
      "type": "event"
    },
    {
      "anonymous": false,
      "inputs": [
        {
          "indexed": true,
          "internalType": "address",
          "name": "from",
          "type": "address"
        },
        {
          "indexed": true,
          "internalType": "address",
          "name": "to",
          "type": "address"
        },
        {
          "indexed": false,
          "internalType": "uint256",
          "name": "value",
          "type": "uint256"
        }
      ],
      "name": "Transfer",
      "type": "event"
    },
    {
      "anonymous": false,
      "inputs": [
        {
          "indexed": false,
          "internalType": "uint256",
          "name": "tLiquidity",
          "type": "uint256"
        }
      ],
      "name": "liqFee",
      "type": "event"
    },
    {
      "anonymous": false,
      "inputs": [
        {
          "indexed": false,
          "internalType": "uint256",
          "name": "amount",
          "type": "uint256"
        }
      ],
      "name": "marketWalletFee",
      "type": "event"
    },
    {
      "inputs": [],
      "name": "_maxTxAmount",
      "outputs": [
        {
          "internalType": "uint256",
          "name": "",
          "type": "uint256"
        }
      ],
      "stateMutability": "view",
      "type": "function",
      "constant": true
    },
    {
      "inputs": [],
      "name": "enableFee",
      "outputs": [
        {
          "internalType": "bool",
          "name": "",
          "type": "bool"
        }
      ],
      "stateMutability": "view",
      "type": "function",
      "constant": true
    },
    {
      "inputs": [],
      "name": "feeEnable",
      "outputs": [
        {
          "internalType": "uint256",
          "name": "",
          "type": "uint256"
        }
      ],
      "stateMutability": "view",
      "type": "function",
      "constant": true
    },
    {
      "inputs": [],
      "name": "liquidityFee",
      "outputs": [
        {
          "internalType": "uint256",
          "name": "",
          "type": "uint256"
        }
      ],
      "stateMutability": "view",
      "type": "function",
      "constant": true
    },
    {
      "inputs": [],
      "name": "marketingWalletFee",
      "outputs": [
        {
          "internalType": "uint256",
          "name": "",
          "type": "uint256"
        }
      ],
      "stateMutability": "view",
      "type": "function",
      "constant": true
    },
    {
      "inputs": [],
      "name": "minLiquidity",
      "outputs": [
        {
          "internalType": "uint256",
          "name": "",
          "type": "uint256"
        }
      ],
      "stateMutability": "view",
      "type": "function",
      "constant": true
    },
    {
      "inputs": [],
      "name": "owner",
      "outputs": [
        {
          "internalType": "address",
          "name": "",
          "type": "address"
        }
      ],
      "stateMutability": "view",
      "type": "function",
      "constant": true
    },
    {
      "inputs": [],
      "name": "reflectionFee",
      "outputs": [
        {
          "internalType": "uint256",
          "name": "",
          "type": "uint256"
        }
      ],
      "stateMutability": "view",
      "type": "function",
      "constant": true
    },
    {
      "inputs": [],
      "name": "renounceOwnership",
      "outputs": [],
      "stateMutability": "nonpayable",
      "type": "function"
    },
    {
      "inputs": [],
      "name": "swapAndLiquifyEnabled",
      "outputs": [
        {
          "internalType": "bool",
          "name": "",
          "type": "bool"
        }
      ],
      "stateMutability": "view",
      "type": "function",
      "constant": true
    },
    {
      "inputs": [],
      "name": "taxDisableInLiquidity",
      "outputs": [
        {
          "internalType": "bool",
          "name": "",
          "type": "bool"
        }
      ],
      "stateMutability": "view",
      "type": "function",
      "constant": true
    },
    {
      "inputs": [
        {
          "internalType": "address",
          "name": "newOwner",
          "type": "address"
        }
      ],
      "name": "transferOwnership",
      "outputs": [],
      "stateMutability": "nonpayable",
      "type": "function"
    },
    {
      "inputs": [],
      "name": "uniswapV2Pair",
      "outputs": [
        {
          "internalType": "address",
          "name": "",
          "type": "address"
        }
      ],
      "stateMutability": "view",
      "type": "function",
      "constant": true
    },
    {
      "inputs": [],
      "name": "uniswapV2Router",
      "outputs": [
        {
          "internalType": "contract IUniswapV2Router02",
          "name": "",
          "type": "address"
        }
      ],
      "stateMutability": "view",
      "type": "function",
      "constant": true
    },
    {
      "stateMutability": "payable",
      "type": "receive",
      "payable": true
    },
    {
      "inputs": [],
      "name": "name",
      "outputs": [
        {
          "internalType": "string",
          "name": "",
          "type": "string"
        }
      ],
      "stateMutability": "view",
      "type": "function",
      "constant": true
    },
    {
      "inputs": [],
      "name": "symbol",
      "outputs": [
        {
          "internalType": "string",
          "name": "",
          "type": "string"
        }
      ],
      "stateMutability": "view",
      "type": "function",
      "constant": true
    },
    {
      "inputs": [],
      "name": "decimals",
      "outputs": [
        {
          "internalType": "uint8",
          "name": "",
          "type": "uint8"
        }
      ],
      "stateMutability": "view",
      "type": "function",
      "constant": true
    },
    {
      "inputs": [],
      "name": "totalSupply",
      "outputs": [
        {
          "internalType": "uint256",
          "name": "",
          "type": "uint256"
        }
      ],
      "stateMutability": "view",
      "type": "function",
      "constant": true
    },
    {
      "inputs": [
        {
          "internalType": "address",
          "name": "account",
          "type": "address"
        }
      ],
      "name": "balanceOf",
      "outputs": [
        {
          "internalType": "uint256",
          "name": "",
          "type": "uint256"
        }
      ],
      "stateMutability": "view",
      "type": "function",
      "constant": true
    },
    {
      "inputs": [
        {
          "internalType": "address",
          "name": "recipient",
          "type": "address"
        },
        {
          "internalType": "uint256",
          "name": "amount",
          "type": "uint256"
        }
      ],
      "name": "transfer",
      "outputs": [
        {
          "internalType": "bool",
          "name": "",
          "type": "bool"
        }
      ],
      "stateMutability": "nonpayable",
      "type": "function"
    },
    {
      "inputs": [
        {
          "internalType": "address",
          "name": "owner",
          "type": "address"
        },
        {
          "internalType": "address",
          "name": "spender",
          "type": "address"
        }
      ],
      "name": "allowance",
      "outputs": [
        {
          "internalType": "uint256",
          "name": "",
          "type": "uint256"
        }
      ],
      "stateMutability": "view",
      "type": "function",
      "constant": true
    },
    {
      "inputs": [
        {
          "internalType": "address",
          "name": "spender",
          "type": "address"
        },
        {
          "internalType": "uint256",
          "name": "amount",
          "type": "uint256"
        }
      ],
      "name": "approve",
      "outputs": [
        {
          "internalType": "bool",
          "name": "",
          "type": "bool"
        }
      ],
      "stateMutability": "nonpayable",
      "type": "function"
    },
    {
      "inputs": [
        {
          "internalType": "address",
          "name": "sender",
          "type": "address"
        },
        {
          "internalType": "address",
          "name": "recipient",
          "type": "address"
        },
        {
          "internalType": "uint256",
          "name": "amount",
          "type": "uint256"
        }
      ],
      "name": "transferFrom",
      "outputs": [
        {
          "internalType": "bool",
          "name": "",
          "type": "bool"
        }
      ],
      "stateMutability": "nonpayable",
      "type": "function"
    },
    {
      "inputs": [
        {
          "internalType": "address",
          "name": "spender",
          "type": "address"
        },
        {
          "internalType": "uint256",
          "name": "addedValue",
          "type": "uint256"
        }
      ],
      "name": "increaseAllowance",
      "outputs": [
        {
          "internalType": "bool",
          "name": "",
          "type": "bool"
        }
      ],
      "stateMutability": "nonpayable",
      "type": "function"
    },
    {
      "inputs": [
        {
          "internalType": "address",
          "name": "spender",
          "type": "address"
        },
        {
          "internalType": "uint256",
          "name": "subtractedValue",
          "type": "uint256"
        }
      ],
      "name": "decreaseAllowance",
      "outputs": [
        {
          "internalType": "bool",
          "name": "",
          "type": "bool"
        }
      ],
      "stateMutability": "nonpayable",
      "type": "function"
    },
    {
      "inputs": [
        {
          "internalType": "address",
          "name": "account",
          "type": "address"
        }
      ],
      "name": "isExcludedFromReward",
      "outputs": [
        {
          "internalType": "bool",
          "name": "",
          "type": "bool"
        }
      ],
      "stateMutability": "view",
      "type": "function",
      "constant": true
    },
    {
      "inputs": [
        {
          "internalType": "address",
          "name": "account",
          "type": "address"
        }
      ],
      "name": "isExcludedFromMaxTx",
      "outputs": [
        {
          "internalType": "bool",
          "name": "",
          "type": "bool"
        }
      ],
      "stateMutability": "view",
      "type": "function",
      "constant": true
    },
    {
      "inputs": [],
      "name": "totalFees",
      "outputs": [
        {
          "internalType": "uint256",
          "name": "",
          "type": "uint256"
        }
      ],
      "stateMutability": "view",
      "type": "function",
      "constant": true
    },
    {
      "inputs": [
        {
          "internalType": "uint256",
          "name": "rAmount",
          "type": "uint256"
        }
      ],
      "name": "tokenFromReflection",
      "outputs": [
        {
          "internalType": "uint256",
          "name": "",
          "type": "uint256"
        }
      ],
      "stateMutability": "view",
      "type": "function",
      "constant": true
    },
    {
      "inputs": [
        {
          "internalType": "address",
          "name": "account",
          "type": "address"
        }
      ],
      "name": "excludeFromReward",
      "outputs": [],
      "stateMutability": "nonpayable",
      "type": "function"
    },
    {
      "inputs": [
        {
          "internalType": "address",
          "name": "account",
          "type": "address"
        }
      ],
      "name": "includeInReward",
      "outputs": [],
      "stateMutability": "nonpayable",
      "type": "function"
    },
    {
      "inputs": [
        {
          "internalType": "uint256",
          "name": "fee",
          "type": "uint256"
        }
      ],
      "name": "setTaxFeePercent",
      "outputs": [],
      "stateMutability": "nonpayable",
      "type": "function"
    },
    {
      "inputs": [
        {
          "internalType": "bool",
          "name": "enableTax",
          "type": "bool"
        }
      ],
      "name": "setEnableFee",
      "outputs": [],
      "stateMutability": "nonpayable",
      "type": "function"
    },
    {
      "inputs": [
        {
          "internalType": "bool",
          "name": "_enabled",
          "type": "bool"
        }
      ],
      "name": "setSwapAndLiquifyEnabled",
      "outputs": [],
      "stateMutability": "nonpayable",
      "type": "function"
    },
    {
      "inputs": [
        {
          "internalType": "address",
          "name": "account",
          "type": "address"
        }
      ],
      "name": "isIncludedInFee",
      "outputs": [
        {
          "internalType": "bool",
          "name": "",
          "type": "bool"
        }
      ],
      "stateMutability": "view",
      "type": "function",
      "constant": true
    },
    {
      "inputs": [
        {
          "internalType": "address",
          "name": "_tokenContract",
          "type": "address"
        },
        {
          "internalType": "uint256",
          "name": "_amount",
          "type": "uint256"
        }
      ],
      "name": "withdrawToken",
      "outputs": [],
      "stateMutability": "nonpayable",
      "type": "function"
    }
  ],
  "bytecode": "0x60a0604052600b80546001600160a01b0319908116737a250d5630b4cf539739df2c5dacb4c659f2488d17909155600c8054821673ddb9a4461e5ff9f8035770e81209979d722697d4179055600d8054909116730107dfc63167266ad4f963245bccdb5e165f5e031790556b01401e70099fcb3a63000000600e8190556200008a9060001962000455565b620000989060001962000418565b600f556003601181905560125560016013819055601481905560158190556016556017805460ff60b81b1916770100000000000000000000000000000000000000000000001790556a0422ca8b0a00a425000000601a556802b5e3af16b1880000601b553480156200010957600080fd5b506200011e6200011862000371565b62000375565b600f54600160006200012f62000371565b6001600160a01b039081168252602080830193909352604091820160002093909355600b5481517fc45a01550000000000000000000000000000000000000000000000000000000081529151931692839263c45a01559260048082019391829003018186803b158015620001a257600080fd5b505afa158015620001b7573d6000803e3d6000fd5b505050506040513d601f19601f82011682018060405250810190620001dd9190620003c5565b6001600160a01b031663c9c6539630836001600160a01b031663ad5c46486040518163ffffffff1660e01b815260040160206040518083038186803b1580156200022657600080fd5b505afa1580156200023b573d6000803e3d6000fd5b505050506040513d601f19601f82011682018060405250810190620002619190620003c5565b6040518363ffffffff1660e01b815260040162000280929190620003f5565b602060405180830381600087803b1580156200029b57600080fd5b505af1158015620002b0573d6000803e3d6000fd5b505050506040513d601f19601f82011682018060405250810190620002d69190620003c5565b601780546001600160a01b0392909216620100000262010000600160b01b03199092169190911790556001600160601b0319606082901b166080526200031b62000371565b6001600160a01b031660006001600160a01b03167fddf252ad1be2c89b69c2b068fc378daa952ba7f163c4a11628f55a4df523b3ef600e546040516200036291906200040f565b60405180910390a3506200048f565b3390565b600080546001600160a01b038381166001600160a01b0319831681178455604051919092169283917f8be0079c531659141344cd1fd0a4f28419497f9722a3daafe3b4186f6b6457e09190a35050565b600060208284031215620003d7578081fd5b81516001600160a01b0381168114620003ee578182fd5b9392505050565b6001600160a01b0392831681529116602082015260400190565b90815260200190565b60008282101562000450577f4e487b710000000000000000000000000000000000000000000000000000000081526011600452602481fd5b500390565b6000826200048a577f4e487b710000000000000000000000000000000000000000000000000000000081526012600452602481fd5b500690565b60805160601c61279e620004d1600039600081816106fb015281816116c201528181611798015281816117d40152818161184e0152611875015261279e6000f3fe6080604052600436106102135760003560e01c806370a08231116101185780639e281a98116100a0578063c49b9a801161006f578063c49b9a8014610585578063d8e00271146105a5578063dd62ed3e146105c5578063f2fde38b146105e5578063fbac4837146106055761021a565b80639e281a9814610510578063a457c2d714610530578063a9059cbb14610550578063bf8d31f0146105705761021a565b806383ad7994116100e757806383ad79941461049c57806388f82020146104b15780638da5cb5b146104d157806395d89b41146104e657806398118cb4146104fb5761021a565b806370a082311461043d578063715018a61461045d5780637d1db4a5146104725780637f0785d0146104875761021a565b806330d2091d1161019b57806349bd5a5e1161016a57806349bd5a5e146103be5780634a74bb02146103d357806352390c02146103e8578063658c27a9146104085780636fa04457146104285761021a565b806330d2091d14610347578063313ce5671461035c5780633685d4191461037e578063395093511461039e5761021a565b80631694505e116101e25780631694505e146102bb57806318160ddd146102dd57806323b872dd146102f2578063252cf2d2146103125780632d838119146103275761021a565b8063061c82d01461021f57806306fdde0314610241578063095ea7b31461026c57806313114a9d146102995761021a565b3661021a57005b600080fd5b34801561022b57600080fd5b5061023f61023a366004612146565b610625565b005b34801561024d57600080fd5b506102566106ad565b6040516102639190612222565b60405180910390f35b34801561027857600080fd5b5061028c6102873660046120e3565b6106d6565b6040516102639190612217565b3480156102a557600080fd5b506102ae6106f3565b6040516102639190612609565b3480156102c757600080fd5b506102d06106f9565b604051610263919061218b565b3480156102e957600080fd5b506102ae61071d565b3480156102fe57600080fd5b5061028c61030d3660046120a3565b610723565b34801561031e57600080fd5b506102ae6107ba565b34801561033357600080fd5b506102ae610342366004612146565b6107c0565b34801561035357600080fd5b5061028c610803565b34801561036857600080fd5b5061037161080c565b6040516102639190612698565b34801561038a57600080fd5b5061023f610399366004612033565b610811565b3480156103aa57600080fd5b5061028c6103b93660046120e3565b6109e6565b3480156103ca57600080fd5b506102d0610a35565b3480156103df57600080fd5b5061028c610a4a565b3480156103f457600080fd5b5061023f610403366004612033565b610a5a565b34801561041457600080fd5b5061028c610423366004612033565b610b92565b34801561043457600080fd5b5061028c610bb0565b34801561044957600080fd5b506102ae610458366004612033565b610bbe565b34801561046957600080fd5b5061023f610c26565b34801561047e57600080fd5b506102ae610c71565b34801561049357600080fd5b506102ae610c77565b3480156104a857600080fd5b506102ae610c7d565b3480156104bd57600080fd5b5061028c6104cc366004612033565b610c83565b3480156104dd57600080fd5b506102d0610ca1565b3480156104f257600080fd5b50610256610cb0565b34801561050757600080fd5b506102ae610ccf565b34801561051c57600080fd5b5061023f61052b3660046120e3565b610cd5565b34801561053c57600080fd5b5061028c61054b3660046120e3565b610dfd565b34801561055c57600080fd5b5061028c61056b3660046120e3565b610e76565b34801561057c57600080fd5b506102ae610e8a565b34801561059157600080fd5b5061023f6105a036600461210e565b610e90565b3480156105b157600080fd5b5061023f6105c036600461210e565b610f16565b3480156105d157600080fd5b506102ae6105e036600461206b565b610f93565b3480156105f157600080fd5b5061023f610600366004612033565b610fbe565b34801561061157600080fd5b5061028c610620366004612033565b61102f565b61062d61104d565b6001600160a01b031661063e610ca1565b6001600160a01b03161461066d5760405162461bcd60e51b815260040161066490612486565b60405180910390fd5b60118190556040517f19da908cae03512cf29c19a5842b2904a06fd24ef9982759c78f9379831ed70f906106a2908390612609565b60405180910390a150565b60408051808201909152600f81526e115e1c1b1bdc985d1a5bdb93995e1d608a1b602082015290565b60006106ea6106e361104d565b8484611051565b50600192915050565b60105490565b7f000000000000000000000000000000000000000000000000000000000000000081565b600e5490565b6000610730848484611105565b6001600160a01b03841660009081526003602052604081208161075161104d565b6001600160a01b03166001600160a01b03168152602001908152602001600020549050828110156107945760405162461bcd60e51b81526004016106649061243e565b6107af856107a061104d565b6107aa86856126fd565b611051565b506001949350505050565b60185481565b6000600f548211156107e45760405162461bcd60e51b8152600401610664906122b8565b60006107ee611269565b90506107fa838261128c565b9150505b919050565b60175460ff1681565b601290565b61081961104d565b6001600160a01b031661082a610ca1565b6001600160a01b0316146108505760405162461bcd60e51b815260040161066490612486565b6001600160a01b03811660009081526005602052604090205460ff166108885760405162461bcd60e51b8152600401610664906123d0565b60005b600a548110156109e257816001600160a01b0316600a82815481106108c057634e487b7160e01b600052603260045260246000fd5b6000918252602090912001546001600160a01b031614156109d057600a80546108eb906001906126fd565b8154811061090957634e487b7160e01b600052603260045260246000fd5b600091825260209091200154600a80546001600160a01b03909216918390811061094357634e487b7160e01b600052603260045260246000fd5b600091825260208083209190910180546001600160a01b0319166001600160a01b039485161790559184168152600282526040808220829055600590925220805460ff19169055600a8054806109a957634e487b7160e01b600052603160045260246000fd5b600082815260209020810160001990810180546001600160a01b03191690550190556109e2565b806109da81612714565b91505061088b565b5050565b60006106ea6109f361104d565b848460036000610a0161104d565b6001600160a01b03908116825260208083019390935260409182016000908120918b16815292529020546107aa91906126a6565b6017546201000090046001600160a01b031681565b601754600160b81b900460ff1681565b610a6261104d565b6001600160a01b0316610a73610ca1565b6001600160a01b031614610a995760405162461bcd60e51b815260040161066490612486565b6001600160a01b03811660009081526005602052604090205460ff1615610ad25760405162461bcd60e51b815260040161066490612407565b6001600160a01b03811660009081526001602052604090205415610b2c576001600160a01b038116600090815260016020526040902054610b12906107c0565b6001600160a01b0382166000908152600260205260409020555b6001600160a01b03166000818152600560205260408120805460ff19166001908117909155600a805491820181559091527fc65a7bb8d6351c1cf70c95a316cc6a92839c986682d98bc35f958f4883f9d2a80180546001600160a01b0319169091179055565b6001600160a01b031660009081526007602052604090205460ff1690565b601754610100900460ff1681565b6001600160a01b03811660009081526005602052604081205460ff1615610bfe57506001600160a01b0381166000908152600260205260409020546107fe565b6001600160a01b038216600090815260016020526040902054610c20906107c0565b92915050565b610c2e61104d565b6001600160a01b0316610c3f610ca1565b6001600160a01b031614610c655760405162461bcd60e51b815260040161066490612486565b610c6f600061129f565b565b601a5481565b60195481565b60115481565b6001600160a01b031660009081526005602052604090205460ff1690565b6000546001600160a01b031690565b604080518082019091526005815264115391561560da1b602082015290565b60135481565b610cdd61104d565b6001600160a01b0316610cee610ca1565b6001600160a01b031614610d145760405162461bcd60e51b815260040161066490612486565b6001600160a01b038216610d3a5760405162461bcd60e51b815260040161066490612504565b60405163a9059cbb60e01b815282906001600160a01b0382169063a9059cbb90610d6a90339086906004016121c3565b602060405180830381600087803b158015610d8457600080fd5b505af1158015610d98573d6000803e3d6000fd5b505050506040513d601f19601f82011682018060405250810190610dbc919061212a565b507f5c5578c78fc9b87943279247ef36abf638b9551372bb769b5d87d1ae6a31be64833384604051610df09392919061219f565b60405180910390a1505050565b60008060036000610e0c61104d565b6001600160a01b0390811682526020808301939093526040918201600090812091881681529252902054905082811015610e585760405162461bcd60e51b8152600401610664906125c4565b610e6c610e6361104d565b85858403611051565b5060019392505050565b60006106ea610e8361104d565b8484611105565b60155481565b610e9861104d565b6001600160a01b0316610ea9610ca1565b6001600160a01b031614610ecf5760405162461bcd60e51b815260040161066490612486565b6017805460ff60b81b1916600160b81b831515021790556040517f53726dfcaf90650aa7eb35524f4d3220f07413c8d6cb404cc8c18bf5591bc159906106a2908390612217565b610f1e61104d565b6001600160a01b0316610f2f610ca1565b6001600160a01b031614610f555760405162461bcd60e51b815260040161066490612486565b6017805460ff19168215151790556040517fd93972947b6f619cc048053ab8874f9f4fc05ac3e2e41a2c689a1e520066750f906106a2908390612217565b6001600160a01b03918216600090815260036020908152604080832093909416825291909152205490565b610fc661104d565b6001600160a01b0316610fd7610ca1565b6001600160a01b031614610ffd5760405162461bcd60e51b815260040161066490612486565b6001600160a01b0381166110235760405162461bcd60e51b815260040161066490612302565b61102c8161129f565b50565b6001600160a01b031660009081526008602052604090205460ff1690565b3390565b6001600160a01b0383166110775760405162461bcd60e51b815260040161066490612580565b6001600160a01b03821661109d5760405162461bcd60e51b815260040161066490612348565b6001600160a01b0380841660008181526003602090815260408083209487168084529490915290819020849055517f8c5be1e5ebec7d5bd14f71427d1e84f3dd0314c0f7b2291e5b200ac8c7c3b925906110f8908590612609565b60405180910390a3505050565b6001600160a01b03831661112b5760405162461bcd60e51b81526004016106649061253b565b6001600160a01b0382166111515760405162461bcd60e51b815260040161066490612275565b600081116111715760405162461bcd60e51b8152600401610664906124bb565b61117b83836109e2565b600061118684610bbe565b9050600061119330610bbe565b601b54909150811080159081906111b45750601754600160b01b900460ff16155b80156111d457506017546001600160a01b03878116620100009092041614155b80156111e95750601754600160b81b900460ff165b156112235760175460ff1615611209576017805461ffff19166101001790555b601b549150611217826112ef565b6017805461ff00191690555b838310156112435760405162461bcd60e51b81526004016106649061238a565b60175460019060ff16611254575060005b61126087878784611372565b50505050505050565b6000806000611276611494565b9092509050611285828261128c565b9250505090565b600061129882846126be565b9392505050565b600080546001600160a01b038381166001600160a01b0319831681178455604051919092169283917f8be0079c531659141344cd1fd0a4f28419497f9722a3daafe3b4186f6b6457e09190a35050565b60006112fc82600261128c565b9050600061130a8383611651565b905030316113178361165d565b6000611324303183611651565b90506113308382611848565b7f17bbfb9a6069321b6ded73bd96327c9e6b7212a5cd51ff219cd61370acafb56184828560405161136393929190612682565b60405180910390a15050505050565b8061137f5761137f61192b565b6001600160a01b03841660009081526005602052604090205460ff1680156113c057506001600160a01b03831660009081526005602052604090205460ff16155b156113d5576113d0848484611972565b611481565b6001600160a01b03841660009081526005602052604090205460ff1615801561141657506001600160a01b03831660009081526005602052604090205460ff165b15611426576113d0848484611acd565b6001600160a01b03841660009081526005602052604090205460ff16801561146657506001600160a01b03831660009081526005602052604090205460ff165b15611476576113d0848484611b9f565b611481848484611c3b565b8061148e5761148e611ca8565b50505050565b600f54600e546000918291825b600a5481101561161f578260016000600a84815481106114d157634e487b7160e01b600052603260045260246000fd5b60009182526020808320909101546001600160a01b03168352820192909252604001902054118061154a57508160026000600a848154811061152357634e487b7160e01b600052603260045260246000fd5b60009182526020808320909101546001600160a01b03168352820192909252604001902054115b1561156157600f54600e549450945050505061164d565b6115b560016000600a848154811061158957634e487b7160e01b600052603260045260246000fd5b60009182526020808320909101546001600160a01b031683528201929092526040019020548490611651565b925061160b60026000600a84815481106115df57634e487b7160e01b600052603260045260246000fd5b60009182526020808320909101546001600160a01b031683528201929092526040019020548390611651565b91508061161781612714565b9150506114a1565b50600e54600f5461162f9161128c565b82101561164757600f54600e5493509350505061164d565b90925090505b9091565b600061129882846126fd565b60408051600280825260608201835260009260208301908036833701905050905030816000815181106116a057634e487b7160e01b600052603260045260246000fd5b60200260200101906001600160a01b031690816001600160a01b0316815250507f00000000000000000000000000000000000000000000000000000000000000006001600160a01b031663ad5c46486040518163ffffffff1660e01b815260040160206040518083038186803b15801561171957600080fd5b505afa15801561172d573d6000803e3d6000fd5b505050506040513d601f19601f82011682018060405250810190611751919061204f565b8160018151811061177257634e487b7160e01b600052603260045260246000fd5b60200260200101906001600160a01b031690816001600160a01b0316815250506117bd307f000000000000000000000000000000000000000000000000000000000000000084611051565b60405163791ac94760e01b81526001600160a01b037f0000000000000000000000000000000000000000000000000000000000000000169063791ac94790611812908590600090869030904290600401612612565b600060405180830381600087803b15801561182c57600080fd5b505af1158015611840573d6000803e3d6000fd5b505050505050565b611873307f000000000000000000000000000000000000000000000000000000000000000084611051565b7f00000000000000000000000000000000000000000000000000000000000000006001600160a01b031663f305d7198230856000806118b0610ca1565b426040518863ffffffff1660e01b81526004016118d2969594939291906121dc565b6060604051808303818588803b1580156118eb57600080fd5b505af11580156118ff573d6000803e3d6000fd5b50505050506040513d601f19601f82011682018060405250810190611924919061215e565b5050505050565b60115415801561193b5750601354155b80156119475750601554155b1561195157610c6f565b60118054601255600090819055601380546014558190556015805460165555565b60008060008061198185611cbc565b9350935093509350600080600080600061199d8a898989611d11565b945094509450945094506119df8a600260008f6001600160a01b03166001600160a01b031681526020019081526020016000205461165190919063ffffffff16565b6001600160a01b038d16600090815260026020908152604080832093909355600190522054611a0e9086611651565b6001600160a01b03808e1660009081526001602052604080822093909355908d1681522054611a3d9085611d8a565b6001600160a01b038c16600090815260016020526040902055611a608389611d96565b611a6a8288611df2565b611a748187611eb9565b8a6001600160a01b03168c6001600160a01b03167fddf252ad1be2c89b69c2b068fc378daa952ba7f163c4a11628f55a4df523b3ef8b604051611ab79190612609565b60405180910390a3505050505050505050505050565b600080600080611adc85611cbc565b93509350935093506000806000806000611af88a898989611d11565b94509450945094509450611b3a85600160008f6001600160a01b03166001600160a01b031681526020019081526020016000205461165190919063ffffffff16565b6001600160a01b03808e16600090815260016020908152604080832094909455918e16815260029091522054611b70908a611d8a565b6001600160a01b038c16600090815260026020908152604080832093909355600190522054611a3d9085611d8a565b600080600080611bae85611cbc565b93509350935093506000806000806000611bca8a898989611d11565b94509450945094509450611c0c8a600260008f6001600160a01b03166001600160a01b031681526020019081526020016000205461165190919063ffffffff16565b6001600160a01b038d16600090815260026020908152604080832093909355600190522054611b3a9086611651565b600080600080611c4a85611cbc565b93509350935093506000806000806000611c668a898989611d11565b94509450945094509450611a0e85600160008f6001600160a01b03166001600160a01b031681526020019081526020016000205461165190919063ffffffff16565b601254601155601454601355601654601555565b60008080808481611ccc82611fcd565b90506000611cd983611fef565b90506000611ce68461200b565b90506000611d0082611cfa85818989611651565b90611651565b9a9399509197509550909350505050565b600080600080600080611d22611269565b9050896000611d318284612027565b90506000611d3f8c85612027565b90506000611d4d8c86612027565b90506000611d5b8c87612027565b90506000611d6f82611cfa85818989611651565b949b5093995091975095509350505050945094509450945094565b600061129882846126a6565b600f54611da39083611651565b600f55601054611db39082611d8a565b6010556040517f051f2d717bdbcf1bee0818957fce58531ed8049929fd991272c5cfd3610240c290611de6908390612609565b60405180910390a15050565b3060009081526005602052604090205460ff1615611e395730600090815260016020526040902054611e249083611d8a565b30600090815260016020526040902055611e8a565b30600090815260016020526040902054611e539083611d8a565b30600090815260016020908152604080832093909355600290522054611e799082611d8a565b306000908152600260205260409020555b7fe8d702ed806b975c93dca0eab5f12ec2d4ab7f5bec9a46f9cb5aa2495b851f1981604051611de69190612609565b600c546001600160a01b031660009081526005602052604090205460ff1615611f2157600c546001600160a01b0316600090815260016020526040902054611f019083611d8a565b600c546001600160a01b0316600090815260016020526040902055611f9e565b600c546001600160a01b0316600090815260016020526040902054611f469083611d8a565b600c80546001600160a01b039081166000908152600160209081526040808320959095559254909116815260029091522054611f829082611d8a565b600c546001600160a01b03166000908152600260205260409020555b7f2954e977fdb29b3b7e01fdc5bf39f25dffc88f02111931cec44f7c103218e92481604051611de69190612609565b6000610c206064611fe96011548561202790919063ffffffff16565b9061128c565b6000610c206064611fe96013548561202790919063ffffffff16565b6000610c206064611fe96015548561202790919063ffffffff16565b600061129882846126de565b600060208284031215612044578081fd5b813561129881612745565b600060208284031215612060578081fd5b815161129881612745565b6000806040838503121561207d578081fd5b823561208881612745565b9150602083013561209881612745565b809150509250929050565b6000806000606084860312156120b7578081fd5b83356120c281612745565b925060208401356120d281612745565b929592945050506040919091013590565b600080604083850312156120f5578182fd5b823561210081612745565b946020939093013593505050565b60006020828403121561211f578081fd5b81356112988161275a565b60006020828403121561213b578081fd5b81516112988161275a565b600060208284031215612157578081fd5b5035919050565b600080600060608486031215612172578283fd5b8351925060208401519150604084015190509250925092565b6001600160a01b0391909116815260200190565b6001600160a01b039384168152919092166020820152604081019190915260600190565b6001600160a01b03929092168252602082015260400190565b6001600160a01b039687168152602081019590955260408501939093526060840191909152909216608082015260a081019190915260c00190565b901515815260200190565b6000602080835283518082850152825b8181101561224e57858101830151858201604001528201612232565b8181111561225f5783604083870101525b50601f01601f1916929092016040019392505050565b60208082526023908201527f45524332303a207472616e7366657220746f20746865207a65726f206164647260408201526265737360e81b606082015260800190565b6020808252602a908201527f416d6f756e74206d757374206265206c657373207468616e20746f74616c207260408201526965666c656374696f6e7360b01b606082015260800190565b60208082526026908201527f4f776e61626c653a206e6577206f776e657220697320746865207a65726f206160408201526564647265737360d01b606082015260800190565b60208082526022908201527f45524332303a20617070726f766520746f20746865207a65726f206164647265604082015261737360f01b606082015260800190565b60208082526026908201527f45524332303a207472616e7366657220616d6f756e7420657863656564732062604082015265616c616e636560d01b606082015260800190565b60208082526017908201527f4163636f756e74206973206e6f74206578636c75646564000000000000000000604082015260600190565b6020808252601b908201527f4163636f756e7420697320616c726561647920696e636c756465640000000000604082015260600190565b60208082526028908201527f45524332303a207472616e7366657220616d6f756e74206578636565647320616040820152676c6c6f77616e636560c01b606082015260800190565b6020808252818101527f4f776e61626c653a2063616c6c6572206973206e6f7420746865206f776e6572604082015260600190565b60208082526029908201527f5472616e7366657220616d6f756e74206d7573742062652067726561746572206040820152687468616e207a65726f60b81b606082015260800190565b6020808252601c908201527f416464726573732063616e74206265207a65726f206164647265737300000000604082015260600190565b60208082526025908201527f45524332303a207472616e736665722066726f6d20746865207a65726f206164604082015264647265737360d81b606082015260800190565b60208082526024908201527f45524332303a20617070726f76652066726f6d20746865207a65726f206164646040820152637265737360e01b606082015260800190565b60208082526025908201527f45524332303a2064656372656173656420616c6c6f77616e63652062656c6f77604082015264207a65726f60d81b606082015260800190565b90815260200190565b600060a082018783526020878185015260a0604085015281875180845260c0860191508289019350845b818110156126615784516001600160a01b03168352938301939183019160010161263c565b50506001600160a01b03969096166060850152505050608001529392505050565b9283526020830191909152604082015260600190565b60ff91909116815260200190565b600082198211156126b9576126b961272f565b500190565b6000826126d957634e487b7160e01b81526012600452602481fd5b500490565b60008160001904831182151516156126f8576126f861272f565b500290565b60008282101561270f5761270f61272f565b500390565b60006000198214156127285761272861272f565b5060010190565b634e487b7160e01b600052601160045260246000fd5b6001600160a01b038116811461102c57600080fd5b801515811461102c57600080fdfea2646970667358221220ece23d2b491ec5c2e187d5dca883b8d39dd1ba80deecc369e1fa510bca68593a64736f6c63430008000033",
  "immutableReferences": {
    "1519": [
      {
        "length": 32,
        "start": 1787
      },
      {
        "length": 32,
        "start": 5826
      },
      {
        "length": 32,
        "start": 6040
      },
      {
        "length": 32,
        "start": 6100
      },
      {
        "length": 32,
        "start": 6222
      },
      {
        "length": 32,
        "start": 6261
      }
    ]
  },
  "source": "// SPDX-License-Identifier: MIT\r\npragma solidity ^0.8.0;\r\n\r\nimport \"@openzeppelin/contracts/token/ERC20/extensions/IERC20Metadata.sol\";\r\nimport \"@openzeppelin/contracts/token/ERC20/IERC20.sol\";\r\nimport \"@openzeppelin/contracts/utils/Context.sol\";\r\nimport \"@openzeppelin/contracts/access/Ownable.sol\";\r\nimport \"@openzeppelin/contracts/utils/Address.sol\";\r\nimport \"@openzeppelin/contracts/utils/math/SafeMath.sol\";\r\n\r\nimport \"./interface/IUniswapV2Router.sol\";\r\nimport \"./interface/IUniswapV2Factory.sol\";\r\nimport \"./interface/IUniswapV2Pair.sol\";\r\nimport \"./interface/YourToken.sol\";\r\n\r\ncontract ExplorationNext is Context, IERC20, IERC20Metadata, Ownable {\r\n    using SafeMath for uint256;\r\n    using Address for address;\r\n\r\n    mapping (address => uint256) private _rOwned;\r\n    mapping (address => uint256) private _tOwned;\r\n    mapping (address => mapping (address => uint256)) private _allowances;\r\n    mapping (address => bool) private pausedAddress;\r\n    mapping (address => bool) private _isExcluded;\r\n    mapping (address => bool) private _isExcludedFromFee;\r\n    mapping (address => bool) private _isExcludedFromMaxTx;\r\n    mapping (address => bool) private _isIncludedInFee;\r\n    mapping (address => bool) private _previousTokenBalanceTransfered;\r\n    address[] private _excluded;\r\n\r\n    address UNISWAPV2ROUTER = 0x7a250d5630B4cF539739dF2C5dAcb4c659F2488D;\r\n\r\n    address devAddress = 0xdDb9a4461e5fF9f8035770E81209979D722697D4;\r\n    \r\n    address tokenAddress = 0x0107dFC63167266aD4F963245bCCdb5E165F5E03;\r\n\r\n    uint256 private constant MAX = ~uint256(0);\r\n    uint256 private _tTotal = 387000000  * 10**18;\r\n    uint256 private _rTotal = (MAX - (MAX % _tTotal));\r\n    uint256 private _tFeeTotal;\r\n\r\n    string private constant _name = \"ExplorationNext\";\r\n    string private constant _symbol = \"ENEXT\";\r\n    uint8 private constant _decimals = 18;\r\n\r\n\r\n    uint256 public reflectionFee = 3;\r\n    uint256 private previousReflectionFee = reflectionFee;\r\n\r\n    uint256 public liquidityFee = 1;\r\n    uint256 private previousLiquidityFee = liquidityFee;\r\n\r\n    uint256 public marketingWalletFee = 1;\r\n    uint256 private previousMarketingWalletFee = marketingWalletFee;\r\n\r\n    bool public enableFee;\r\n\r\n     bool public taxDisableInLiquidity;\r\n \r\n    IUniswapV2Router02 public immutable uniswapV2Router;\r\n    address public uniswapV2Pair;\r\n\r\n\r\n    bool inSwapAndLiquify;\r\n    bool public swapAndLiquifyEnabled = true;\r\n\r\n     \r\n    uint256 public minLiquidity ;\r\n    uint256 public feeEnable;\r\n\r\n    uint256 public _maxTxAmount = 5000000 * 10**18;\r\n\r\n uint256 private numTokensSellToAddToLiquidity = 50 * 10**18;    \r\n\r\n    event FeeEnable(bool enableFee);\r\n    event SetMaxTxPercent(uint256 maxPercent);\r\n    event SetTaxFeePercent(uint256 taxFeePercent);\r\n    event ExternalTokenTransfered(address externalAddress,address toAddress, uint amount);\r\n    event RedistributionFee(uint256 amount);\r\n    event liqFee(uint256 tLiquidity);\r\n    event marketWalletFee(uint256 amount);\r\n    event SwapAndLiquifyEnabledUpdated(bool enabled);\r\n    event SwapAndLiquify(uint256 tokensSwapped,uint256 ethReceived,uint256 tokensIntoLiqudity);\r\n\r\n    modifier lockTheSwap {\r\n        inSwapAndLiquify = true;\r\n        _;\r\n        inSwapAndLiquify = false;\r\n    }\r\n\r\n    constructor () {\r\n        \r\n        _rOwned[_msgSender()] = _rTotal;\r\n\r\n        IUniswapV2Router02 _uniswapV2Router = IUniswapV2Router02(UNISWAPV2ROUTER);\r\n        // Create a uniswap pair for this new token\r\n        uniswapV2Pair = IUniswapV2Factory(_uniswapV2Router.factory())\r\n            .createPair(address(this), _uniswapV2Router.WETH());\r\n\r\n        // set the rest of the contract variables\r\n        uniswapV2Router = _uniswapV2Router;\r\n\r\n        emit Transfer(address(0), _msgSender(), _tTotal);\r\n \r\n    }\r\n\r\n    /** \r\n     * Returns the name of the token.\r\n     */\r\n    function name() external view virtual override returns (string memory) {\r\n        return _name;\r\n    }\r\n\r\n    /**\r\n     * Returns the symbol of the token.\r\n     */\r\n    function symbol() external view virtual override returns (string memory) {\r\n        return _symbol;\r\n    }\r\n\r\n    /**\r\n     * Returns the number of decimals \r\n     */\r\n    function decimals() external view virtual override returns (uint8) {\r\n        return _decimals;\r\n    }\r\n\r\n    /**\r\n     * @dev See {IERC20-totalSupply}.\r\n     */\r\n    function totalSupply() external view virtual override returns (uint256) {\r\n        return _tTotal;\r\n    }\r\n\r\n    /**\r\n     * @dev See {IERC20-balanceOf}.\r\n     */\r\n    function balanceOf(address account) public view virtual override returns (uint256) {\r\n        if (_isExcluded[account]) return _tOwned[account];\r\n        return tokenFromReflection(_rOwned[account]);\r\n    }\r\n\r\n    /**\r\n     * @dev See {IERC20-transfer}.\r\n     *\r\n     * Requirements:\r\n     *\r\n     * - `recipient` cannot be the zero address.\r\n     * - the caller must have a balance of at least `amount`.\r\n     */\r\n    function transfer(address recipient, uint256 amount) external virtual override returns (bool) {\r\n        _transfer(_msgSender(), recipient, amount);\r\n        return true;\r\n    }\r\n\r\n    /**\r\n     * @dev See {IERC20-allowance}.\r\n     */\r\n    function allowance(address owner, address spender) external view virtual override returns (uint256) {\r\n        return _allowances[owner][spender];\r\n    }\r\n\r\n    /**\r\n     * @dev See {IERC20-approve}.\r\n     *\r\n     * Requirements:`\r\n     *\r\n     * - `spender` cannot be the zero address.\r\n     */\r\n    function approve(address spender, uint256 amount) external virtual override returns (bool) {\r\n        _approve(_msgSender(), spender, amount);\r\n        return true;\r\n    }\r\n\r\n    /**   \r\n     * @dev See {IERC20-transferFrom}.\r\n     *\r\n     * Emits an {Approval} event indicating the updated allowance. This is not\r\n     * required by the EIP. See the note at the beginning of {ERC20}.\r\n     *\r\n     * Requirements:\r\n     *\r\n     * - `sender` and `recipient` cannot be the zero address.\r\n     * - `sender` must have a balance of at least `amount`.\r\n     * - the caller must have allowance for ``sender``'s tokens of at least\r\n     * `amount`.\r\n     */\r\n    function transferFrom(address sender, address recipient, uint256 amount) external virtual override returns (bool) {\r\n        _transfer(sender, recipient, amount);\r\n\r\n        uint256 currentAllowance = _allowances[sender][_msgSender()];\r\n        require(currentAllowance >= amount, \"ERC20: transfer amount exceeds allowance\");\r\n        _approve(sender, _msgSender(), currentAllowance - amount);\r\n\r\n        return true;\r\n    }\r\n\r\n    /**\r\n     * @dev Atomically increases the allowance granted to `spender` by the caller.\r\n     *\r\n     * This is an alternative to {approve} that can be used as a mitigation for\r\n     * problems described in {IERC20-approve}.\r\n     *\r\n     * Emits an {Approval} event indicating the updated allowance.\r\n     *\r\n     * Requirements:\r\n     *\r\n     * - `spender` cannot be the zero address.\r\n     */\r\n    function increaseAllowance(address spender, uint256 addedValue) external virtual returns (bool) {\r\n        _approve(_msgSender(), spender, _allowances[_msgSender()][spender] + addedValue);\r\n        return true;\r\n    }\r\n\r\n    /**\r\n     * @dev Atomically decreases the allowance granted to `spender` by the caller.\r\n     *\r\n     * This is an alternative to {approve} that can be used as a mitigation for\r\n     * problems described in {IERC20-approve}.\r\n     *\r\n     * Emits an {Approval} event indicating the updated allowance.\r\n     *\r\n     * Requirements:\r\n     *\r\n     * - `spender` cannot be the zero address.\r\n     * - `spender` must have allowance for the caller of at least\r\n     * `subtractedValue`.\r\n     */\r\n    function decreaseAllowance(address spender, uint256 subtractedValue) external virtual returns (bool) {\r\n        uint256 currentAllowance = _allowances[_msgSender()][spender];\r\n        require(currentAllowance >= subtractedValue, \"ERC20: decreased allowance below zero\");\r\n        unchecked {\r\n            _approve(_msgSender(), spender, currentAllowance - subtractedValue);\r\n        }\r\n\r\n        return true;\r\n    }\r\n\r\n    \r\n    function isExcludedFromReward(address account) external view returns (bool) {\r\n        return _isExcluded[account];\r\n    }\r\n\r\n    function isExcludedFromMaxTx(address account) external view returns (bool) {\r\n        return _isExcludedFromMaxTx[account];\r\n    }\r\n\r\n    function totalFees() external view returns (uint256) {\r\n        return _tFeeTotal;\r\n    }\r\n\r\n    function tokenFromReflection(uint256 rAmount) public view returns(uint256) {\r\n        require(rAmount <= _rTotal, \"Amount must be less than total reflections\");\r\n        uint256 currentRate =  getRate();\r\n        return rAmount.div(currentRate);\r\n    }\r\n\r\n    function excludeFromReward(address account) public onlyOwner {\r\n        require(!_isExcluded[account], \"Account is already included\");\r\n        if(_rOwned[account] > 0) {\r\n            _tOwned[account] = tokenFromReflection(_rOwned[account]);\r\n        }\r\n        _isExcluded[account] = true;\r\n        _excluded.push(account);\r\n    }\r\n\r\n    function includeInReward(address account) public onlyOwner {\r\n        require(_isExcluded[account], \"Account is not excluded\");\r\n        for (uint256 i = 0; i < _excluded.length; i++) {\r\n            if (_excluded[i] == account) {\r\n                _excluded[i] = _excluded[_excluded.length - 1];\r\n                _tOwned[account] = 0;\r\n                _isExcluded[account] = false;\r\n                _excluded.pop();\r\n                break;\r\n            }\r\n        }\r\n    }\r\n    \r\n    function setTaxFeePercent(uint256 fee) external onlyOwner {\r\n        reflectionFee = fee;\r\n        emit SetTaxFeePercent(reflectionFee);\r\n    }\r\n\r\n    function setEnableFee(bool enableTax) external onlyOwner {\r\n        enableFee = enableTax;\r\n        emit FeeEnable(enableTax);\r\n    }\r\n\r\n\r\n    function takeReflectionFee(uint256 rFee, uint256 tFee) internal {\r\n        _rTotal = _rTotal.sub(rFee);\r\n        _tFeeTotal = _tFeeTotal.add(tFee);\r\n        emit RedistributionFee(tFee);\r\n    }\r\n\r\n   function takeLiquidityFee(uint256 rliquidityFee, uint256 tliquidityFee)\r\n        internal\r\n    {\r\n        if (_isExcluded[address(this)]) {\r\n            _rOwned[address(this)] = _rOwned[address(this)].add(rliquidityFee);\r\n        } else {\r\n            _rOwned[address(this)] = _rOwned[address(this)].add(rliquidityFee);\r\n            _tOwned[address(this)] = _tOwned[address(this)].add(tliquidityFee);\r\n        }\r\n        emit liqFee(tliquidityFee);\r\n    }\r\n\r\n    function takeMarketingWalletFee(uint256 rMarketingWalletFee, uint256 tMarketingWalletFee) internal {\r\n       if (_isExcluded[address(devAddress)]) {\r\n            _rOwned[address(devAddress)] = _rOwned[address(devAddress)].add(rMarketingWalletFee);\r\n        } else {\r\n            _rOwned[address(devAddress)] = _rOwned[address(devAddress)].add(rMarketingWalletFee);\r\n            _tOwned[address(devAddress)] = _tOwned[address(devAddress)].add(tMarketingWalletFee);\r\n        }\r\n        emit marketWalletFee(tMarketingWalletFee);\r\n    }\r\n\r\n    function setSwapAndLiquifyEnabled(bool _enabled) public onlyOwner {\r\n        swapAndLiquifyEnabled = _enabled;\r\n        emit SwapAndLiquifyEnabledUpdated(_enabled);\r\n    }\r\n\r\n     //to recieve ETH from uniswapV2Router when swaping\r\n    receive() external payable {}\r\n\r\n    function getTValues(uint256 amount) internal view returns (uint256, uint256, uint256,uint256) {\r\n        uint256 tAmount = amount;\r\n        uint256 tFee = calculateTaxFee(tAmount);\r\n        uint256 tLiquidityFee = calculateLiquidityFee(tAmount);\r\n        uint256 tMarketingWalletFee = calculateMarketingWalletFee(tAmount);\r\n        uint256 tTransferAmount = tAmount.sub(tFee).sub(tLiquidityFee).sub(tMarketingWalletFee);\r\n        return (tTransferAmount, tFee, tLiquidityFee,tMarketingWalletFee);\r\n    }\r\n\r\n    function getRValues(uint256 amount, uint256 tFee, uint256 tLiquidityFee, uint256 tMarketingWalletFee) internal view returns (uint256,uint256, uint256,uint256,uint256) {\r\n        uint256 currentRate = getRate();\r\n        uint256 tAmount = amount;\r\n        uint256 rAmount = tAmount.mul(currentRate);\r\n        uint256 rFee = tFee.mul(currentRate);\r\n        uint256 rLiquidityfee = tLiquidityFee.mul(currentRate);\r\n        uint256 rMarketingWalletFee = tMarketingWalletFee.mul(currentRate);\r\n        uint256 rTransferAmount = rAmount.sub(rFee).sub(rLiquidityfee).sub(rMarketingWalletFee);\r\n        return (rAmount, rTransferAmount, rFee, rLiquidityfee,rMarketingWalletFee);\r\n    }\r\n\r\n    function getRate() internal view returns(uint256) {\r\n        (uint256 rSupply, uint256 tSupply) = getCurrentSupply();\r\n        return rSupply.div(tSupply);\r\n    }\r\n\r\n    function getCurrentSupply() internal view returns(uint256, uint256) {\r\n        uint256 rSupply = _rTotal;\r\n        uint256 tSupply = _tTotal;      \r\n        for (uint256 i = 0; i < _excluded.length; i++) {\r\n            if (_rOwned[_excluded[i]] > rSupply || _tOwned[_excluded[i]] > tSupply) return (_rTotal, _tTotal);\r\n            rSupply = rSupply.sub(_rOwned[_excluded[i]]);\r\n            tSupply = tSupply.sub(_tOwned[_excluded[i]]);\r\n        }\r\n        if (rSupply < _rTotal.div(_tTotal)) return (_rTotal, _tTotal);\r\n        return (rSupply, tSupply);\r\n    }\r\n\r\n      function _takeLiquidity(uint256 tLiquidity) private {\r\n        uint256 currentRate =  getRate();\r\n        uint256 rLiquidity = tLiquidity.mul(currentRate);\r\n        _rOwned[address(this)] = _rOwned[address(this)].add(rLiquidity);\r\n        if(_isExcluded[address(this)])\r\n            _tOwned[address(this)] = _tOwned[address(this)].add(tLiquidity);\r\n    }\r\n    \r\n    function calculateTaxFee(uint256 _amount) internal view returns (uint256) {\r\n        return _amount.mul(reflectionFee).div(\r\n            10**2\r\n        );\r\n    }\r\n\r\n    function calculateLiquidityFee(uint256 _amount) private view returns (uint256) {\r\n        return _amount.mul(liquidityFee).div(\r\n            10**2\r\n        );\r\n    }\r\n    function calculateMarketingWalletFee(uint256 _amount) internal view returns (uint256) {\r\n        return _amount.mul(marketingWalletFee).div(\r\n            10**2\r\n        );\r\n    }\r\n    \r\n    function removeAllFee() internal {\r\n        if(reflectionFee == 0 && liquidityFee == 0 && marketingWalletFee == 0) return;\r\n        \r\n        previousReflectionFee = reflectionFee;\r\n        reflectionFee = 0;\r\n        \r\n        previousLiquidityFee = liquidityFee;\r\n        liquidityFee = 0;\r\n\r\n        previousMarketingWalletFee = marketingWalletFee;\r\n        marketingWalletFee = 0;\r\n    }\r\n \r\n    function restoreAllFee() internal {\r\n        reflectionFee = previousReflectionFee;\r\n        liquidityFee = previousLiquidityFee;\r\n        marketingWalletFee = previousMarketingWalletFee;\r\n    }\r\n\r\n     function isIncludedInFee(address account) external view returns(bool) {\r\n        return _isIncludedInFee[account];\r\n    }\r\n   \r\n    function _approve(address owner, address spender, uint256 amount) internal virtual {\r\n        require(owner != address(0), \"ERC20: approve from the zero address\");\r\n        require(spender != address(0), \"ERC20: approve to the zero address\");\r\n\r\n        _allowances[owner][spender] = amount;\r\n        emit Approval(owner, spender, amount);\r\n    }\r\n\r\n    function _transfer(\r\n        address from,\r\n        address to,\r\n        uint256 amount\r\n    ) internal {\r\n        require(from != address(0), \"ERC20: transfer from the zero address\");\r\n        require(to != address(0), \"ERC20: transfer to the zero address\");\r\n        require(amount > 0, \"Transfer amount must be greater than zero\");\r\n        // if(from != owner() && to != owner())\r\n            // require(amount <= _maxTxAmount, \"Transfer amount exceeds the maxTxAmount.\");\r\n        _beforeTokenTransfer(from, to);\r\n        uint256 senderBalance = balanceOf(from);\r\n        uint256 contractTokenBalance = balanceOf(address(this));\r\n        bool overMinTokenBalance = contractTokenBalance >= numTokensSellToAddToLiquidity;\r\n       if(overMinTokenBalance && \r\n            !inSwapAndLiquify &&\r\n            from != uniswapV2Pair &&\r\n            swapAndLiquifyEnabled){\r\n            if(enableFee){\r\n                enableFee = false;\r\n                taxDisableInLiquidity = true;\r\n            }\r\n            contractTokenBalance = numTokensSellToAddToLiquidity;\r\n            swapAndLiquify(contractTokenBalance);\r\n            if(taxDisableInLiquidity = false){\r\n                enableFee = true;\r\n            }\r\n        }\r\n\r\n           require(\r\n            senderBalance >= amount,\r\n            \"ERC20: transfer amount exceeds balance\"\r\n        );\r\n         //indicates if fee should be deducted from transfer\r\n        bool takeFee = true;\r\n         //if any account belongs to _isIncludedInFee account then take fee\r\n        //else remove fee\r\n        if (!enableFee) {\r\n            takeFee = false;\r\n        }\r\n       \r\n        //transfer amount, it will take tax, burn and charity amount\r\n        _tokenTransfer(from,to,amount,takeFee);\r\n    }\r\n    \r\n    function swapAndLiquify(uint256 contractTokenBalance) private {\r\n        // split the contract balance into halves\r\n        uint256 half = contractTokenBalance.div(2);\r\n        uint256 otherHalf = contractTokenBalance.sub(half);\r\n\r\n        // capture the contract's current ETH balance.\r\n        // this is so that we can capture exactly the amount of ETH that the\r\n        // swap creates, and not make the liquidity event include any ETH that\r\n        // has been manually sent to the contract\r\n        uint256 initialBalance = address(this).balance;\r\n        // swap tokens for ETH\r\n        swapTokensForEth(half); // <- this breaks the ETH -> HATE swap when swap+liquify is triggered\r\n\r\n        // how much ETH did we just swap into?\r\n        uint256 newBalance = address(this).balance.sub(initialBalance);\r\n\r\n        // add liquidity to uniswap\r\n        addLiquidity(otherHalf, newBalance );\r\n        \r\n        emit SwapAndLiquify(half, newBalance, otherHalf);\r\n    }\r\n\r\n    function swapTokensForEth(uint256 tokenAmount) private {\r\n        // generate the uniswap pair path of token -> weth\r\n        address[] memory path = new address[](2);\r\n        path[0] = address(this);\r\n        path[1] = uniswapV2Router.WETH();\r\n\r\n        _approve(address(this), address(uniswapV2Router), tokenAmount);\r\n\r\n        // make the swap\r\n        uniswapV2Router.swapExactTokensForETHSupportingFeeOnTransferTokens(\r\n            tokenAmount,\r\n            0, // accept any amount of ETH\r\n            path,\r\n            address(this),\r\n            block.timestamp\r\n        );\r\n    }\r\n\r\n    function addLiquidity(uint256 tokenAmount, uint256 ethAmount) private {\r\n        // approve token transfer to cover all possible scenarios\r\n        _approve(address(this), address(uniswapV2Router), tokenAmount);\r\n\r\n        // add the liquidity\r\n        uniswapV2Router.addLiquidityETH{value: ethAmount}(\r\n            address(this),\r\n            tokenAmount,\r\n            0, // slippage is unavoidable\r\n            0, // slippage is unavoidable\r\n            owner(),\r\n            block.timestamp\r\n        );\r\n    }\r\n\r\n    //this method is responsible for taking all fee, if takeFee is true\r\n    function _tokenTransfer(address sender, address recipient, uint256 amount,bool takeFee) internal {\r\n        if(!takeFee)\r\n            removeAllFee();\r\n        \r\n        if (_isExcluded[sender] && !_isExcluded[recipient]) {\r\n            _transferFromExcluded(sender, recipient, amount);\r\n        } else if (!_isExcluded[sender] && _isExcluded[recipient]) {\r\n            _transferToExcluded(sender, recipient, amount);\r\n        } else if (_isExcluded[sender] && _isExcluded[recipient]) {\r\n            _transferBothExcluded(sender, recipient, amount);\r\n        } else {\r\n            _transferStandard(sender, recipient, amount);\r\n        }\r\n        \r\n        if(!takeFee)\r\n            restoreAllFee();\r\n    }\r\n  \r\n    function _transferStandard(address sender, address recipient, uint256 tAmount) internal {\r\n        (uint256 tTransferAmount, uint256 tFee, uint256 tLiquidityFee, uint256 tMarketingWalletFee) = getTValues(tAmount);\r\n        (uint256 rAmount, uint256 rTransferAmount, uint256 rFee,uint256 rLiquidityFee,uint256 rMarketingWalletFee) = getRValues(tAmount, tFee, tLiquidityFee,tMarketingWalletFee);\r\n\r\n        _rOwned[sender] = _rOwned[sender].sub(rAmount);\r\n        _rOwned[recipient] = _rOwned[recipient].add(rTransferAmount);\r\n        takeReflectionFee(rFee, tFee);\r\n        takeLiquidityFee(rLiquidityFee, tLiquidityFee);\r\n        takeMarketingWalletFee(rMarketingWalletFee, tMarketingWalletFee);\r\n        emit Transfer(sender, recipient, tTransferAmount);\r\n\r\n    }\r\n    \r\n    function _transferBothExcluded(address sender, address recipient, uint256 tAmount) internal {\r\n        (uint256 tTransferAmount, uint256 tFee,uint256 tLiquidityFee, uint256 tMarketingWalletFee) = getTValues(tAmount);\r\n        (uint256 rAmount, uint256 rTransferAmount, uint256 rFee, uint256 rLiquidityFee, uint256 rMarketingWalletFee) = getRValues(tAmount, tFee,tLiquidityFee,tMarketingWalletFee);\r\n\r\n        _tOwned[sender] = _tOwned[sender].sub(tAmount);\r\n        _rOwned[sender] = _rOwned[sender].sub(rAmount);\r\n        _tOwned[recipient] = _tOwned[recipient].add(tTransferAmount);\r\n        _rOwned[recipient] = _rOwned[recipient].add(rTransferAmount);        \r\n        takeReflectionFee(rFee, tFee);\r\n        takeLiquidityFee(rLiquidityFee, tLiquidityFee);\r\n        takeMarketingWalletFee(rMarketingWalletFee, tMarketingWalletFee);\r\n        emit Transfer(sender, recipient, tTransferAmount);\r\n\r\n    }\r\n    \r\n    function _transferToExcluded(address sender, address recipient, uint256 tAmount) internal {\r\n        (uint256 tTransferAmount, uint256 tFee, uint256 tLiquidityFee, uint256 tMarketingWalletFee) = getTValues(tAmount);\r\n        (uint256 rAmount, uint256 rTransferAmount, uint256 rFee, uint256 rLiquidityFee, uint256 rMarketingWalletFee) = getRValues(tAmount, tFee,tLiquidityFee,tMarketingWalletFee);\r\n        _rOwned[sender] = _rOwned[sender].sub(rAmount);\r\n        _tOwned[recipient] = _tOwned[recipient].add(tTransferAmount);\r\n        _rOwned[recipient] = _rOwned[recipient].add(rTransferAmount);           \r\n        takeReflectionFee(rFee, tFee);\r\n        takeLiquidityFee(rLiquidityFee, tLiquidityFee);\r\n        takeMarketingWalletFee(rMarketingWalletFee, tMarketingWalletFee);\r\n        emit Transfer(sender, recipient, tTransferAmount);\r\n    }\r\n\r\n    function _transferFromExcluded(address sender, address recipient, uint256 tAmount) internal {\r\n        (uint256 tTransferAmount, uint256 tFee, uint256 tLiquidityFee, uint256 tMarketingWalletFee) = getTValues(tAmount);\r\n        (uint256 rAmount, uint256 rTransferAmount, uint256 rFee, uint256 rLiquidityFee, uint256 rMarketingWalletFee) = getRValues(tAmount, tFee,tLiquidityFee,tMarketingWalletFee);\r\n        _tOwned[sender] = _tOwned[sender].sub(tAmount);\r\n        _rOwned[sender] = _rOwned[sender].sub(rAmount);\r\n        _rOwned[recipient] = _rOwned[recipient].add(rTransferAmount);   \r\n        takeReflectionFee(rFee, tFee);\r\n        takeLiquidityFee(rLiquidityFee, tLiquidityFee);\r\n        takeMarketingWalletFee(rMarketingWalletFee, tMarketingWalletFee);\r\n        emit Transfer(sender, recipient, tTransferAmount);\r\n    }\r\n\r\n     function withdrawToken(address _tokenContract, uint256 _amount)\r\n        external\r\n        onlyOwner\r\n    {\r\n        require(_tokenContract != address(0), \"Address cant be zero address\");\r\n        IERC20 tokenContract = IERC20(_tokenContract);\r\n        tokenContract.transfer(msg.sender, _amount);\r\n        emit ExternalTokenTransfered(_tokenContract, msg.sender, _amount);\r\n    }\r\n\r\n\r\n    function _beforeTokenTransfer(address from, address to) internal virtual { \r\n    }\r\n}",
  "sourcePath": "E:\\Geetha\\ENEXT_contract\\contracts\\ExplorationNext.sol",
  "compiler": {
    "name": "solc",
    "version": "0.8.0+commit.c7dfd78e.Emscripten.clang"
  },
  "schemaVersion": "3.4.3",
  "updatedAt": "2021-12-02T11:48:52.707Z",
  "networkType": "ethereum",
  "devdoc": {
    "kind": "dev",
    "methods": {
      "allowance(address,address)": {
        "details": "See {IERC20-allowance}."
      },
      "approve(address,uint256)": {
        "details": "See {IERC20-approve}. Requirements:` - `spender` cannot be the zero address."
      },
      "balanceOf(address)": {
        "details": "See {IERC20-balanceOf}."
      },
      "decreaseAllowance(address,uint256)": {
        "details": "Atomically decreases the allowance granted to `spender` by the caller. This is an alternative to {approve} that can be used as a mitigation for problems described in {IERC20-approve}. Emits an {Approval} event indicating the updated allowance. Requirements: - `spender` cannot be the zero address. - `spender` must have allowance for the caller of at least `subtractedValue`."
      },
      "increaseAllowance(address,uint256)": {
        "details": "Atomically increases the allowance granted to `spender` by the caller. This is an alternative to {approve} that can be used as a mitigation for problems described in {IERC20-approve}. Emits an {Approval} event indicating the updated allowance. Requirements: - `spender` cannot be the zero address."
      },
      "owner()": {
        "details": "Returns the address of the current owner."
      },
      "renounceOwnership()": {
        "details": "Leaves the contract without owner. It will not be possible to call `onlyOwner` functions anymore. Can only be called by the current owner. NOTE: Renouncing ownership will leave the contract without an owner, thereby removing any functionality that is only available to the owner."
      },
      "totalSupply()": {
        "details": "See {IERC20-totalSupply}."
      },
      "transfer(address,uint256)": {
        "details": "See {IERC20-transfer}. Requirements: - `recipient` cannot be the zero address. - the caller must have a balance of at least `amount`."
      },
      "transferFrom(address,address,uint256)": {
        "details": "See {IERC20-transferFrom}. Emits an {Approval} event indicating the updated allowance. This is not required by the EIP. See the note at the beginning of {ERC20}. Requirements: - `sender` and `recipient` cannot be the zero address. - `sender` must have a balance of at least `amount`. - the caller must have allowance for ``sender``'s tokens of at least `amount`."
      },
      "transferOwnership(address)": {
        "details": "Transfers ownership of the contract to a new account (`newOwner`). Can only be called by the current owner."
      }
    },
    "version": 1
  },
  "userdoc": {
    "kind": "user",
    "methods": {
      "decimals()": {
        "notice": "Returns the number of decimals "
      },
      "name()": {
        "notice": "Returns the name of the token."
      },
      "symbol()": {
        "notice": "Returns the symbol of the token."
      }
    },
    "version": 1
  }
}